{"contracts/ReputationCore.sol":{"ReputationCore":{"abi":[{"inputs":[{"internalType":"address","name":"_passportContract","type":"address"}],"stateMutability":"nonpayable","type":"constructor"},{"anonymous":false,"inputs":[{"indexed":true,"internalType":"address","name":"previousOwner","type":"address"},{"indexed":true,"internalType":"address","name":"newOwner","type":"address"}],"name":"OwnershipTransferred","type":"event"},{"anonymous":false,"inputs":[{"indexed":true,"internalType":"address","name":"user","type":"address"},{"indexed":false,"internalType":"uint256","name":"newReputation","type":"uint256"}],"name":"ReputationUpdated","type":"event"},{"inputs":[],"name":"REPUTATION_ARENA_DIVISOR","outputs":[{"internalType":"uint256","name":"","type":"uint256"}],"stateMutability":"view","type":"function"},{"inputs":[],"name":"REPUTATION_PER_PARTICIPATION","outputs":[{"internalType":"uint256","name":"","type":"uint256"}],"stateMutability":"view","type":"function"},{"inputs":[],"name":"REPUTATION_PER_WIN","outputs":[{"internalType":"uint256","name":"","type":"uint256"}],"stateMutability":"view","type":"function"},{"inputs":[{"internalType":"uint256","name":"wins","type":"uint256"},{"internalType":"uint256","name":"participation","type":"uint256"},{"internalType":"uint256","name":"arenaPoints","type":"uint256"}],"name":"calculateReputation","outputs":[{"internalType":"uint256","name":"","type":"uint256"}],"stateMutability":"pure","type":"function"},{"inputs":[],"name":"getReputationFormula","outputs":[{"internalType":"string","name":"","type":"string"}],"stateMutability":"pure","type":"function"},{"inputs":[],"name":"owner","outputs":[{"internalType":"address","name":"","type":"address"}],"stateMutability":"view","type":"function"},{"inputs":[],"name":"passportContract","outputs":[{"internalType":"contract ISomniaPassport","name":"","type":"address"}],"stateMutability":"view","type":"function"},{"inputs":[],"name":"renounceOwnership","outputs":[],"stateMutability":"nonpayable","type":"function"},{"inputs":[{"internalType":"address","name":"newOwner","type":"address"}],"name":"transferOwnership","outputs":[],"stateMutability":"nonpayable","type":"function"},{"inputs":[{"internalType":"address","name":"_passportContract","type":"address"}],"name":"updatePassportContract","outputs":[],"stateMutability":"nonpayable","type":"function"},{"inputs":[{"internalType":"address","name":"user","type":"address"}],"name":"updateReputation","outputs":[],"stateMutability":"nonpayable","type":"function"}],"evm":{"bytecode":{"linkReferences":{},"object":"6080346100f357601f6108b738819003918201601f19168301916001600160401b038311848410176100f8578084926020946040528339810103126100f357516001600160a01b03808216918290036100f3576000549060018060a01b0319913383821617600055604051913391167f8be0079c531659141344cd1fd0a4f28419497f9722a3daafe3b4186f6b6457e0600080a382156100b1575060015416176001556040516107a8908161010f8239f35b62461bcd60e51b815260206004820152601960248201527f496e76616c69642070617373706f727420636f6e7472616374000000000000006044820152606490fd5b600080fd5b634e487b7160e01b600052604160045260246000fdfe6040608081526004908136101561001557600080fd5b600091823560e01c80630e90e5651461042957806319c7a2981461040d578063715018a6146103b35780638da5cb5b1461038b5780639fb57ede1461036f578063a1f45f9114610285578063ab9027b01461025c578063cbec27bc1461023c578063f2fde38b14610168578063f4445a47146101365763fab0dec41461009a57600080fd5b346101325760203660031901126101325780356001600160a01b038116929083900361012e576100c861071a565b82156100eb5750506bffffffffffffffffffffffff60a01b600154161760015580f35b906020606492519162461bcd60e51b8352820152601960248201527f496e76616c69642070617373706f727420636f6e7472616374000000000000006044820152fd5b8380fd5b8280fd5b509134610165576060366003190112610165575061015e6020926044359060243590356106d9565b9051908152f35b80fd5b509034610132576020366003190112610132576001600160a01b038235818116939192908490036102385761019b61071a565b83156101e6575050600054826bffffffffffffffffffffffff60a01b821617600055167f8be0079c531659141344cd1fd0a4f28419497f9722a3daafe3b4186f6b6457e0600080a380f35b906020608492519162461bcd60e51b8352820152602660248201527f4f776e61626c653a206e6577206f776e657220697320746865207a65726f206160448201526564647265737360d01b6064820152fd5b8480fd5b50503461025857816003193601126102585760209051600a8152f35b5080fd5b50503461025857816003193601126102585760015490516001600160a01b039091168152602090f35b5034610132578260031936011261013257815190608082019082821067ffffffffffffffff83111761035a57508252604381526020907f72657075746174696f6e203d202877696e73202a20353029202b20287061727460208201527f696369706174696f6e202a203529202b20286172656e61506f696e7473202f20838201526231302960e81b6060820152825193849260208452825192836020860152825b84811061034457505050828201840152601f01601f19168101030190f35b8181018301518882018801528795508201610326565b604190634e487b7160e01b6000525260246000fd5b5050346102585781600319360112610258576020905160328152f35b505034610258578160031936011261025857905490516001600160a01b039091168152602090f35b83346101655780600319360112610165576103cc61071a565b600080546001600160a01b0319811682556001600160a01b03167f8be0079c531659141344cd1fd0a4f28419497f9722a3daafe3b4186f6b6457e08280a380f35b5050346102585781600319360112610258576020905160058152f35b50919034610258576020806003193601126101325783356001600160a01b0381811693918490036102385761045c61071a565b83156106495760015416908051631747098d60e21b815284878201528381602481865afa90811561058957869161061c575b50156105e45780516315e9624f60e21b815286810185905260c081602481865afa928315610589578693879288908992610597575b506104cf8483836106d9565b9586036104da578880f35b823b1561059357898980948a9460a49489519889978896630920d22d60e11b88528701528b60248701526044860152606485015260848401525af1801561058957610558575b507ffc577563f1b9a0461e24abef1e1fcc0d33d3d881f20b5df6dda59de4aae2c8219394955051908152a28038808080808080808880f35b67ffffffffffffffff81969296116105765785529394508438610520565b634e487b7160e01b825260418752602482fd5b82513d88823e3d90fd5b8880fd5b93505050925060c0813d60c0116105dc575b816105b660c0938361067e565b810103126105d8578051928482015193606084840151930151909492386104c3565b8580fd5b3d91506105a9565b5162461bcd60e51b8152808601839052601360248201527214185cdcdc1bdc9d081b9bdd081b5a5b9d1959606a1b6044820152606490fd5b90508381813d8311610642575b610633818361067e565b810103126105d857513861048e565b503d610629565b815162461bcd60e51b8152808701849052600f60248201526e496e76616c6964206164647265737360881b6044820152606490fd5b90601f8019910116810190811067ffffffffffffffff8211176106a057604052565b634e487b7160e01b600052604160045260246000fd5b919082018092116106c357565b634e487b7160e01b600052601160045260246000fd5b90916032820291808304603214901517156106c3576005830292808404600514901517156106c35761071792600a6107129204926106b6565b6106b6565b90565b6000546001600160a01b0316330361072e57565b606460405162461bcd60e51b815260206004820152602060248201527f4f776e61626c653a2063616c6c6572206973206e6f7420746865206f776e65726044820152fdfea264697066735822122036e0c48d0f52a7f720b9f07371ff44709bd7519bc5816cc9ed8afb772bb2b23b64736f6c63430008180033","opcodes":"PUSH1 0x80 CALLVALUE PUSH2 0xF3 JUMPI PUSH1 0x1F PUSH2 0x8B7 CODESIZE DUP2 SWAP1 SUB SWAP2 DUP3 ADD PUSH1 0x1F NOT AND DUP4 ADD SWAP2 PUSH1 0x1 PUSH1 0x1 PUSH1 0x40 SHL SUB DUP4 GT DUP5 DUP5 LT OR PUSH2 0xF8 JUMPI DUP1 DUP5 SWAP3 PUSH1 0x20 SWAP5 PUSH1 0x40 MSTORE DUP4 CODECOPY DUP2 ADD SUB SLT PUSH2 0xF3 JUMPI MLOAD PUSH1 0x1 PUSH1 0x1 PUSH1 0xA0 SHL SUB DUP1 DUP3 AND SWAP2 DUP3 SWAP1 SUB PUSH2 0xF3 JUMPI PUSH1 0x0 SLOAD SWAP1 PUSH1 0x1 DUP1 PUSH1 0xA0 SHL SUB NOT SWAP2 CALLER DUP4 DUP3 AND OR PUSH1 0x0 SSTORE PUSH1 0x40 MLOAD SWAP2 CALLER SWAP2 AND PUSH32 0x8BE0079C531659141344CD1FD0A4F28419497F9722A3DAAFE3B4186F6B6457E0 PUSH1 0x0 DUP1 LOG3 DUP3 ISZERO PUSH2 0xB1 JUMPI POP PUSH1 0x1 SLOAD AND OR PUSH1 0x1 SSTORE PUSH1 0x40 MLOAD PUSH2 0x7A8 SWAP1 DUP2 PUSH2 0x10F DUP3 CODECOPY RETURN JUMPDEST PUSH3 0x461BCD PUSH1 0xE5 SHL DUP2 MSTORE PUSH1 0x20 PUSH1 0x4 DUP3 ADD MSTORE PUSH1 0x19 PUSH1 0x24 DUP3 ADD MSTORE PUSH32 0x496E76616C69642070617373706F727420636F6E747261637400000000000000 PUSH1 0x44 DUP3 ADD MSTORE PUSH1 0x64 SWAP1 REVERT JUMPDEST PUSH1 0x0 DUP1 REVERT JUMPDEST PUSH4 0x4E487B71 PUSH1 0xE0 SHL PUSH1 0x0 MSTORE PUSH1 0x41 PUSH1 0x4 MSTORE PUSH1 0x24 PUSH1 0x0 REVERT INVALID PUSH1 0x40 PUSH1 0x80 DUP2 MSTORE PUSH1 0x4 SWAP1 DUP2 CALLDATASIZE LT ISZERO PUSH2 0x15 JUMPI PUSH1 0x0 DUP1 REVERT JUMPDEST PUSH1 0x0 SWAP2 DUP3 CALLDATALOAD PUSH1 0xE0 SHR DUP1 PUSH4 0xE90E565 EQ PUSH2 0x429 JUMPI DUP1 PUSH4 0x19C7A298 EQ PUSH2 0x40D JUMPI DUP1 PUSH4 0x715018A6 EQ PUSH2 0x3B3 JUMPI DUP1 PUSH4 0x8DA5CB5B EQ PUSH2 0x38B JUMPI DUP1 PUSH4 0x9FB57EDE EQ PUSH2 0x36F JUMPI DUP1 PUSH4 0xA1F45F91 EQ PUSH2 0x285 JUMPI DUP1 PUSH4 0xAB9027B0 EQ PUSH2 0x25C JUMPI DUP1 PUSH4 0xCBEC27BC EQ PUSH2 0x23C JUMPI DUP1 PUSH4 0xF2FDE38B EQ PUSH2 0x168 JUMPI DUP1 PUSH4 0xF4445A47 EQ PUSH2 0x136 JUMPI PUSH4 0xFAB0DEC4 EQ PUSH2 0x9A JUMPI PUSH1 0x0 DUP1 REVERT JUMPDEST CALLVALUE PUSH2 0x132 JUMPI PUSH1 0x20 CALLDATASIZE PUSH1 0x3 NOT ADD SLT PUSH2 0x132 JUMPI DUP1 CALLDATALOAD PUSH1 0x1 PUSH1 0x1 PUSH1 0xA0 SHL SUB DUP2 AND SWAP3 SWAP1 DUP4 SWAP1 SUB PUSH2 0x12E JUMPI PUSH2 0xC8 PUSH2 0x71A JUMP JUMPDEST DUP3 ISZERO PUSH2 0xEB JUMPI POP POP PUSH12 0xFFFFFFFFFFFFFFFFFFFFFFFF PUSH1 0xA0 SHL PUSH1 0x1 SLOAD AND OR PUSH1 0x1 SSTORE DUP1 RETURN JUMPDEST SWAP1 PUSH1 0x20 PUSH1 0x64 SWAP3 MLOAD SWAP2 PUSH3 0x461BCD PUSH1 0xE5 SHL DUP4 MSTORE DUP3 ADD MSTORE PUSH1 0x19 PUSH1 0x24 DUP3 ADD MSTORE PUSH32 0x496E76616C69642070617373706F727420636F6E747261637400000000000000 PUSH1 0x44 DUP3 ADD MSTORE REVERT JUMPDEST DUP4 DUP1 REVERT JUMPDEST DUP3 DUP1 REVERT JUMPDEST POP SWAP2 CALLVALUE PUSH2 0x165 JUMPI PUSH1 0x60 CALLDATASIZE PUSH1 0x3 NOT ADD SLT PUSH2 0x165 JUMPI POP PUSH2 0x15E PUSH1 0x20 SWAP3 PUSH1 0x44 CALLDATALOAD SWAP1 PUSH1 0x24 CALLDATALOAD SWAP1 CALLDATALOAD PUSH2 0x6D9 JUMP JUMPDEST SWAP1 MLOAD SWAP1 DUP2 MSTORE RETURN JUMPDEST DUP1 REVERT JUMPDEST POP SWAP1 CALLVALUE PUSH2 0x132 JUMPI PUSH1 0x20 CALLDATASIZE PUSH1 0x3 NOT ADD SLT PUSH2 0x132 JUMPI PUSH1 0x1 PUSH1 0x1 PUSH1 0xA0 SHL SUB DUP3 CALLDATALOAD DUP2 DUP2 AND SWAP4 SWAP2 SWAP3 SWAP1 DUP5 SWAP1 SUB PUSH2 0x238 JUMPI PUSH2 0x19B PUSH2 0x71A JUMP JUMPDEST DUP4 ISZERO PUSH2 0x1E6 JUMPI POP POP PUSH1 0x0 SLOAD DUP3 PUSH12 0xFFFFFFFFFFFFFFFFFFFFFFFF PUSH1 0xA0 SHL DUP3 AND OR PUSH1 0x0 SSTORE AND PUSH32 0x8BE0079C531659141344CD1FD0A4F28419497F9722A3DAAFE3B4186F6B6457E0 PUSH1 0x0 DUP1 LOG3 DUP1 RETURN JUMPDEST SWAP1 PUSH1 0x20 PUSH1 0x84 SWAP3 MLOAD SWAP2 PUSH3 0x461BCD PUSH1 0xE5 SHL DUP4 MSTORE DUP3 ADD MSTORE PUSH1 0x26 PUSH1 0x24 DUP3 ADD MSTORE PUSH32 0x4F776E61626C653A206E6577206F776E657220697320746865207A65726F2061 PUSH1 0x44 DUP3 ADD MSTORE PUSH6 0x646472657373 PUSH1 0xD0 SHL PUSH1 0x64 DUP3 ADD MSTORE REVERT JUMPDEST DUP5 DUP1 REVERT JUMPDEST POP POP CALLVALUE PUSH2 0x258 JUMPI DUP2 PUSH1 0x3 NOT CALLDATASIZE ADD SLT PUSH2 0x258 JUMPI PUSH1 0x20 SWAP1 MLOAD PUSH1 0xA DUP2 MSTORE RETURN JUMPDEST POP DUP1 REVERT JUMPDEST POP POP CALLVALUE PUSH2 0x258 JUMPI DUP2 PUSH1 0x3 NOT CALLDATASIZE ADD SLT PUSH2 0x258 JUMPI PUSH1 0x1 SLOAD SWAP1 MLOAD PUSH1 0x1 PUSH1 0x1 PUSH1 0xA0 SHL SUB SWAP1 SWAP2 AND DUP2 MSTORE PUSH1 0x20 SWAP1 RETURN JUMPDEST POP CALLVALUE PUSH2 0x132 JUMPI DUP3 PUSH1 0x3 NOT CALLDATASIZE ADD SLT PUSH2 0x132 JUMPI DUP2 MLOAD SWAP1 PUSH1 0x80 DUP3 ADD SWAP1 DUP3 DUP3 LT PUSH8 0xFFFFFFFFFFFFFFFF DUP4 GT OR PUSH2 0x35A JUMPI POP DUP3 MSTORE PUSH1 0x43 DUP2 MSTORE PUSH1 0x20 SWAP1 PUSH32 0x72657075746174696F6E203D202877696E73202A20353029202B202870617274 PUSH1 0x20 DUP3 ADD MSTORE PUSH32 0x696369706174696F6E202A203529202B20286172656E61506F696E7473202F20 DUP4 DUP3 ADD MSTORE PUSH3 0x313029 PUSH1 0xE8 SHL PUSH1 0x60 DUP3 ADD MSTORE DUP3 MLOAD SWAP4 DUP5 SWAP3 PUSH1 0x20 DUP5 MSTORE DUP3 MLOAD SWAP3 DUP4 PUSH1 0x20 DUP7 ADD MSTORE DUP3 JUMPDEST DUP5 DUP2 LT PUSH2 0x344 JUMPI POP POP POP DUP3 DUP3 ADD DUP5 ADD MSTORE PUSH1 0x1F ADD PUSH1 0x1F NOT AND DUP2 ADD SUB ADD SWAP1 RETURN JUMPDEST DUP2 DUP2 ADD DUP4 ADD MLOAD DUP9 DUP3 ADD DUP9 ADD MSTORE DUP8 SWAP6 POP DUP3 ADD PUSH2 0x326 JUMP JUMPDEST PUSH1 0x41 SWAP1 PUSH4 0x4E487B71 PUSH1 0xE0 SHL PUSH1 0x0 MSTORE MSTORE PUSH1 0x24 PUSH1 0x0 REVERT JUMPDEST POP POP CALLVALUE PUSH2 0x258 JUMPI DUP2 PUSH1 0x3 NOT CALLDATASIZE ADD SLT PUSH2 0x258 JUMPI PUSH1 0x20 SWAP1 MLOAD PUSH1 0x32 DUP2 MSTORE RETURN JUMPDEST POP POP CALLVALUE PUSH2 0x258 JUMPI DUP2 PUSH1 0x3 NOT CALLDATASIZE ADD SLT PUSH2 0x258 JUMPI SWAP1 SLOAD SWAP1 MLOAD PUSH1 0x1 PUSH1 0x1 PUSH1 0xA0 SHL SUB SWAP1 SWAP2 AND DUP2 MSTORE PUSH1 0x20 SWAP1 RETURN JUMPDEST DUP4 CALLVALUE PUSH2 0x165 JUMPI DUP1 PUSH1 0x3 NOT CALLDATASIZE ADD SLT PUSH2 0x165 JUMPI PUSH2 0x3CC PUSH2 0x71A JUMP JUMPDEST PUSH1 0x0 DUP1 SLOAD PUSH1 0x1 PUSH1 0x1 PUSH1 0xA0 SHL SUB NOT DUP2 AND DUP3 SSTORE PUSH1 0x1 PUSH1 0x1 PUSH1 0xA0 SHL SUB AND PUSH32 0x8BE0079C531659141344CD1FD0A4F28419497F9722A3DAAFE3B4186F6B6457E0 DUP3 DUP1 LOG3 DUP1 RETURN JUMPDEST POP POP CALLVALUE PUSH2 0x258 JUMPI DUP2 PUSH1 0x3 NOT CALLDATASIZE ADD SLT PUSH2 0x258 JUMPI PUSH1 0x20 SWAP1 MLOAD PUSH1 0x5 DUP2 MSTORE RETURN JUMPDEST POP SWAP2 SWAP1 CALLVALUE PUSH2 0x258 JUMPI PUSH1 0x20 DUP1 PUSH1 0x3 NOT CALLDATASIZE ADD SLT PUSH2 0x132 JUMPI DUP4 CALLDATALOAD PUSH1 0x1 PUSH1 0x1 PUSH1 0xA0 SHL SUB DUP2 DUP2 AND SWAP4 SWAP2 DUP5 SWAP1 SUB PUSH2 0x238 JUMPI PUSH2 0x45C PUSH2 0x71A JUMP JUMPDEST DUP4 ISZERO PUSH2 0x649 JUMPI PUSH1 0x1 SLOAD AND SWAP1 DUP1 MLOAD PUSH4 0x1747098D PUSH1 0xE2 SHL DUP2 MSTORE DUP5 DUP8 DUP3 ADD MSTORE DUP4 DUP2 PUSH1 0x24 DUP2 DUP7 GAS STATICCALL SWAP1 DUP2 ISZERO PUSH2 0x589 JUMPI DUP7 SWAP2 PUSH2 0x61C JUMPI JUMPDEST POP ISZERO PUSH2 0x5E4 JUMPI DUP1 MLOAD PUSH4 0x15E9624F PUSH1 0xE2 SHL DUP2 MSTORE DUP7 DUP2 ADD DUP6 SWAP1 MSTORE PUSH1 0xC0 DUP2 PUSH1 0x24 DUP2 DUP7 GAS STATICCALL SWAP3 DUP4 ISZERO PUSH2 0x589 JUMPI DUP7 SWAP4 DUP8 SWAP3 DUP9 SWAP1 DUP10 SWAP3 PUSH2 0x597 JUMPI JUMPDEST POP PUSH2 0x4CF DUP5 DUP4 DUP4 PUSH2 0x6D9 JUMP JUMPDEST SWAP6 DUP7 SUB PUSH2 0x4DA JUMPI DUP9 DUP1 RETURN JUMPDEST DUP3 EXTCODESIZE ISZERO PUSH2 0x593 JUMPI DUP10 DUP10 DUP1 SWAP5 DUP11 SWAP5 PUSH1 0xA4 SWAP5 DUP10 MLOAD SWAP9 DUP10 SWAP8 DUP9 SWAP7 PUSH4 0x920D22D PUSH1 0xE1 SHL DUP9 MSTORE DUP8 ADD MSTORE DUP12 PUSH1 0x24 DUP8 ADD MSTORE PUSH1 0x44 DUP7 ADD MSTORE PUSH1 0x64 DUP6 ADD MSTORE PUSH1 0x84 DUP5 ADD MSTORE GAS CALL DUP1 ISZERO PUSH2 0x589 JUMPI PUSH2 0x558 JUMPI JUMPDEST POP PUSH32 0xFC577563F1B9A0461E24ABEF1E1FCC0D33D3D881F20B5DF6DDA59DE4AAE2C821 SWAP4 SWAP5 SWAP6 POP MLOAD SWAP1 DUP2 MSTORE LOG2 DUP1 CODESIZE DUP1 DUP1 DUP1 DUP1 DUP1 DUP1 DUP1 DUP9 DUP1 RETURN JUMPDEST PUSH8 0xFFFFFFFFFFFFFFFF DUP2 SWAP7 SWAP3 SWAP7 GT PUSH2 0x576 JUMPI DUP6 MSTORE SWAP4 SWAP5 POP DUP5 CODESIZE PUSH2 0x520 JUMP JUMPDEST PUSH4 0x4E487B71 PUSH1 0xE0 SHL DUP3 MSTORE PUSH1 0x41 DUP8 MSTORE PUSH1 0x24 DUP3 REVERT JUMPDEST DUP3 MLOAD RETURNDATASIZE DUP9 DUP3 RETURNDATACOPY RETURNDATASIZE SWAP1 REVERT JUMPDEST DUP9 DUP1 REVERT JUMPDEST SWAP4 POP POP POP SWAP3 POP PUSH1 0xC0 DUP2 RETURNDATASIZE PUSH1 0xC0 GT PUSH2 0x5DC JUMPI JUMPDEST DUP2 PUSH2 0x5B6 PUSH1 0xC0 SWAP4 DUP4 PUSH2 0x67E JUMP JUMPDEST DUP2 ADD SUB SLT PUSH2 0x5D8 JUMPI DUP1 MLOAD SWAP3 DUP5 DUP3 ADD MLOAD SWAP4 PUSH1 0x60 DUP5 DUP5 ADD MLOAD SWAP4 ADD MLOAD SWAP1 SWAP5 SWAP3 CODESIZE PUSH2 0x4C3 JUMP JUMPDEST DUP6 DUP1 REVERT JUMPDEST RETURNDATASIZE SWAP2 POP PUSH2 0x5A9 JUMP JUMPDEST MLOAD PUSH3 0x461BCD PUSH1 0xE5 SHL DUP2 MSTORE DUP1 DUP7 ADD DUP4 SWAP1 MSTORE PUSH1 0x13 PUSH1 0x24 DUP3 ADD MSTORE PUSH19 0x14185CDCDC1BDC9D081B9BDD081B5A5B9D1959 PUSH1 0x6A SHL PUSH1 0x44 DUP3 ADD MSTORE PUSH1 0x64 SWAP1 REVERT JUMPDEST SWAP1 POP DUP4 DUP2 DUP2 RETURNDATASIZE DUP4 GT PUSH2 0x642 JUMPI JUMPDEST PUSH2 0x633 DUP2 DUP4 PUSH2 0x67E JUMP JUMPDEST DUP2 ADD SUB SLT PUSH2 0x5D8 JUMPI MLOAD CODESIZE PUSH2 0x48E JUMP JUMPDEST POP RETURNDATASIZE PUSH2 0x629 JUMP JUMPDEST DUP2 MLOAD PUSH3 0x461BCD PUSH1 0xE5 SHL DUP2 MSTORE DUP1 DUP8 ADD DUP5 SWAP1 MSTORE PUSH1 0xF PUSH1 0x24 DUP3 ADD MSTORE PUSH15 0x496E76616C69642061646472657373 PUSH1 0x88 SHL PUSH1 0x44 DUP3 ADD MSTORE PUSH1 0x64 SWAP1 REVERT JUMPDEST SWAP1 PUSH1 0x1F DUP1 NOT SWAP2 ADD AND DUP2 ADD SWAP1 DUP2 LT PUSH8 0xFFFFFFFFFFFFFFFF DUP3 GT OR PUSH2 0x6A0 JUMPI PUSH1 0x40 MSTORE JUMP JUMPDEST PUSH4 0x4E487B71 PUSH1 0xE0 SHL PUSH1 0x0 MSTORE PUSH1 0x41 PUSH1 0x4 MSTORE PUSH1 0x24 PUSH1 0x0 REVERT JUMPDEST SWAP2 SWAP1 DUP3 ADD DUP1 SWAP3 GT PUSH2 0x6C3 JUMPI JUMP JUMPDEST PUSH4 0x4E487B71 PUSH1 0xE0 SHL PUSH1 0x0 MSTORE PUSH1 0x11 PUSH1 0x4 MSTORE PUSH1 0x24 PUSH1 0x0 REVERT JUMPDEST SWAP1 SWAP2 PUSH1 0x32 DUP3 MUL SWAP2 DUP1 DUP4 DIV PUSH1 0x32 EQ SWAP1 ISZERO OR ISZERO PUSH2 0x6C3 JUMPI PUSH1 0x5 DUP4 MUL SWAP3 DUP1 DUP5 DIV PUSH1 0x5 EQ SWAP1 ISZERO OR ISZERO PUSH2 0x6C3 JUMPI PUSH2 0x717 SWAP3 PUSH1 0xA PUSH2 0x712 SWAP3 DIV SWAP3 PUSH2 0x6B6 JUMP JUMPDEST PUSH2 0x6B6 JUMP JUMPDEST SWAP1 JUMP JUMPDEST PUSH1 0x0 SLOAD PUSH1 0x1 PUSH1 0x1 PUSH1 0xA0 SHL SUB AND CALLER SUB PUSH2 0x72E JUMPI JUMP JUMPDEST PUSH1 0x64 PUSH1 0x40 MLOAD PUSH3 0x461BCD PUSH1 0xE5 SHL DUP2 MSTORE PUSH1 0x20 PUSH1 0x4 DUP3 ADD MSTORE PUSH1 0x20 PUSH1 0x24 DUP3 ADD MSTORE PUSH32 0x4F776E61626C653A2063616C6C6572206973206E6F7420746865206F776E6572 PUSH1 0x44 DUP3 ADD MSTORE REVERT INVALID LOG2 PUSH5 0x6970667358 0x22 SLT KECCAK256 CALLDATASIZE 0xE0 0xC4 DUP14 0xF MSTORE 0xA7 0xF7 KECCAK256 0xB9 CREATE PUSH20 0x71FF44709BD7519BC5816CC9ED8AFB772BB2B23B PUSH5 0x736F6C6343 STOP ADDMOD XOR STOP CALLER "},"methodIdentifiers":{"REPUTATION_ARENA_DIVISOR()":"cbec27bc","REPUTATION_PER_PARTICIPATION()":"19c7a298","REPUTATION_PER_WIN()":"9fb57ede","calculateReputation(uint256,uint256,uint256)":"f4445a47","getReputationFormula()":"a1f45f91","owner()":"8da5cb5b","passportContract()":"ab9027b0","renounceOwnership()":"715018a6","transferOwnership(address)":"f2fde38b","updatePassportContract(address)":"fab0dec4","updateReputation(address)":"0e90e565"}}}}}