{"contracts/ArenaEngine.sol":{"ArenaEngine":{"abi":[{"inputs":[{"internalType":"address","name":"_passportContract","type":"address"}],"stateMutability":"nonpayable","type":"constructor"},{"anonymous":false,"inputs":[{"indexed":true,"internalType":"uint256","name":"challengeId","type":"uint256"},{"indexed":true,"internalType":"address","name":"creator","type":"address"},{"indexed":false,"internalType":"uint256","name":"entryFee","type":"uint256"},{"indexed":false,"internalType":"uint256","name":"duration","type":"uint256"}],"name":"ChallengeCreated","type":"event"},{"anonymous":false,"inputs":[{"indexed":true,"internalType":"uint256","name":"challengeId","type":"uint256"},{"indexed":true,"internalType":"address","name":"winner","type":"address"},{"indexed":false,"internalType":"uint256","name":"winPool","type":"uint256"}],"name":"ChallengeFinalized","type":"event"},{"anonymous":false,"inputs":[{"indexed":true,"internalType":"address","name":"previousOwner","type":"address"},{"indexed":true,"internalType":"address","name":"newOwner","type":"address"}],"name":"OwnershipTransferred","type":"event"},{"anonymous":false,"inputs":[{"indexed":true,"internalType":"uint256","name":"challengeId","type":"uint256"},{"indexed":true,"internalType":"address","name":"participant","type":"address"}],"name":"ParticipantEntered","type":"event"},{"anonymous":false,"inputs":[{"indexed":true,"internalType":"uint256","name":"challengeId","type":"uint256"},{"indexed":true,"internalType":"address","name":"participant","type":"address"},{"indexed":false,"internalType":"uint256","name":"score","type":"uint256"},{"indexed":false,"internalType":"uint256","name":"rank","type":"uint256"}],"name":"ScoreSubmitted","type":"event"},{"anonymous":false,"inputs":[{"indexed":true,"internalType":"address","name":"recipient","type":"address"},{"indexed":false,"internalType":"uint256","name":"amount","type":"uint256"}],"name":"WithdrawalProcessed","type":"event"},{"inputs":[{"internalType":"uint256","name":"challengeId","type":"uint256"},{"internalType":"address","name":"participant","type":"address"}],"name":"calculateRank","outputs":[{"internalType":"uint256","name":"","type":"uint256"}],"stateMutability":"view","type":"function"},{"inputs":[{"internalType":"uint256","name":"","type":"uint256"}],"name":"challenges","outputs":[{"internalType":"uint256","name":"id","type":"uint256"},{"internalType":"address","name":"creator","type":"address"},{"internalType":"uint256","name":"entryFee","type":"uint256"},{"internalType":"uint256","name":"duration","type":"uint256"},{"internalType":"uint256","name":"startTime","type":"uint256"},{"internalType":"uint256","name":"totalPrize","type":"uint256"},{"internalType":"bool","name":"finalized","type":"bool"},{"internalType":"address","name":"topPlayer","type":"address"},{"internalType":"uint256","name":"topScore","type":"uint256"}],"stateMutability":"view","type":"function"},{"inputs":[{"internalType":"uint256","name":"entryFee","type":"uint256"},{"internalType":"uint256","name":"duration","type":"uint256"}],"name":"createChallenge","outputs":[{"internalType":"uint256","name":"","type":"uint256"}],"stateMutability":"nonpayable","type":"function"},{"inputs":[{"internalType":"uint256","name":"challengeId","type":"uint256"}],"name":"enterChallenge","outputs":[],"stateMutability":"payable","type":"function"},{"inputs":[{"internalType":"uint256","name":"challengeId","type":"uint256"}],"name":"finalizeChallenge","outputs":[],"stateMutability":"nonpayable","type":"function"},{"inputs":[{"internalType":"uint256","name":"challengeId","type":"uint256"}],"name":"getChallenge","outputs":[{"components":[{"internalType":"uint256","name":"id","type":"uint256"},{"internalType":"address","name":"creator","type":"address"},{"internalType":"uint256","name":"entryFee","type":"uint256"},{"internalType":"uint256","name":"duration","type":"uint256"},{"internalType":"uint256","name":"startTime","type":"uint256"},{"internalType":"uint256","name":"totalPrize","type":"uint256"},{"internalType":"bool","name":"finalized","type":"bool"},{"internalType":"address","name":"topPlayer","type":"address"},{"internalType":"uint256","name":"topScore","type":"uint256"}],"internalType":"struct ArenaEngine.Challenge","name":"","type":"tuple"}],"stateMutability":"view","type":"function"},{"inputs":[],"name":"getChallengeIdCounter","outputs":[{"internalType":"uint256","name":"","type":"uint256"}],"stateMutability":"view","type":"function"},{"inputs":[{"internalType":"uint256","name":"challengeId","type":"uint256"}],"name":"getLeaderboard","outputs":[{"internalType":"address[]","name":"addresses","type":"address[]"},{"internalType":"uint256[]","name":"scores_","type":"uint256[]"}],"stateMutability":"view","type":"function"},{"inputs":[{"internalType":"uint256","name":"challengeId","type":"uint256"}],"name":"getParticipantCount","outputs":[{"internalType":"uint256","name":"","type":"uint256"}],"stateMutability":"view","type":"function"},{"inputs":[{"internalType":"uint256","name":"challengeId","type":"uint256"}],"name":"getParticipants","outputs":[{"internalType":"address[]","name":"","type":"address[]"}],"stateMutability":"view","type":"function"},{"inputs":[],"name":"owner","outputs":[{"internalType":"address","name":"","type":"address"}],"stateMutability":"view","type":"function"},{"inputs":[{"internalType":"uint256","name":"","type":"uint256"},{"internalType":"address","name":"","type":"address"}],"name":"participantIndex","outputs":[{"internalType":"uint256","name":"","type":"uint256"}],"stateMutability":"view","type":"function"},{"inputs":[{"internalType":"uint256","name":"","type":"uint256"},{"internalType":"uint256","name":"","type":"uint256"}],"name":"participants","outputs":[{"internalType":"address","name":"","type":"address"}],"stateMutability":"view","type":"function"},{"inputs":[],"name":"passportContract","outputs":[{"internalType":"contract ISomniaPassport","name":"","type":"address"}],"stateMutability":"view","type":"function"},{"inputs":[{"internalType":"address","name":"","type":"address"}],"name":"pendingWithdrawals","outputs":[{"internalType":"uint256","name":"","type":"uint256"}],"stateMutability":"view","type":"function"},{"inputs":[],"name":"renounceOwnership","outputs":[],"stateMutability":"nonpayable","type":"function"},{"inputs":[{"internalType":"uint256","name":"","type":"uint256"},{"internalType":"address","name":"","type":"address"}],"name":"scores","outputs":[{"internalType":"uint256","name":"","type":"uint256"}],"stateMutability":"view","type":"function"},{"inputs":[{"internalType":"uint256","name":"challengeId","type":"uint256"},{"internalType":"uint256","name":"score","type":"uint256"}],"name":"submitScore","outputs":[],"stateMutability":"nonpayable","type":"function"},{"inputs":[{"internalType":"address","name":"newOwner","type":"address"}],"name":"transferOwnership","outputs":[],"stateMutability":"nonpayable","type":"function"},{"inputs":[],"name":"withdraw","outputs":[],"stateMutability":"nonpayable","type":"function"}],"evm":{"bytecode":{"linkReferences":{},"object":"6080346100fc57601f6116f238819003918201601f19168301916001600160401b03831184841017610101578084926020946040528339810103126100fc57516001600160a01b03808216918290036100fc576000549060018060a01b0319913383821617600055604051913391167f8be0079c531659141344cd1fd0a4f28419497f9722a3daafe3b4186f6b6457e0600080a36001805582156100ba5750600754161760075560016006556040516115da90816101188239f35b62461bcd60e51b815260206004820152601960248201527f496e76616c69642070617373706f727420636f6e7472616374000000000000006044820152606490fd5b600080fd5b634e487b7160e01b600052604160045260246000fdfe608060408181526004918236101561001657600080fd5b600092833560e01c9182631bdd4b741461107b5750816325c1a69514610e0a5781633ccfd60b14610cd3578163484dd61a14610a8157816357a248f114610a62578163715018a614610a085781637a07b674146109c657816381fb1fb41461097f5781638358ba081461077c57816384f615851461065e57816386ae5fec146106375781638da5cb5b1461060f5781638f1d377614610580578163a34b46fe14610326578163ab9027b0146102fd578163ace25895146102bb578163c1e3bd3e14610234578163e5656a5e14610202578163f2fde38b1461013b575063f3f437031461010157600080fd5b346101375760203660031901126101375760209181906001600160a01b036101276111b5565b1681526008845220549051908152f35b5080fd5b9050346101fe5760203660031901126101fe576101566111b5565b9061015f61154c565b6001600160a01b039182169283156101ac57505082546001600160a01b0319811683178455167f8be0079c531659141344cd1fd0a4f28419497f9722a3daafe3b4186f6b6457e08380a380f35b906020608492519162461bcd60e51b8352820152602660248201527f4f776e61626c653a206e6577206f776e657220697320746865207a65726f206160448201526564647265737360d01b6064820152fd5b8280fd5b8284346102315781600319360112610231575061022a60209261022361119a565b90356113c1565b9051908152f35b80fd5b919050346101fe57602091826003193601126102b757803584528252808320815190819485928583549182815201928252858220915b86828210610297578590610293886102848489038561127f565b5192828493845283019061120f565b0390f35b83546001600160a01b03168552889550909301926001928301920161026a565b8380fd5b9050346101fe57816003193601126101fe5760209282916102da61119a565b90358252600585528282206001600160a01b039091168252845220549051908152f35b50503461013757816003193601126101375760075490516001600160a01b039091168152602090f35b83915034610137576020806003193601126101fe579092918335918282528481528382209084519182828254918281520191855282852090855b818110610563575050508261037691038361127f565b81519561038287611395565b9661038f8751988961127f565b80885261039b81611395565b601f1996908701368a8601376103b082611395565b946103bd8951968761127f565b8286526103c983611395565b8686019801368937865b83811061050057505050845b81811061043457505050806103fd865197878998895288019061120f565b928684038288015251928381520193925b82811061041d57505050500390f35b83518552869550938101939281019260010161040e565b6001989395949697988082018083116104ed575b838110610460575050600101979695939492976103df565b8061046c83928b6113ad565b51610477858c6113ad565b5110610484575b01610448565b6001600160a01b0380610497868a6113ad565b5116906104a4838a6113ad565b51166104b0868a6113ad565b526104bb82896113ad565b526104c6848b6113ad565b516104d1828c6113ad565b516104dc868d6113ad565b526104e7828c6113ad565b5261047e565b634e487b7160e01b875260118552602487fd5b9899979895979496956001906001600160a01b038061051f83866113ad565b511661052b838a6113ad565b5284895260038a528c89209061054183866113ad565b5116895289528b882054610555828c6113ad565b5201999897959694996103d3565b82546001600160a01b031684529284019260019283019201610360565b9050346101fe5760203660031901126101fe578161012093823581526002602052209182549260018060a01b039182600183015416936002830154906003840154908401549160058501549360076006870154960154978151998a5260208a01528801526060870152608086015260a085015260ff8116151560c085015260081c1660e0830152610100820152f35b505034610137578160031936011261013757905490516001600160a01b039091168152602090f35b9050346101fe5760203660031901126101fe57602092818392358252845220549051908152f35b8383346101375761066e366111cb565b61067661154c565b610e10811061073957600654936001850180861161072657602096600791600655868352600288528583209087825560018201336bffffffffffffffffffffffff60a01b8254161790558560028301558460038301554290820155826005820155600681016affffffffffffffffffffff60a81b81541690550155825191825284820152827f7c9c42ea4a98ff02e597498c394568923c74c2d3e031718ad08dbb59a42f03eb833393a351908152f35b634e487b7160e01b825260118752602482fd5b825162461bcd60e51b8152602081870181905260248201527f4475726174696f6e206d757374206265206174206c65617374203120686f75726044820152606490fd5b9050346101fe5761078c366111cb565b9290916107976114f6565b828552602090600282528286206107b0815415156112a1565b60068101916107c360ff845416156112ed565b6107df6107d882840154600385015490611332565b4210611355565b861561093c57858852600384528488203389528452848820548015801590610922575b156108df5787111561089c5750908560077fd0d8829ed5c85447ff7f11f919d541dd197effa10f32914186d91cfcad32f439959493878a5260038552858a20338b52855282868b20550180548211610875575b50505061086233856113c1565b9082519586528501523393a36001805580f35b558054610100600160a81b0319163360081b610100600160a81b0316179055388581610855565b845162461bcd60e51b8152908101849052601760248201527f53636f72652063616e206f6e6c7920696e6372656173650000000000000000006044820152606490fd5b855162461bcd60e51b8152808301869052601d60248201527f4e6f742070617274696369706174656420696e206368616c6c656e67650000006044820152606490fd5b5086895260038552858920338a5285528589205415610802565b845162461bcd60e51b8152908101849052601f60248201527f53636f7265206d7573742062652067726561746572207468616e207a65726f006044820152606490fd5b8284346102315761098f366111cb565b9390825260205281812090815484101561023157506020926109b0916111e1565b905491519160018060a01b039160031b1c168152f35b9050346101fe57816003193601126101fe5760209282916109e561119a565b90358252600385528282206001600160a01b039091168252845220549051908152f35b8334610231578060031936011261023157610a2161154c565b80546001600160a01b03198116825581906001600160a01b03167f8be0079c531659141344cd1fd0a4f28419497f9722a3daafe3b4186f6b6457e08280a380f35b5050346101375781600319360112610137576020906006549051908152f35b83833461013757602090816003193601126101fe578335610aa061154c565b610aa86114f6565b8084526002835281842092610abf845415156112a1565b600684019384549460ff8616610c90578782015490610ae5600392600385015490611332565b4210610c54576001809760ff1916179182825560018060a01b03928360089160081c169485610b16575b8a8a805580f35b600501546046810281810460461482151715610c41576064900495868203918211610c41578b5260088752888b20610b4f878254611332565b9055878b528b8752888b2054908a8211610baa575b505050507f65a8b6841034f85ee47ce3b451ae9348ce320bb1bbfa24551f637873754f373c9495969798505460081c169451908152a38190838080808080808080610b0f565b6000198201918211610c41578115610c2e5704918a8a5b15610b6457888c528c8852898c208054821015610c2857818b8e898f98979695610bec908a966111e1565b905490871b1c168a8a54881c168103610c0d575b5050500190919293610bc1565b8152858c5220610c1e868254611332565b90558b8e38610c00565b50610b64565b634e487b7160e01b8c5260128d5260248cfd5b634e487b7160e01b8c5260118d5260248cfd5b855162461bcd60e51b8152808a0185905260166024820152754368616c6c656e6765207374696c6c2061637469766560501b6044820152606490fd5b845162461bcd60e51b8152808901849052601b60248201527f4368616c6c656e676520616c72656164792066696e616c697a656400000000006044820152606490fd5b919050346101fe57826003193601126101fe57610cee6114f6565b3383526020906008825280842054928315610dd0573385526008835284828120558480808087335af13d15610dcb573d67ffffffffffffffff8111610db857835190610d43601f8201601f191687018361127f565b815286853d92013e5b15610d835750907f5abb0fc89def2ee3226cc48f5621ee8e2b45f6dcc7898d2bdb5d480533c32bc091519283523392a26001805580f35b82606492519162461bcd60e51b8352820152601160248201527015da5d1a191c985dd85b0819985a5b1959607a1b6044820152fd5b634e487b7160e01b875260418352602487fd5b610d4c565b82606492519162461bcd60e51b835282015260166024820152754e6f2070656e64696e67207769746864726177616c7360501b6044820152fd5b83602084366003190182136101fe57833591610e246114f6565b82845260028152818420610e3a815415156112a1565b6002810154340361104257610e5660ff600683015416156112ed565b610e6b6107d887830154600384015490611332565b6007548351631747098d60e21b815233888201526001600160a01b03929184908290602490829087165afa908115611038578791611007575b5015610fc45784865260038352838620338752835283862054610f8157600501610ecf348254611332565b9055838552858252828520546005835283862033875283528386205583855285825282852080549068010000000000000000821015610f6e5781610f1c91600189979695940181556111e1565b819291549060031b9133831b921b191617905583835260038152818320903384525281205533907f7076b6d580c0523456eb58b88d88dc6937af3562eaa19a4a16af7885694781288380a36001805580f35b634e487b7160e01b875260418852602487fd5b835162461bcd60e51b8152808801849052601960248201527f416c726561647920656e7465726564206368616c6c656e6765000000000000006044820152606490fd5b835162461bcd60e51b8152808801849052601860248201527f4d757374206d696e742070617373706f727420666972737400000000000000006044820152606490fd5b90508381813d8311611031575b61101e818361127f565b8101031261102d575188610ea4565b8680fd5b503d611014565b85513d89823e3d90fd5b825162461bcd60e51b81528087018390526013602482015272496e636f727265637420656e7472792066656560681b6044820152606490fd5b9150346102b75760203660031901126102b75760ff90836101209561109f8561124c565b80855280602086015280828601528060608601528060808601528060a08601528060c08601528060e086015280610100809601528235815260026020522084519283916110eb8361124c565b80549687845260018060a01b03948560018401541691602086019283526002840154818701908152876003860154936060890194855286015494608089019586528b600760058901549860a08c01998a528460e060068301549d8e60c082019e8f911615159052019c60081c168c5201549b019a8b5283519c8d52511660208c015251908a01525160608901525160808801525160a087015251151560c0860152511660e08401525190820152f35b602435906001600160a01b03821682036111b057565b600080fd5b600435906001600160a01b03821682036111b057565b60409060031901126111b0576004359060243590565b80548210156111f95760005260206000200190600090565b634e487b7160e01b600052603260045260246000fd5b90815180825260208080930193019160005b82811061122f575050505090565b83516001600160a01b031685529381019392810192600101611221565b610120810190811067ffffffffffffffff82111761126957604052565b634e487b7160e01b600052604160045260246000fd5b90601f8019910116810190811067ffffffffffffffff82111761126957604052565b156112a857565b60405162461bcd60e51b815260206004820152601860248201527f4368616c6c656e676520646f6573206e6f7420657869737400000000000000006044820152606490fd5b156112f457565b60405162461bcd60e51b815260206004820152601660248201527510da185b1b195b99d9481a5cc8199a5b985b1a5e995960521b6044820152606490fd5b9190820180921161133f57565b634e487b7160e01b600052601160045260246000fd5b1561135c57565b60405162461bcd60e51b815260206004820152601160248201527010da185b1b195b99d948195e1c1a5c9959607a1b6044820152606490fd5b67ffffffffffffffff81116112695760051b60200190565b80518210156111f95760209160051b010190565b60008181526003602081815260408084206001600160a01b03968716855282528084205492969594909183156114b357600195828652600498600483528487209385518086868298549384815201908b52868b20928b5b8d8983831061149c57505050506114319250038661127f565b875b855181101561148e578189528285528689208461145083896113ad565b51168a52855287878a205411611469575b600101611433565b986001810180911161147b5798611461565b634e487b7160e01b895260118c52602489fd5b509799505050505050505050565b86548a168552958101958b95509093019201611418565b60649083519062461bcd60e51b82526004820152601c60248201527f5061727469636970616e74206e6f7420696e206368616c6c656e6765000000006044820152fd5b600260015414611507576002600155565b60405162461bcd60e51b815260206004820152601f60248201527f5265656e7472616e637947756172643a207265656e7472616e742063616c6c006044820152606490fd5b6000546001600160a01b0316330361156057565b606460405162461bcd60e51b815260206004820152602060248201527f4f776e61626c653a2063616c6c6572206973206e6f7420746865206f776e65726044820152fdfea264697066735822122079499edcc5d3f6e30f1db947b8a7a7ae5dcafe10bb9390e8229d781a8ea44d2564736f6c63430008180033","opcodes":"PUSH1 0x80 CALLVALUE PUSH2 0xFC JUMPI PUSH1 0x1F PUSH2 0x16F2 CODESIZE DUP2 SWAP1 SUB SWAP2 DUP3 ADD PUSH1 0x1F NOT AND DUP4 ADD SWAP2 PUSH1 0x1 PUSH1 0x1 PUSH1 0x40 SHL SUB DUP4 GT DUP5 DUP5 LT OR PUSH2 0x101 JUMPI DUP1 DUP5 SWAP3 PUSH1 0x20 SWAP5 PUSH1 0x40 MSTORE DUP4 CODECOPY DUP2 ADD SUB SLT PUSH2 0xFC JUMPI MLOAD PUSH1 0x1 PUSH1 0x1 PUSH1 0xA0 SHL SUB DUP1 DUP3 AND SWAP2 DUP3 SWAP1 SUB PUSH2 0xFC JUMPI PUSH1 0x0 SLOAD SWAP1 PUSH1 0x1 DUP1 PUSH1 0xA0 SHL SUB NOT SWAP2 CALLER DUP4 DUP3 AND OR PUSH1 0x0 SSTORE PUSH1 0x40 MLOAD SWAP2 CALLER SWAP2 AND PUSH32 0x8BE0079C531659141344CD1FD0A4F28419497F9722A3DAAFE3B4186F6B6457E0 PUSH1 0x0 DUP1 LOG3 PUSH1 0x1 DUP1 SSTORE DUP3 ISZERO PUSH2 0xBA JUMPI POP PUSH1 0x7 SLOAD AND OR PUSH1 0x7 SSTORE PUSH1 0x1 PUSH1 0x6 SSTORE PUSH1 0x40 MLOAD PUSH2 0x15DA SWAP1 DUP2 PUSH2 0x118 DUP3 CODECOPY RETURN JUMPDEST PUSH3 0x461BCD PUSH1 0xE5 SHL DUP2 MSTORE PUSH1 0x20 PUSH1 0x4 DUP3 ADD MSTORE PUSH1 0x19 PUSH1 0x24 DUP3 ADD MSTORE PUSH32 0x496E76616C69642070617373706F727420636F6E747261637400000000000000 PUSH1 0x44 DUP3 ADD MSTORE PUSH1 0x64 SWAP1 REVERT JUMPDEST PUSH1 0x0 DUP1 REVERT JUMPDEST PUSH4 0x4E487B71 PUSH1 0xE0 SHL PUSH1 0x0 MSTORE PUSH1 0x41 PUSH1 0x4 MSTORE PUSH1 0x24 PUSH1 0x0 REVERT INVALID PUSH1 0x80 PUSH1 0x40 DUP2 DUP2 MSTORE PUSH1 0x4 SWAP2 DUP3 CALLDATASIZE LT ISZERO PUSH2 0x16 JUMPI PUSH1 0x0 DUP1 REVERT JUMPDEST PUSH1 0x0 SWAP3 DUP4 CALLDATALOAD PUSH1 0xE0 SHR SWAP2 DUP3 PUSH4 0x1BDD4B74 EQ PUSH2 0x107B JUMPI POP DUP2 PUSH4 0x25C1A695 EQ PUSH2 0xE0A JUMPI DUP2 PUSH4 0x3CCFD60B EQ PUSH2 0xCD3 JUMPI DUP2 PUSH4 0x484DD61A EQ PUSH2 0xA81 JUMPI DUP2 PUSH4 0x57A248F1 EQ PUSH2 0xA62 JUMPI DUP2 PUSH4 0x715018A6 EQ PUSH2 0xA08 JUMPI DUP2 PUSH4 0x7A07B674 EQ PUSH2 0x9C6 JUMPI DUP2 PUSH4 0x81FB1FB4 EQ PUSH2 0x97F JUMPI DUP2 PUSH4 0x8358BA08 EQ PUSH2 0x77C JUMPI DUP2 PUSH4 0x84F61585 EQ PUSH2 0x65E JUMPI DUP2 PUSH4 0x86AE5FEC EQ PUSH2 0x637 JUMPI DUP2 PUSH4 0x8DA5CB5B EQ PUSH2 0x60F JUMPI DUP2 PUSH4 0x8F1D3776 EQ PUSH2 0x580 JUMPI DUP2 PUSH4 0xA34B46FE EQ PUSH2 0x326 JUMPI DUP2 PUSH4 0xAB9027B0 EQ PUSH2 0x2FD JUMPI DUP2 PUSH4 0xACE25895 EQ PUSH2 0x2BB JUMPI DUP2 PUSH4 0xC1E3BD3E EQ PUSH2 0x234 JUMPI DUP2 PUSH4 0xE5656A5E EQ PUSH2 0x202 JUMPI DUP2 PUSH4 0xF2FDE38B EQ PUSH2 0x13B JUMPI POP PUSH4 0xF3F43703 EQ PUSH2 0x101 JUMPI PUSH1 0x0 DUP1 REVERT JUMPDEST CALLVALUE PUSH2 0x137 JUMPI PUSH1 0x20 CALLDATASIZE PUSH1 0x3 NOT ADD SLT PUSH2 0x137 JUMPI PUSH1 0x20 SWAP2 DUP2 SWAP1 PUSH1 0x1 PUSH1 0x1 PUSH1 0xA0 SHL SUB PUSH2 0x127 PUSH2 0x11B5 JUMP JUMPDEST AND DUP2 MSTORE PUSH1 0x8 DUP5 MSTORE KECCAK256 SLOAD SWAP1 MLOAD SWAP1 DUP2 MSTORE RETURN JUMPDEST POP DUP1 REVERT JUMPDEST SWAP1 POP CALLVALUE PUSH2 0x1FE JUMPI PUSH1 0x20 CALLDATASIZE PUSH1 0x3 NOT ADD SLT PUSH2 0x1FE JUMPI PUSH2 0x156 PUSH2 0x11B5 JUMP JUMPDEST SWAP1 PUSH2 0x15F PUSH2 0x154C JUMP JUMPDEST PUSH1 0x1 PUSH1 0x1 PUSH1 0xA0 SHL SUB SWAP2 DUP3 AND SWAP3 DUP4 ISZERO PUSH2 0x1AC JUMPI POP POP DUP3 SLOAD PUSH1 0x1 PUSH1 0x1 PUSH1 0xA0 SHL SUB NOT DUP2 AND DUP4 OR DUP5 SSTORE AND PUSH32 0x8BE0079C531659141344CD1FD0A4F28419497F9722A3DAAFE3B4186F6B6457E0 DUP4 DUP1 LOG3 DUP1 RETURN JUMPDEST SWAP1 PUSH1 0x20 PUSH1 0x84 SWAP3 MLOAD SWAP2 PUSH3 0x461BCD PUSH1 0xE5 SHL DUP4 MSTORE DUP3 ADD MSTORE PUSH1 0x26 PUSH1 0x24 DUP3 ADD MSTORE PUSH32 0x4F776E61626C653A206E6577206F776E657220697320746865207A65726F2061 PUSH1 0x44 DUP3 ADD MSTORE PUSH6 0x646472657373 PUSH1 0xD0 SHL PUSH1 0x64 DUP3 ADD MSTORE REVERT JUMPDEST DUP3 DUP1 REVERT JUMPDEST DUP3 DUP5 CALLVALUE PUSH2 0x231 JUMPI DUP2 PUSH1 0x3 NOT CALLDATASIZE ADD SLT PUSH2 0x231 JUMPI POP PUSH2 0x22A PUSH1 0x20 SWAP3 PUSH2 0x223 PUSH2 0x119A JUMP JUMPDEST SWAP1 CALLDATALOAD PUSH2 0x13C1 JUMP JUMPDEST SWAP1 MLOAD SWAP1 DUP2 MSTORE RETURN JUMPDEST DUP1 REVERT JUMPDEST SWAP2 SWAP1 POP CALLVALUE PUSH2 0x1FE JUMPI PUSH1 0x20 SWAP2 DUP3 PUSH1 0x3 NOT CALLDATASIZE ADD SLT PUSH2 0x2B7 JUMPI DUP1 CALLDATALOAD DUP5 MSTORE DUP3 MSTORE DUP1 DUP4 KECCAK256 DUP2 MLOAD SWAP1 DUP2 SWAP5 DUP6 SWAP3 DUP6 DUP4 SLOAD SWAP2 DUP3 DUP2 MSTORE ADD SWAP3 DUP3 MSTORE DUP6 DUP3 KECCAK256 SWAP2 JUMPDEST DUP7 DUP3 DUP3 LT PUSH2 0x297 JUMPI DUP6 SWAP1 PUSH2 0x293 DUP9 PUSH2 0x284 DUP5 DUP10 SUB DUP6 PUSH2 0x127F JUMP JUMPDEST MLOAD SWAP3 DUP3 DUP5 SWAP4 DUP5 MSTORE DUP4 ADD SWAP1 PUSH2 0x120F JUMP JUMPDEST SUB SWAP1 RETURN JUMPDEST DUP4 SLOAD PUSH1 0x1 PUSH1 0x1 PUSH1 0xA0 SHL SUB AND DUP6 MSTORE DUP9 SWAP6 POP SWAP1 SWAP4 ADD SWAP3 PUSH1 0x1 SWAP3 DUP4 ADD SWAP3 ADD PUSH2 0x26A JUMP JUMPDEST DUP4 DUP1 REVERT JUMPDEST SWAP1 POP CALLVALUE PUSH2 0x1FE JUMPI DUP2 PUSH1 0x3 NOT CALLDATASIZE ADD SLT PUSH2 0x1FE JUMPI PUSH1 0x20 SWAP3 DUP3 SWAP2 PUSH2 0x2DA PUSH2 0x119A JUMP JUMPDEST SWAP1 CALLDATALOAD DUP3 MSTORE PUSH1 0x5 DUP6 MSTORE DUP3 DUP3 KECCAK256 PUSH1 0x1 PUSH1 0x1 PUSH1 0xA0 SHL SUB SWAP1 SWAP2 AND DUP3 MSTORE DUP5 MSTORE KECCAK256 SLOAD SWAP1 MLOAD SWAP1 DUP2 MSTORE RETURN JUMPDEST POP POP CALLVALUE PUSH2 0x137 JUMPI DUP2 PUSH1 0x3 NOT CALLDATASIZE ADD SLT PUSH2 0x137 JUMPI PUSH1 0x7 SLOAD SWAP1 MLOAD PUSH1 0x1 PUSH1 0x1 PUSH1 0xA0 SHL SUB SWAP1 SWAP2 AND DUP2 MSTORE PUSH1 0x20 SWAP1 RETURN JUMPDEST DUP4 SWAP2 POP CALLVALUE PUSH2 0x137 JUMPI PUSH1 0x20 DUP1 PUSH1 0x3 NOT CALLDATASIZE ADD SLT PUSH2 0x1FE JUMPI SWAP1 SWAP3 SWAP2 DUP4 CALLDATALOAD SWAP2 DUP3 DUP3 MSTORE DUP5 DUP2 MSTORE DUP4 DUP3 KECCAK256 SWAP1 DUP5 MLOAD SWAP2 DUP3 DUP3 DUP3 SLOAD SWAP2 DUP3 DUP2 MSTORE ADD SWAP2 DUP6 MSTORE DUP3 DUP6 KECCAK256 SWAP1 DUP6 JUMPDEST DUP2 DUP2 LT PUSH2 0x563 JUMPI POP POP POP DUP3 PUSH2 0x376 SWAP2 SUB DUP4 PUSH2 0x127F JUMP JUMPDEST DUP2 MLOAD SWAP6 PUSH2 0x382 DUP8 PUSH2 0x1395 JUMP JUMPDEST SWAP7 PUSH2 0x38F DUP8 MLOAD SWAP9 DUP10 PUSH2 0x127F JUMP JUMPDEST DUP1 DUP9 MSTORE PUSH2 0x39B DUP2 PUSH2 0x1395 JUMP JUMPDEST PUSH1 0x1F NOT SWAP7 SWAP1 DUP8 ADD CALLDATASIZE DUP11 DUP7 ADD CALLDATACOPY PUSH2 0x3B0 DUP3 PUSH2 0x1395 JUMP JUMPDEST SWAP5 PUSH2 0x3BD DUP10 MLOAD SWAP7 DUP8 PUSH2 0x127F JUMP JUMPDEST DUP3 DUP7 MSTORE PUSH2 0x3C9 DUP4 PUSH2 0x1395 JUMP JUMPDEST DUP7 DUP7 ADD SWAP9 ADD CALLDATASIZE DUP10 CALLDATACOPY DUP7 JUMPDEST DUP4 DUP2 LT PUSH2 0x500 JUMPI POP POP POP DUP5 JUMPDEST DUP2 DUP2 LT PUSH2 0x434 JUMPI POP POP POP DUP1 PUSH2 0x3FD DUP7 MLOAD SWAP8 DUP8 DUP10 SWAP9 DUP10 MSTORE DUP9 ADD SWAP1 PUSH2 0x120F JUMP JUMPDEST SWAP3 DUP7 DUP5 SUB DUP3 DUP9 ADD MSTORE MLOAD SWAP3 DUP4 DUP2 MSTORE ADD SWAP4 SWAP3 JUMPDEST DUP3 DUP2 LT PUSH2 0x41D JUMPI POP POP POP POP SUB SWAP1 RETURN JUMPDEST DUP4 MLOAD DUP6 MSTORE DUP7 SWAP6 POP SWAP4 DUP2 ADD SWAP4 SWAP3 DUP2 ADD SWAP3 PUSH1 0x1 ADD PUSH2 0x40E JUMP JUMPDEST PUSH1 0x1 SWAP9 SWAP4 SWAP6 SWAP5 SWAP7 SWAP8 SWAP9 DUP1 DUP3 ADD DUP1 DUP4 GT PUSH2 0x4ED JUMPI JUMPDEST DUP4 DUP2 LT PUSH2 0x460 JUMPI POP POP PUSH1 0x1 ADD SWAP8 SWAP7 SWAP6 SWAP4 SWAP5 SWAP3 SWAP8 PUSH2 0x3DF JUMP JUMPDEST DUP1 PUSH2 0x46C DUP4 SWAP3 DUP12 PUSH2 0x13AD JUMP JUMPDEST MLOAD PUSH2 0x477 DUP6 DUP13 PUSH2 0x13AD JUMP JUMPDEST MLOAD LT PUSH2 0x484 JUMPI JUMPDEST ADD PUSH2 0x448 JUMP JUMPDEST PUSH1 0x1 PUSH1 0x1 PUSH1 0xA0 SHL SUB DUP1 PUSH2 0x497 DUP7 DUP11 PUSH2 0x13AD JUMP JUMPDEST MLOAD AND SWAP1 PUSH2 0x4A4 DUP4 DUP11 PUSH2 0x13AD JUMP JUMPDEST MLOAD AND PUSH2 0x4B0 DUP7 DUP11 PUSH2 0x13AD JUMP JUMPDEST MSTORE PUSH2 0x4BB DUP3 DUP10 PUSH2 0x13AD JUMP JUMPDEST MSTORE PUSH2 0x4C6 DUP5 DUP12 PUSH2 0x13AD JUMP JUMPDEST MLOAD PUSH2 0x4D1 DUP3 DUP13 PUSH2 0x13AD JUMP JUMPDEST MLOAD PUSH2 0x4DC DUP7 DUP14 PUSH2 0x13AD JUMP JUMPDEST MSTORE PUSH2 0x4E7 DUP3 DUP13 PUSH2 0x13AD JUMP JUMPDEST MSTORE PUSH2 0x47E JUMP JUMPDEST PUSH4 0x4E487B71 PUSH1 0xE0 SHL DUP8 MSTORE PUSH1 0x11 DUP6 MSTORE PUSH1 0x24 DUP8 REVERT JUMPDEST SWAP9 SWAP10 SWAP8 SWAP9 SWAP6 SWAP8 SWAP5 SWAP7 SWAP6 PUSH1 0x1 SWAP1 PUSH1 0x1 PUSH1 0x1 PUSH1 0xA0 SHL SUB DUP1 PUSH2 0x51F DUP4 DUP7 PUSH2 0x13AD JUMP JUMPDEST MLOAD AND PUSH2 0x52B DUP4 DUP11 PUSH2 0x13AD JUMP JUMPDEST MSTORE DUP5 DUP10 MSTORE PUSH1 0x3 DUP11 MSTORE DUP13 DUP10 KECCAK256 SWAP1 PUSH2 0x541 DUP4 DUP7 PUSH2 0x13AD JUMP JUMPDEST MLOAD AND DUP10 MSTORE DUP10 MSTORE DUP12 DUP9 KECCAK256 SLOAD PUSH2 0x555 DUP3 DUP13 PUSH2 0x13AD JUMP JUMPDEST MSTORE ADD SWAP10 SWAP9 SWAP8 SWAP6 SWAP7 SWAP5 SWAP10 PUSH2 0x3D3 JUMP JUMPDEST DUP3 SLOAD PUSH1 0x1 PUSH1 0x1 PUSH1 0xA0 SHL SUB AND DUP5 MSTORE SWAP3 DUP5 ADD SWAP3 PUSH1 0x1 SWAP3 DUP4 ADD SWAP3 ADD PUSH2 0x360 JUMP JUMPDEST SWAP1 POP CALLVALUE PUSH2 0x1FE JUMPI PUSH1 0x20 CALLDATASIZE PUSH1 0x3 NOT ADD SLT PUSH2 0x1FE JUMPI DUP2 PUSH2 0x120 SWAP4 DUP3 CALLDATALOAD DUP2 MSTORE PUSH1 0x2 PUSH1 0x20 MSTORE KECCAK256 SWAP2 DUP3 SLOAD SWAP3 PUSH1 0x1 DUP1 PUSH1 0xA0 SHL SUB SWAP2 DUP3 PUSH1 0x1 DUP4 ADD SLOAD AND SWAP4 PUSH1 0x2 DUP4 ADD SLOAD SWAP1 PUSH1 0x3 DUP5 ADD SLOAD SWAP1 DUP5 ADD SLOAD SWAP2 PUSH1 0x5 DUP6 ADD SLOAD SWAP4 PUSH1 0x7 PUSH1 0x6 DUP8 ADD SLOAD SWAP7 ADD SLOAD SWAP8 DUP2 MLOAD SWAP10 DUP11 MSTORE PUSH1 0x20 DUP11 ADD MSTORE DUP9 ADD MSTORE PUSH1 0x60 DUP8 ADD MSTORE PUSH1 0x80 DUP7 ADD MSTORE PUSH1 0xA0 DUP6 ADD MSTORE PUSH1 0xFF DUP2 AND ISZERO ISZERO PUSH1 0xC0 DUP6 ADD MSTORE PUSH1 0x8 SHR AND PUSH1 0xE0 DUP4 ADD MSTORE PUSH2 0x100 DUP3 ADD MSTORE RETURN JUMPDEST POP POP CALLVALUE PUSH2 0x137 JUMPI DUP2 PUSH1 0x3 NOT CALLDATASIZE ADD SLT PUSH2 0x137 JUMPI SWAP1 SLOAD SWAP1 MLOAD PUSH1 0x1 PUSH1 0x1 PUSH1 0xA0 SHL SUB SWAP1 SWAP2 AND DUP2 MSTORE PUSH1 0x20 SWAP1 RETURN JUMPDEST SWAP1 POP CALLVALUE PUSH2 0x1FE JUMPI PUSH1 0x20 CALLDATASIZE PUSH1 0x3 NOT ADD SLT PUSH2 0x1FE JUMPI PUSH1 0x20 SWAP3 DUP2 DUP4 SWAP3 CALLDATALOAD DUP3 MSTORE DUP5 MSTORE KECCAK256 SLOAD SWAP1 MLOAD SWAP1 DUP2 MSTORE RETURN JUMPDEST DUP4 DUP4 CALLVALUE PUSH2 0x137 JUMPI PUSH2 0x66E CALLDATASIZE PUSH2 0x11CB JUMP JUMPDEST PUSH2 0x676 PUSH2 0x154C JUMP JUMPDEST PUSH2 0xE10 DUP2 LT PUSH2 0x739 JUMPI PUSH1 0x6 SLOAD SWAP4 PUSH1 0x1 DUP6 ADD DUP1 DUP7 GT PUSH2 0x726 JUMPI PUSH1 0x20 SWAP7 PUSH1 0x7 SWAP2 PUSH1 0x6 SSTORE DUP7 DUP4 MSTORE PUSH1 0x2 DUP9 MSTORE DUP6 DUP4 KECCAK256 SWAP1 DUP8 DUP3 SSTORE PUSH1 0x1 DUP3 ADD CALLER PUSH12 0xFFFFFFFFFFFFFFFFFFFFFFFF PUSH1 0xA0 SHL DUP3 SLOAD AND OR SWAP1 SSTORE DUP6 PUSH1 0x2 DUP4 ADD SSTORE DUP5 PUSH1 0x3 DUP4 ADD SSTORE TIMESTAMP SWAP1 DUP3 ADD SSTORE DUP3 PUSH1 0x5 DUP3 ADD SSTORE PUSH1 0x6 DUP2 ADD PUSH11 0xFFFFFFFFFFFFFFFFFFFFFF PUSH1 0xA8 SHL DUP2 SLOAD AND SWAP1 SSTORE ADD SSTORE DUP3 MLOAD SWAP2 DUP3 MSTORE DUP5 DUP3 ADD MSTORE DUP3 PUSH32 0x7C9C42EA4A98FF02E597498C394568923C74C2D3E031718AD08DBB59A42F03EB DUP4 CALLER SWAP4 LOG3 MLOAD SWAP1 DUP2 MSTORE RETURN JUMPDEST PUSH4 0x4E487B71 PUSH1 0xE0 SHL DUP3 MSTORE PUSH1 0x11 DUP8 MSTORE PUSH1 0x24 DUP3 REVERT JUMPDEST DUP3 MLOAD PUSH3 0x461BCD PUSH1 0xE5 SHL DUP2 MSTORE PUSH1 0x20 DUP2 DUP8 ADD DUP2 SWAP1 MSTORE PUSH1 0x24 DUP3 ADD MSTORE PUSH32 0x4475726174696F6E206D757374206265206174206C65617374203120686F7572 PUSH1 0x44 DUP3 ADD MSTORE PUSH1 0x64 SWAP1 REVERT JUMPDEST SWAP1 POP CALLVALUE PUSH2 0x1FE JUMPI PUSH2 0x78C CALLDATASIZE PUSH2 0x11CB JUMP JUMPDEST SWAP3 SWAP1 SWAP2 PUSH2 0x797 PUSH2 0x14F6 JUMP JUMPDEST DUP3 DUP6 MSTORE PUSH1 0x20 SWAP1 PUSH1 0x2 DUP3 MSTORE DUP3 DUP7 KECCAK256 PUSH2 0x7B0 DUP2 SLOAD ISZERO ISZERO PUSH2 0x12A1 JUMP JUMPDEST PUSH1 0x6 DUP2 ADD SWAP2 PUSH2 0x7C3 PUSH1 0xFF DUP5 SLOAD AND ISZERO PUSH2 0x12ED JUMP JUMPDEST PUSH2 0x7DF PUSH2 0x7D8 DUP3 DUP5 ADD SLOAD PUSH1 0x3 DUP6 ADD SLOAD SWAP1 PUSH2 0x1332 JUMP JUMPDEST TIMESTAMP LT PUSH2 0x1355 JUMP JUMPDEST DUP7 ISZERO PUSH2 0x93C JUMPI DUP6 DUP9 MSTORE PUSH1 0x3 DUP5 MSTORE DUP5 DUP9 KECCAK256 CALLER DUP10 MSTORE DUP5 MSTORE DUP5 DUP9 KECCAK256 SLOAD DUP1 ISZERO DUP1 ISZERO SWAP1 PUSH2 0x922 JUMPI JUMPDEST ISZERO PUSH2 0x8DF JUMPI DUP8 GT ISZERO PUSH2 0x89C JUMPI POP SWAP1 DUP6 PUSH1 0x7 PUSH32 0xD0D8829ED5C85447FF7F11F919D541DD197EFFA10F32914186D91CFCAD32F439 SWAP6 SWAP5 SWAP4 DUP8 DUP11 MSTORE PUSH1 0x3 DUP6 MSTORE DUP6 DUP11 KECCAK256 CALLER DUP12 MSTORE DUP6 MSTORE DUP3 DUP7 DUP12 KECCAK256 SSTORE ADD DUP1 SLOAD DUP3 GT PUSH2 0x875 JUMPI JUMPDEST POP POP POP PUSH2 0x862 CALLER DUP6 PUSH2 0x13C1 JUMP JUMPDEST SWAP1 DUP3 MLOAD SWAP6 DUP7 MSTORE DUP6 ADD MSTORE CALLER SWAP4 LOG3 PUSH1 0x1 DUP1 SSTORE DUP1 RETURN JUMPDEST SSTORE DUP1 SLOAD PUSH2 0x100 PUSH1 0x1 PUSH1 0xA8 SHL SUB NOT AND CALLER PUSH1 0x8 SHL PUSH2 0x100 PUSH1 0x1 PUSH1 0xA8 SHL SUB AND OR SWAP1 SSTORE CODESIZE DUP6 DUP2 PUSH2 0x855 JUMP JUMPDEST DUP5 MLOAD PUSH3 0x461BCD PUSH1 0xE5 SHL DUP2 MSTORE SWAP1 DUP2 ADD DUP5 SWAP1 MSTORE PUSH1 0x17 PUSH1 0x24 DUP3 ADD MSTORE PUSH32 0x53636F72652063616E206F6E6C7920696E637265617365000000000000000000 PUSH1 0x44 DUP3 ADD MSTORE PUSH1 0x64 SWAP1 REVERT JUMPDEST DUP6 MLOAD PUSH3 0x461BCD PUSH1 0xE5 SHL DUP2 MSTORE DUP1 DUP4 ADD DUP7 SWAP1 MSTORE PUSH1 0x1D PUSH1 0x24 DUP3 ADD MSTORE PUSH32 0x4E6F742070617274696369706174656420696E206368616C6C656E6765000000 PUSH1 0x44 DUP3 ADD MSTORE PUSH1 0x64 SWAP1 REVERT JUMPDEST POP DUP7 DUP10 MSTORE PUSH1 0x3 DUP6 MSTORE DUP6 DUP10 KECCAK256 CALLER DUP11 MSTORE DUP6 MSTORE DUP6 DUP10 KECCAK256 SLOAD ISZERO PUSH2 0x802 JUMP JUMPDEST DUP5 MLOAD PUSH3 0x461BCD PUSH1 0xE5 SHL DUP2 MSTORE SWAP1 DUP2 ADD DUP5 SWAP1 MSTORE PUSH1 0x1F PUSH1 0x24 DUP3 ADD MSTORE PUSH32 0x53636F7265206D7573742062652067726561746572207468616E207A65726F00 PUSH1 0x44 DUP3 ADD MSTORE PUSH1 0x64 SWAP1 REVERT JUMPDEST DUP3 DUP5 CALLVALUE PUSH2 0x231 JUMPI PUSH2 0x98F CALLDATASIZE PUSH2 0x11CB JUMP JUMPDEST SWAP4 SWAP1 DUP3 MSTORE PUSH1 0x20 MSTORE DUP2 DUP2 KECCAK256 SWAP1 DUP2 SLOAD DUP5 LT ISZERO PUSH2 0x231 JUMPI POP PUSH1 0x20 SWAP3 PUSH2 0x9B0 SWAP2 PUSH2 0x11E1 JUMP JUMPDEST SWAP1 SLOAD SWAP2 MLOAD SWAP2 PUSH1 0x1 DUP1 PUSH1 0xA0 SHL SUB SWAP2 PUSH1 0x3 SHL SHR AND DUP2 MSTORE RETURN JUMPDEST SWAP1 POP CALLVALUE PUSH2 0x1FE JUMPI DUP2 PUSH1 0x3 NOT CALLDATASIZE ADD SLT PUSH2 0x1FE JUMPI PUSH1 0x20 SWAP3 DUP3 SWAP2 PUSH2 0x9E5 PUSH2 0x119A JUMP JUMPDEST SWAP1 CALLDATALOAD DUP3 MSTORE PUSH1 0x3 DUP6 MSTORE DUP3 DUP3 KECCAK256 PUSH1 0x1 PUSH1 0x1 PUSH1 0xA0 SHL SUB SWAP1 SWAP2 AND DUP3 MSTORE DUP5 MSTORE KECCAK256 SLOAD SWAP1 MLOAD SWAP1 DUP2 MSTORE RETURN JUMPDEST DUP4 CALLVALUE PUSH2 0x231 JUMPI DUP1 PUSH1 0x3 NOT CALLDATASIZE ADD SLT PUSH2 0x231 JUMPI PUSH2 0xA21 PUSH2 0x154C JUMP JUMPDEST DUP1 SLOAD PUSH1 0x1 PUSH1 0x1 PUSH1 0xA0 SHL SUB NOT DUP2 AND DUP3 SSTORE DUP2 SWAP1 PUSH1 0x1 PUSH1 0x1 PUSH1 0xA0 SHL SUB AND PUSH32 0x8BE0079C531659141344CD1FD0A4F28419497F9722A3DAAFE3B4186F6B6457E0 DUP3 DUP1 LOG3 DUP1 RETURN JUMPDEST POP POP CALLVALUE PUSH2 0x137 JUMPI DUP2 PUSH1 0x3 NOT CALLDATASIZE ADD SLT PUSH2 0x137 JUMPI PUSH1 0x20 SWAP1 PUSH1 0x6 SLOAD SWAP1 MLOAD SWAP1 DUP2 MSTORE RETURN JUMPDEST DUP4 DUP4 CALLVALUE PUSH2 0x137 JUMPI PUSH1 0x20 SWAP1 DUP2 PUSH1 0x3 NOT CALLDATASIZE ADD SLT PUSH2 0x1FE JUMPI DUP4 CALLDATALOAD PUSH2 0xAA0 PUSH2 0x154C JUMP JUMPDEST PUSH2 0xAA8 PUSH2 0x14F6 JUMP JUMPDEST DUP1 DUP5 MSTORE PUSH1 0x2 DUP4 MSTORE DUP2 DUP5 KECCAK256 SWAP3 PUSH2 0xABF DUP5 SLOAD ISZERO ISZERO PUSH2 0x12A1 JUMP JUMPDEST PUSH1 0x6 DUP5 ADD SWAP4 DUP5 SLOAD SWAP5 PUSH1 0xFF DUP7 AND PUSH2 0xC90 JUMPI DUP8 DUP3 ADD SLOAD SWAP1 PUSH2 0xAE5 PUSH1 0x3 SWAP3 PUSH1 0x3 DUP6 ADD SLOAD SWAP1 PUSH2 0x1332 JUMP JUMPDEST TIMESTAMP LT PUSH2 0xC54 JUMPI PUSH1 0x1 DUP1 SWAP8 PUSH1 0xFF NOT AND OR SWAP2 DUP3 DUP3 SSTORE PUSH1 0x1 DUP1 PUSH1 0xA0 SHL SUB SWAP3 DUP4 PUSH1 0x8 SWAP2 PUSH1 0x8 SHR AND SWAP5 DUP6 PUSH2 0xB16 JUMPI JUMPDEST DUP11 DUP11 DUP1 SSTORE DUP1 RETURN JUMPDEST PUSH1 0x5 ADD SLOAD PUSH1 0x46 DUP2 MUL DUP2 DUP2 DIV PUSH1 0x46 EQ DUP3 ISZERO OR ISZERO PUSH2 0xC41 JUMPI PUSH1 0x64 SWAP1 DIV SWAP6 DUP7 DUP3 SUB SWAP2 DUP3 GT PUSH2 0xC41 JUMPI DUP12 MSTORE PUSH1 0x8 DUP8 MSTORE DUP9 DUP12 KECCAK256 PUSH2 0xB4F DUP8 DUP3 SLOAD PUSH2 0x1332 JUMP JUMPDEST SWAP1 SSTORE DUP8 DUP12 MSTORE DUP12 DUP8 MSTORE DUP9 DUP12 KECCAK256 SLOAD SWAP1 DUP11 DUP3 GT PUSH2 0xBAA JUMPI JUMPDEST POP POP POP POP PUSH32 0x65A8B6841034F85EE47CE3B451AE9348CE320BB1BBFA24551F637873754F373C SWAP5 SWAP6 SWAP7 SWAP8 SWAP9 POP SLOAD PUSH1 0x8 SHR AND SWAP5 MLOAD SWAP1 DUP2 MSTORE LOG3 DUP2 SWAP1 DUP4 DUP1 DUP1 DUP1 DUP1 DUP1 DUP1 DUP1 DUP1 PUSH2 0xB0F JUMP JUMPDEST PUSH1 0x0 NOT DUP3 ADD SWAP2 DUP3 GT PUSH2 0xC41 JUMPI DUP2 ISZERO PUSH2 0xC2E JUMPI DIV SWAP2 DUP11 DUP11 JUMPDEST ISZERO PUSH2 0xB64 JUMPI DUP9 DUP13 MSTORE DUP13 DUP9 MSTORE DUP10 DUP13 KECCAK256 DUP1 SLOAD DUP3 LT ISZERO PUSH2 0xC28 JUMPI DUP2 DUP12 DUP15 DUP10 DUP16 SWAP9 SWAP8 SWAP7 SWAP6 PUSH2 0xBEC SWAP1 DUP11 SWAP7 PUSH2 0x11E1 JUMP JUMPDEST SWAP1 SLOAD SWAP1 DUP8 SHL SHR AND DUP11 DUP11 SLOAD DUP9 SHR AND DUP2 SUB PUSH2 0xC0D JUMPI JUMPDEST POP POP POP ADD SWAP1 SWAP2 SWAP3 SWAP4 PUSH2 0xBC1 JUMP JUMPDEST DUP2 MSTORE DUP6 DUP13 MSTORE KECCAK256 PUSH2 0xC1E DUP7 DUP3 SLOAD PUSH2 0x1332 JUMP JUMPDEST SWAP1 SSTORE DUP12 DUP15 CODESIZE PUSH2 0xC00 JUMP JUMPDEST POP PUSH2 0xB64 JUMP JUMPDEST PUSH4 0x4E487B71 PUSH1 0xE0 SHL DUP13 MSTORE PUSH1 0x12 DUP14 MSTORE PUSH1 0x24 DUP13 REVERT JUMPDEST PUSH4 0x4E487B71 PUSH1 0xE0 SHL DUP13 MSTORE PUSH1 0x11 DUP14 MSTORE PUSH1 0x24 DUP13 REVERT JUMPDEST DUP6 MLOAD PUSH3 0x461BCD PUSH1 0xE5 SHL DUP2 MSTORE DUP1 DUP11 ADD DUP6 SWAP1 MSTORE PUSH1 0x16 PUSH1 0x24 DUP3 ADD MSTORE PUSH22 0x4368616C6C656E6765207374696C6C20616374697665 PUSH1 0x50 SHL PUSH1 0x44 DUP3 ADD MSTORE PUSH1 0x64 SWAP1 REVERT JUMPDEST DUP5 MLOAD PUSH3 0x461BCD PUSH1 0xE5 SHL DUP2 MSTORE DUP1 DUP10 ADD DUP5 SWAP1 MSTORE PUSH1 0x1B PUSH1 0x24 DUP3 ADD MSTORE PUSH32 0x4368616C6C656E676520616C72656164792066696E616C697A65640000000000 PUSH1 0x44 DUP3 ADD MSTORE PUSH1 0x64 SWAP1 REVERT JUMPDEST SWAP2 SWAP1 POP CALLVALUE PUSH2 0x1FE JUMPI DUP3 PUSH1 0x3 NOT CALLDATASIZE ADD SLT PUSH2 0x1FE JUMPI PUSH2 0xCEE PUSH2 0x14F6 JUMP JUMPDEST CALLER DUP4 MSTORE PUSH1 0x20 SWAP1 PUSH1 0x8 DUP3 MSTORE DUP1 DUP5 KECCAK256 SLOAD SWAP3 DUP4 ISZERO PUSH2 0xDD0 JUMPI CALLER DUP6 MSTORE PUSH1 0x8 DUP4 MSTORE DUP5 DUP3 DUP2 KECCAK256 SSTORE DUP5 DUP1 DUP1 DUP1 DUP8 CALLER GAS CALL RETURNDATASIZE ISZERO PUSH2 0xDCB JUMPI RETURNDATASIZE PUSH8 0xFFFFFFFFFFFFFFFF DUP2 GT PUSH2 0xDB8 JUMPI DUP4 MLOAD SWAP1 PUSH2 0xD43 PUSH1 0x1F DUP3 ADD PUSH1 0x1F NOT AND DUP8 ADD DUP4 PUSH2 0x127F JUMP JUMPDEST DUP2 MSTORE DUP7 DUP6 RETURNDATASIZE SWAP3 ADD RETURNDATACOPY JUMPDEST ISZERO PUSH2 0xD83 JUMPI POP SWAP1 PUSH32 0x5ABB0FC89DEF2EE3226CC48F5621EE8E2B45F6DCC7898D2BDB5D480533C32BC0 SWAP2 MLOAD SWAP3 DUP4 MSTORE CALLER SWAP3 LOG2 PUSH1 0x1 DUP1 SSTORE DUP1 RETURN JUMPDEST DUP3 PUSH1 0x64 SWAP3 MLOAD SWAP2 PUSH3 0x461BCD PUSH1 0xE5 SHL DUP4 MSTORE DUP3 ADD MSTORE PUSH1 0x11 PUSH1 0x24 DUP3 ADD MSTORE PUSH17 0x15DA5D1A191C985DD85B0819985A5B1959 PUSH1 0x7A SHL PUSH1 0x44 DUP3 ADD MSTORE REVERT JUMPDEST PUSH4 0x4E487B71 PUSH1 0xE0 SHL DUP8 MSTORE PUSH1 0x41 DUP4 MSTORE PUSH1 0x24 DUP8 REVERT JUMPDEST PUSH2 0xD4C JUMP JUMPDEST DUP3 PUSH1 0x64 SWAP3 MLOAD SWAP2 PUSH3 0x461BCD PUSH1 0xE5 SHL DUP4 MSTORE DUP3 ADD MSTORE PUSH1 0x16 PUSH1 0x24 DUP3 ADD MSTORE PUSH22 0x4E6F2070656E64696E67207769746864726177616C73 PUSH1 0x50 SHL PUSH1 0x44 DUP3 ADD MSTORE REVERT JUMPDEST DUP4 PUSH1 0x20 DUP5 CALLDATASIZE PUSH1 0x3 NOT ADD DUP3 SGT PUSH2 0x1FE JUMPI DUP4 CALLDATALOAD SWAP2 PUSH2 0xE24 PUSH2 0x14F6 JUMP JUMPDEST DUP3 DUP5 MSTORE PUSH1 0x2 DUP2 MSTORE DUP2 DUP5 KECCAK256 PUSH2 0xE3A DUP2 SLOAD ISZERO ISZERO PUSH2 0x12A1 JUMP JUMPDEST PUSH1 0x2 DUP2 ADD SLOAD CALLVALUE SUB PUSH2 0x1042 JUMPI PUSH2 0xE56 PUSH1 0xFF PUSH1 0x6 DUP4 ADD SLOAD AND ISZERO PUSH2 0x12ED JUMP JUMPDEST PUSH2 0xE6B PUSH2 0x7D8 DUP8 DUP4 ADD SLOAD PUSH1 0x3 DUP5 ADD SLOAD SWAP1 PUSH2 0x1332 JUMP JUMPDEST PUSH1 0x7 SLOAD DUP4 MLOAD PUSH4 0x1747098D PUSH1 0xE2 SHL DUP2 MSTORE CALLER DUP9 DUP3 ADD MSTORE PUSH1 0x1 PUSH1 0x1 PUSH1 0xA0 SHL SUB SWAP3 SWAP2 DUP5 SWAP1 DUP3 SWAP1 PUSH1 0x24 SWAP1 DUP3 SWAP1 DUP8 AND GAS STATICCALL SWAP1 DUP2 ISZERO PUSH2 0x1038 JUMPI DUP8 SWAP2 PUSH2 0x1007 JUMPI JUMPDEST POP ISZERO PUSH2 0xFC4 JUMPI DUP5 DUP7 MSTORE PUSH1 0x3 DUP4 MSTORE DUP4 DUP7 KECCAK256 CALLER DUP8 MSTORE DUP4 MSTORE DUP4 DUP7 KECCAK256 SLOAD PUSH2 0xF81 JUMPI PUSH1 0x5 ADD PUSH2 0xECF CALLVALUE DUP3 SLOAD PUSH2 0x1332 JUMP JUMPDEST SWAP1 SSTORE DUP4 DUP6 MSTORE DUP6 DUP3 MSTORE DUP3 DUP6 KECCAK256 SLOAD PUSH1 0x5 DUP4 MSTORE DUP4 DUP7 KECCAK256 CALLER DUP8 MSTORE DUP4 MSTORE DUP4 DUP7 KECCAK256 SSTORE DUP4 DUP6 MSTORE DUP6 DUP3 MSTORE DUP3 DUP6 KECCAK256 DUP1 SLOAD SWAP1 PUSH9 0x10000000000000000 DUP3 LT ISZERO PUSH2 0xF6E JUMPI DUP2 PUSH2 0xF1C SWAP2 PUSH1 0x1 DUP10 SWAP8 SWAP7 SWAP6 SWAP5 ADD DUP2 SSTORE PUSH2 0x11E1 JUMP JUMPDEST DUP2 SWAP3 SWAP2 SLOAD SWAP1 PUSH1 0x3 SHL SWAP2 CALLER DUP4 SHL SWAP3 SHL NOT AND OR SWAP1 SSTORE DUP4 DUP4 MSTORE PUSH1 0x3 DUP2 MSTORE DUP2 DUP4 KECCAK256 SWAP1 CALLER DUP5 MSTORE MSTORE DUP2 KECCAK256 SSTORE CALLER SWAP1 PUSH32 0x7076B6D580C0523456EB58B88D88DC6937AF3562EAA19A4A16AF788569478128 DUP4 DUP1 LOG3 PUSH1 0x1 DUP1 SSTORE DUP1 RETURN JUMPDEST PUSH4 0x4E487B71 PUSH1 0xE0 SHL DUP8 MSTORE PUSH1 0x41 DUP9 MSTORE PUSH1 0x24 DUP8 REVERT JUMPDEST DUP4 MLOAD PUSH3 0x461BCD PUSH1 0xE5 SHL DUP2 MSTORE DUP1 DUP9 ADD DUP5 SWAP1 MSTORE PUSH1 0x19 PUSH1 0x24 DUP3 ADD MSTORE PUSH32 0x416C726561647920656E7465726564206368616C6C656E676500000000000000 PUSH1 0x44 DUP3 ADD MSTORE PUSH1 0x64 SWAP1 REVERT JUMPDEST DUP4 MLOAD PUSH3 0x461BCD PUSH1 0xE5 SHL DUP2 MSTORE DUP1 DUP9 ADD DUP5 SWAP1 MSTORE PUSH1 0x18 PUSH1 0x24 DUP3 ADD MSTORE PUSH32 0x4D757374206D696E742070617373706F72742066697273740000000000000000 PUSH1 0x44 DUP3 ADD MSTORE PUSH1 0x64 SWAP1 REVERT JUMPDEST SWAP1 POP DUP4 DUP2 DUP2 RETURNDATASIZE DUP4 GT PUSH2 0x1031 JUMPI JUMPDEST PUSH2 0x101E DUP2 DUP4 PUSH2 0x127F JUMP JUMPDEST DUP2 ADD SUB SLT PUSH2 0x102D JUMPI MLOAD DUP9 PUSH2 0xEA4 JUMP JUMPDEST DUP7 DUP1 REVERT JUMPDEST POP RETURNDATASIZE PUSH2 0x1014 JUMP JUMPDEST DUP6 MLOAD RETURNDATASIZE DUP10 DUP3 RETURNDATACOPY RETURNDATASIZE SWAP1 REVERT JUMPDEST DUP3 MLOAD PUSH3 0x461BCD PUSH1 0xE5 SHL DUP2 MSTORE DUP1 DUP8 ADD DUP4 SWAP1 MSTORE PUSH1 0x13 PUSH1 0x24 DUP3 ADD MSTORE PUSH19 0x496E636F727265637420656E74727920666565 PUSH1 0x68 SHL PUSH1 0x44 DUP3 ADD MSTORE PUSH1 0x64 SWAP1 REVERT JUMPDEST SWAP2 POP CALLVALUE PUSH2 0x2B7 JUMPI PUSH1 0x20 CALLDATASIZE PUSH1 0x3 NOT ADD SLT PUSH2 0x2B7 JUMPI PUSH1 0xFF SWAP1 DUP4 PUSH2 0x120 SWAP6 PUSH2 0x109F DUP6 PUSH2 0x124C JUMP JUMPDEST DUP1 DUP6 MSTORE DUP1 PUSH1 0x20 DUP7 ADD MSTORE DUP1 DUP3 DUP7 ADD MSTORE DUP1 PUSH1 0x60 DUP7 ADD MSTORE DUP1 PUSH1 0x80 DUP7 ADD MSTORE DUP1 PUSH1 0xA0 DUP7 ADD MSTORE DUP1 PUSH1 0xC0 DUP7 ADD MSTORE DUP1 PUSH1 0xE0 DUP7 ADD MSTORE DUP1 PUSH2 0x100 DUP1 SWAP7 ADD MSTORE DUP3 CALLDATALOAD DUP2 MSTORE PUSH1 0x2 PUSH1 0x20 MSTORE KECCAK256 DUP5 MLOAD SWAP3 DUP4 SWAP2 PUSH2 0x10EB DUP4 PUSH2 0x124C JUMP JUMPDEST DUP1 SLOAD SWAP7 DUP8 DUP5 MSTORE PUSH1 0x1 DUP1 PUSH1 0xA0 SHL SUB SWAP5 DUP6 PUSH1 0x1 DUP5 ADD SLOAD AND SWAP2 PUSH1 0x20 DUP7 ADD SWAP3 DUP4 MSTORE PUSH1 0x2 DUP5 ADD SLOAD DUP2 DUP8 ADD SWAP1 DUP2 MSTORE DUP8 PUSH1 0x3 DUP7 ADD SLOAD SWAP4 PUSH1 0x60 DUP10 ADD SWAP5 DUP6 MSTORE DUP7 ADD SLOAD SWAP5 PUSH1 0x80 DUP10 ADD SWAP6 DUP7 MSTORE DUP12 PUSH1 0x7 PUSH1 0x5 DUP10 ADD SLOAD SWAP9 PUSH1 0xA0 DUP13 ADD SWAP10 DUP11 MSTORE DUP5 PUSH1 0xE0 PUSH1 0x6 DUP4 ADD SLOAD SWAP14 DUP15 PUSH1 0xC0 DUP3 ADD SWAP15 DUP16 SWAP2 AND ISZERO ISZERO SWAP1 MSTORE ADD SWAP13 PUSH1 0x8 SHR AND DUP13 MSTORE ADD SLOAD SWAP12 ADD SWAP11 DUP12 MSTORE DUP4 MLOAD SWAP13 DUP14 MSTORE MLOAD AND PUSH1 0x20 DUP13 ADD MSTORE MLOAD SWAP1 DUP11 ADD MSTORE MLOAD PUSH1 0x60 DUP10 ADD MSTORE MLOAD PUSH1 0x80 DUP9 ADD MSTORE MLOAD PUSH1 0xA0 DUP8 ADD MSTORE MLOAD ISZERO ISZERO PUSH1 0xC0 DUP7 ADD MSTORE MLOAD AND PUSH1 0xE0 DUP5 ADD MSTORE MLOAD SWAP1 DUP3 ADD MSTORE RETURN JUMPDEST PUSH1 0x24 CALLDATALOAD SWAP1 PUSH1 0x1 PUSH1 0x1 PUSH1 0xA0 SHL SUB DUP3 AND DUP3 SUB PUSH2 0x11B0 JUMPI JUMP JUMPDEST PUSH1 0x0 DUP1 REVERT JUMPDEST PUSH1 0x4 CALLDATALOAD SWAP1 PUSH1 0x1 PUSH1 0x1 PUSH1 0xA0 SHL SUB DUP3 AND DUP3 SUB PUSH2 0x11B0 JUMPI JUMP JUMPDEST PUSH1 0x40 SWAP1 PUSH1 0x3 NOT ADD SLT PUSH2 0x11B0 JUMPI PUSH1 0x4 CALLDATALOAD SWAP1 PUSH1 0x24 CALLDATALOAD SWAP1 JUMP JUMPDEST DUP1 SLOAD DUP3 LT ISZERO PUSH2 0x11F9 JUMPI PUSH1 0x0 MSTORE PUSH1 0x20 PUSH1 0x0 KECCAK256 ADD SWAP1 PUSH1 0x0 SWAP1 JUMP JUMPDEST PUSH4 0x4E487B71 PUSH1 0xE0 SHL PUSH1 0x0 MSTORE PUSH1 0x32 PUSH1 0x4 MSTORE PUSH1 0x24 PUSH1 0x0 REVERT JUMPDEST SWAP1 DUP2 MLOAD DUP1 DUP3 MSTORE PUSH1 0x20 DUP1 DUP1 SWAP4 ADD SWAP4 ADD SWAP2 PUSH1 0x0 JUMPDEST DUP3 DUP2 LT PUSH2 0x122F JUMPI POP POP POP POP SWAP1 JUMP JUMPDEST DUP4 MLOAD PUSH1 0x1 PUSH1 0x1 PUSH1 0xA0 SHL SUB AND DUP6 MSTORE SWAP4 DUP2 ADD SWAP4 SWAP3 DUP2 ADD SWAP3 PUSH1 0x1 ADD PUSH2 0x1221 JUMP JUMPDEST PUSH2 0x120 DUP2 ADD SWAP1 DUP2 LT PUSH8 0xFFFFFFFFFFFFFFFF DUP3 GT OR PUSH2 0x1269 JUMPI PUSH1 0x40 MSTORE JUMP JUMPDEST PUSH4 0x4E487B71 PUSH1 0xE0 SHL PUSH1 0x0 MSTORE PUSH1 0x41 PUSH1 0x4 MSTORE PUSH1 0x24 PUSH1 0x0 REVERT JUMPDEST SWAP1 PUSH1 0x1F DUP1 NOT SWAP2 ADD AND DUP2 ADD SWAP1 DUP2 LT PUSH8 0xFFFFFFFFFFFFFFFF DUP3 GT OR PUSH2 0x1269 JUMPI PUSH1 0x40 MSTORE JUMP JUMPDEST ISZERO PUSH2 0x12A8 JUMPI JUMP JUMPDEST PUSH1 0x40 MLOAD PUSH3 0x461BCD PUSH1 0xE5 SHL DUP2 MSTORE PUSH1 0x20 PUSH1 0x4 DUP3 ADD MSTORE PUSH1 0x18 PUSH1 0x24 DUP3 ADD MSTORE PUSH32 0x4368616C6C656E676520646F6573206E6F742065786973740000000000000000 PUSH1 0x44 DUP3 ADD MSTORE PUSH1 0x64 SWAP1 REVERT JUMPDEST ISZERO PUSH2 0x12F4 JUMPI JUMP JUMPDEST PUSH1 0x40 MLOAD PUSH3 0x461BCD PUSH1 0xE5 SHL DUP2 MSTORE PUSH1 0x20 PUSH1 0x4 DUP3 ADD MSTORE PUSH1 0x16 PUSH1 0x24 DUP3 ADD MSTORE PUSH22 0x10DA185B1B195B99D9481A5CC8199A5B985B1A5E9959 PUSH1 0x52 SHL PUSH1 0x44 DUP3 ADD MSTORE PUSH1 0x64 SWAP1 REVERT JUMPDEST SWAP2 SWAP1 DUP3 ADD DUP1 SWAP3 GT PUSH2 0x133F JUMPI JUMP JUMPDEST PUSH4 0x4E487B71 PUSH1 0xE0 SHL PUSH1 0x0 MSTORE PUSH1 0x11 PUSH1 0x4 MSTORE PUSH1 0x24 PUSH1 0x0 REVERT JUMPDEST ISZERO PUSH2 0x135C JUMPI JUMP JUMPDEST PUSH1 0x40 MLOAD PUSH3 0x461BCD PUSH1 0xE5 SHL DUP2 MSTORE PUSH1 0x20 PUSH1 0x4 DUP3 ADD MSTORE PUSH1 0x11 PUSH1 0x24 DUP3 ADD MSTORE PUSH17 0x10DA185B1B195B99D948195E1C1A5C9959 PUSH1 0x7A SHL PUSH1 0x44 DUP3 ADD MSTORE PUSH1 0x64 SWAP1 REVERT JUMPDEST PUSH8 0xFFFFFFFFFFFFFFFF DUP2 GT PUSH2 0x1269 JUMPI PUSH1 0x5 SHL PUSH1 0x20 ADD SWAP1 JUMP JUMPDEST DUP1 MLOAD DUP3 LT ISZERO PUSH2 0x11F9 JUMPI PUSH1 0x20 SWAP2 PUSH1 0x5 SHL ADD ADD SWAP1 JUMP JUMPDEST PUSH1 0x0 DUP2 DUP2 MSTORE PUSH1 0x3 PUSH1 0x20 DUP2 DUP2 MSTORE PUSH1 0x40 DUP1 DUP5 KECCAK256 PUSH1 0x1 PUSH1 0x1 PUSH1 0xA0 SHL SUB SWAP7 DUP8 AND DUP6 MSTORE DUP3 MSTORE DUP1 DUP5 KECCAK256 SLOAD SWAP3 SWAP7 SWAP6 SWAP5 SWAP1 SWAP2 DUP4 ISZERO PUSH2 0x14B3 JUMPI PUSH1 0x1 SWAP6 DUP3 DUP7 MSTORE PUSH1 0x4 SWAP9 PUSH1 0x4 DUP4 MSTORE DUP5 DUP8 KECCAK256 SWAP4 DUP6 MLOAD DUP1 DUP7 DUP7 DUP3 SWAP9 SLOAD SWAP4 DUP5 DUP2 MSTORE ADD SWAP1 DUP12 MSTORE DUP7 DUP12 KECCAK256 SWAP3 DUP12 JUMPDEST DUP14 DUP10 DUP4 DUP4 LT PUSH2 0x149C JUMPI POP POP POP POP PUSH2 0x1431 SWAP3 POP SUB DUP7 PUSH2 0x127F JUMP JUMPDEST DUP8 JUMPDEST DUP6 MLOAD DUP2 LT ISZERO PUSH2 0x148E JUMPI DUP2 DUP10 MSTORE DUP3 DUP6 MSTORE DUP7 DUP10 KECCAK256 DUP5 PUSH2 0x1450 DUP4 DUP10 PUSH2 0x13AD JUMP JUMPDEST MLOAD AND DUP11 MSTORE DUP6 MSTORE DUP8 DUP8 DUP11 KECCAK256 SLOAD GT PUSH2 0x1469 JUMPI JUMPDEST PUSH1 0x1 ADD PUSH2 0x1433 JUMP JUMPDEST SWAP9 PUSH1 0x1 DUP2 ADD DUP1 SWAP2 GT PUSH2 0x147B JUMPI SWAP9 PUSH2 0x1461 JUMP JUMPDEST PUSH4 0x4E487B71 PUSH1 0xE0 SHL DUP10 MSTORE PUSH1 0x11 DUP13 MSTORE PUSH1 0x24 DUP10 REVERT JUMPDEST POP SWAP8 SWAP10 POP POP POP POP POP POP POP POP POP JUMP JUMPDEST DUP7 SLOAD DUP11 AND DUP6 MSTORE SWAP6 DUP2 ADD SWAP6 DUP12 SWAP6 POP SWAP1 SWAP4 ADD SWAP3 ADD PUSH2 0x1418 JUMP JUMPDEST PUSH1 0x64 SWAP1 DUP4 MLOAD SWAP1 PUSH3 0x461BCD PUSH1 0xE5 SHL DUP3 MSTORE PUSH1 0x4 DUP3 ADD MSTORE PUSH1 0x1C PUSH1 0x24 DUP3 ADD MSTORE PUSH32 0x5061727469636970616E74206E6F7420696E206368616C6C656E676500000000 PUSH1 0x44 DUP3 ADD MSTORE REVERT JUMPDEST PUSH1 0x2 PUSH1 0x1 SLOAD EQ PUSH2 0x1507 JUMPI PUSH1 0x2 PUSH1 0x1 SSTORE JUMP JUMPDEST PUSH1 0x40 MLOAD PUSH3 0x461BCD PUSH1 0xE5 SHL DUP2 MSTORE PUSH1 0x20 PUSH1 0x4 DUP3 ADD MSTORE PUSH1 0x1F PUSH1 0x24 DUP3 ADD MSTORE PUSH32 0x5265656E7472616E637947756172643A207265656E7472616E742063616C6C00 PUSH1 0x44 DUP3 ADD MSTORE PUSH1 0x64 SWAP1 REVERT JUMPDEST PUSH1 0x0 SLOAD PUSH1 0x1 PUSH1 0x1 PUSH1 0xA0 SHL SUB AND CALLER SUB PUSH2 0x1560 JUMPI JUMP JUMPDEST PUSH1 0x64 PUSH1 0x40 MLOAD PUSH3 0x461BCD PUSH1 0xE5 SHL DUP2 MSTORE PUSH1 0x20 PUSH1 0x4 DUP3 ADD MSTORE PUSH1 0x20 PUSH1 0x24 DUP3 ADD MSTORE PUSH32 0x4F776E61626C653A2063616C6C6572206973206E6F7420746865206F776E6572 PUSH1 0x44 DUP3 ADD MSTORE REVERT INVALID LOG2 PUSH5 0x6970667358 0x22 SLT KECCAK256 PUSH26 0x499EDCC5D3F6E30F1DB947B8A7A7AE5DCAFE10BB9390E8229D78 BYTE DUP15 LOG4 0x4D 0x25 PUSH5 0x736F6C6343 STOP ADDMOD XOR STOP CALLER "},"methodIdentifiers":{"calculateRank(uint256,address)":"e5656a5e","challenges(uint256)":"8f1d3776","createChallenge(uint256,uint256)":"84f61585","enterChallenge(uint256)":"25c1a695","finalizeChallenge(uint256)":"484dd61a","getChallenge(uint256)":"1bdd4b74","getChallengeIdCounter()":"57a248f1","getLeaderboard(uint256)":"a34b46fe","getParticipantCount(uint256)":"86ae5fec","getParticipants(uint256)":"c1e3bd3e","owner()":"8da5cb5b","participantIndex(uint256,address)":"ace25895","participants(uint256,uint256)":"81fb1fb4","passportContract()":"ab9027b0","pendingWithdrawals(address)":"f3f43703","renounceOwnership()":"715018a6","scores(uint256,address)":"7a07b674","submitScore(uint256,uint256)":"8358ba08","transferOwnership(address)":"f2fde38b","withdraw()":"3ccfd60b"}}}}}