{"contracts/SomniaPassport.sol":{"SomniaPassport":{"abi":[{"inputs":[],"stateMutability":"nonpayable","type":"constructor"},{"anonymous":false,"inputs":[{"indexed":true,"internalType":"address","name":"owner","type":"address"},{"indexed":true,"internalType":"address","name":"approved","type":"address"},{"indexed":true,"internalType":"uint256","name":"tokenId","type":"uint256"}],"name":"Approval","type":"event"},{"anonymous":false,"inputs":[{"indexed":true,"internalType":"address","name":"owner","type":"address"},{"indexed":true,"internalType":"address","name":"operator","type":"address"},{"indexed":false,"internalType":"bool","name":"approved","type":"bool"}],"name":"ApprovalForAll","type":"event"},{"anonymous":false,"inputs":[{"indexed":true,"internalType":"address","name":"previousOwner","type":"address"},{"indexed":true,"internalType":"address","name":"newOwner","type":"address"}],"name":"OwnershipTransferred","type":"event"},{"anonymous":false,"inputs":[{"indexed":true,"internalType":"address","name":"user","type":"address"},{"indexed":true,"internalType":"uint256","name":"tokenId","type":"uint256"}],"name":"PassportMinted","type":"event"},{"anonymous":false,"inputs":[{"indexed":true,"internalType":"address","name":"user","type":"address"},{"indexed":false,"internalType":"uint256","name":"newReputation","type":"uint256"},{"indexed":false,"internalType":"uint256","name":"newArenaPoints","type":"uint256"},{"indexed":false,"internalType":"uint256","name":"newWins","type":"uint256"},{"indexed":false,"internalType":"uint256","name":"newParticipation","type":"uint256"}],"name":"PassportUpdated","type":"event"},{"anonymous":false,"inputs":[{"indexed":true,"internalType":"address","name":"from","type":"address"},{"indexed":true,"internalType":"address","name":"to","type":"address"},{"indexed":true,"internalType":"uint256","name":"tokenId","type":"uint256"}],"name":"Transfer","type":"event"},{"inputs":[{"internalType":"address","name":"","type":"address"},{"internalType":"uint256","name":"","type":"uint256"}],"name":"approve","outputs":[],"stateMutability":"pure","type":"function"},{"inputs":[{"internalType":"address","name":"owner","type":"address"}],"name":"balanceOf","outputs":[{"internalType":"uint256","name":"","type":"uint256"}],"stateMutability":"view","type":"function"},{"inputs":[{"internalType":"uint256","name":"tokenId","type":"uint256"}],"name":"getApproved","outputs":[{"internalType":"address","name":"","type":"address"}],"stateMutability":"view","type":"function"},{"inputs":[{"internalType":"address","name":"user","type":"address"}],"name":"getPassport","outputs":[{"components":[{"internalType":"uint256","name":"reputation","type":"uint256"},{"internalType":"uint256","name":"arenaPoints","type":"uint256"},{"internalType":"uint256","name":"wins","type":"uint256"},{"internalType":"uint256","name":"participation","type":"uint256"},{"internalType":"uint256","name":"createdAt","type":"uint256"},{"internalType":"uint256","name":"lastUpdated","type":"uint256"}],"internalType":"struct SomniaPassport.PassportData","name":"","type":"tuple"}],"stateMutability":"view","type":"function"},{"inputs":[{"internalType":"address","name":"owner","type":"address"},{"internalType":"address","name":"operator","type":"address"}],"name":"isApprovedForAll","outputs":[{"internalType":"bool","name":"","type":"bool"}],"stateMutability":"view","type":"function"},{"inputs":[],"name":"mintPassport","outputs":[],"stateMutability":"nonpayable","type":"function"},{"inputs":[],"name":"name","outputs":[{"internalType":"string","name":"","type":"string"}],"stateMutability":"view","type":"function"},{"inputs":[],"name":"owner","outputs":[{"internalType":"address","name":"","type":"address"}],"stateMutability":"view","type":"function"},{"inputs":[{"internalType":"uint256","name":"tokenId","type":"uint256"}],"name":"ownerOf","outputs":[{"internalType":"address","name":"","type":"address"}],"stateMutability":"view","type":"function"},{"inputs":[{"internalType":"uint256","name":"","type":"uint256"}],"name":"passportData","outputs":[{"internalType":"uint256","name":"reputation","type":"uint256"},{"internalType":"uint256","name":"arenaPoints","type":"uint256"},{"internalType":"uint256","name":"wins","type":"uint256"},{"internalType":"uint256","name":"participation","type":"uint256"},{"internalType":"uint256","name":"createdAt","type":"uint256"},{"internalType":"uint256","name":"lastUpdated","type":"uint256"}],"stateMutability":"view","type":"function"},{"inputs":[{"internalType":"address","name":"","type":"address"}],"name":"passportOf","outputs":[{"internalType":"uint256","name":"","type":"uint256"}],"stateMutability":"view","type":"function"},{"inputs":[],"name":"renounceOwnership","outputs":[],"stateMutability":"nonpayable","type":"function"},{"inputs":[{"internalType":"address","name":"","type":"address"},{"internalType":"address","name":"","type":"address"},{"internalType":"uint256","name":"","type":"uint256"}],"name":"safeTransferFrom","outputs":[],"stateMutability":"pure","type":"function"},{"inputs":[{"internalType":"address","name":"from","type":"address"},{"internalType":"address","name":"to","type":"address"},{"internalType":"uint256","name":"tokenId","type":"uint256"},{"internalType":"bytes","name":"data","type":"bytes"}],"name":"safeTransferFrom","outputs":[],"stateMutability":"nonpayable","type":"function"},{"inputs":[{"internalType":"address","name":"","type":"address"},{"internalType":"bool","name":"","type":"bool"}],"name":"setApprovalForAll","outputs":[],"stateMutability":"pure","type":"function"},{"inputs":[{"internalType":"bytes4","name":"interfaceId","type":"bytes4"}],"name":"supportsInterface","outputs":[{"internalType":"bool","name":"","type":"bool"}],"stateMutability":"view","type":"function"},{"inputs":[],"name":"symbol","outputs":[{"internalType":"string","name":"","type":"string"}],"stateMutability":"view","type":"function"},{"inputs":[{"internalType":"uint256","name":"tokenId","type":"uint256"}],"name":"tokenURI","outputs":[{"internalType":"string","name":"","type":"string"}],"stateMutability":"view","type":"function"},{"inputs":[{"internalType":"address","name":"","type":"address"},{"internalType":"address","name":"","type":"address"},{"internalType":"uint256","name":"","type":"uint256"}],"name":"transferFrom","outputs":[],"stateMutability":"pure","type":"function"},{"inputs":[{"internalType":"address","name":"newOwner","type":"address"}],"name":"transferOwnership","outputs":[],"stateMutability":"nonpayable","type":"function"},{"inputs":[{"internalType":"address","name":"user","type":"address"},{"internalType":"uint256","name":"newReputation","type":"uint256"},{"internalType":"uint256","name":"newArenaPoints","type":"uint256"},{"internalType":"uint256","name":"newWins","type":"uint256"},{"internalType":"uint256","name":"newParticipation","type":"uint256"}],"name":"updateStats","outputs":[],"stateMutability":"nonpayable","type":"function"}],"evm":{"bytecode":{"linkReferences":{},"object":"60803462000367576001600160401b03906040908082018381118282101762000351578252600f81526020916e14dbdb5b9a584814185cdcdc1bdc9d608a1b83830152805193818501858110828211176200035157825260048552630534d4e560e41b84860152825181811162000351576000948554916001958684811c9416801562000346575b8385101462000332578190601f94858111620002df575b5083908583116001146200027b5789926200026f575b5050600019600383901b1c191690861b1786555b86519283116200025b5784548581811c9116801562000250575b828210146200023c57828111620001f4575b50809183116001146200018b5750849582939495926200017f575b5050600019600383901b1c191690831b1782555b60068054336001600160a01b03198216811790925591519390916001600160a01b0316907f8be0079c531659141344cd1fd0a4f28419497f9722a3daafe3b4186f6b6457e09080a380600755600a556123c790816200036d8239f35b0151905038806200010f565b90601f198316968587528287209287905b898210620001dc5750508386979896959610620001c2575b505050811b01825562000123565b015160001960f88460031b161c19169055388080620001b4565b8088859682949686015181550195019301906200019c565b8587528187208380860160051c82019284871062000232575b0160051c019086905b82811062000226575050620000f4565b88815501869062000216565b925081926200020d565b634e487b7160e01b87526022600452602487fd5b90607f1690620000e2565b634e487b7160e01b86526041600452602486fd5b015190503880620000b4565b898052848a208994509190601f1984168b5b87828210620002c85750508411620002ae575b505050811b018655620000c8565b015160001960f88460031b161c19169055388080620002a0565b8385015186558c979095019493840193016200028d565b9091508880528389208580850160051c82019286861062000328575b918a91869594930160051c01915b828110620003195750506200009e565b8b81558594508a910162000309565b92508192620002fb565b634e487b7160e01b88526022600452602488fd5b93607f169362000087565b634e487b7160e01b600052604160045260246000fd5b600080fdfe6080604090808252600436101561001557600080fd5b60003560e01c90816301ffc9a7146119f25750806306fdde0314611929578063081812fc14611909578063095ea7b3146118eb5780631241a45a1461181f57806323b872dd1461181a57806342842e0e1461181a5780634ec794f61461164557806357a5893c146115605780635d1c2634146115275780636352211e146114f657806370a0823114611461578063715018a6146114045780638da5cb5b146113db57806395d89b41146112c9578063a22cb465146112a0578063a6670ebe1461123e578063b88d4fde14610fe5578063c87b56dd14610222578063e985e9c5146101d05763f2fde38b1461010857600080fd5b346101cb5760203660031901126101cb57610121611aa5565b610129611d28565b6001600160a01b039081169182156101795750600654826001600160601b0360a01b821617600655167f8be0079c531659141344cd1fd0a4f28419497f9722a3daafe3b4186f6b6457e0600080a3005b5162461bcd60e51b815260206004820152602660248201527f4f776e61626c653a206e6577206f776e657220697320746865207a65726f206160448201526564647265737360d01b6064820152608490fd5b600080fd5b50346101cb57806003193601126101cb576020906101ec611aa5565b6101f4611abb565b9060018060a01b0380911660005260058452826000209116600052825260ff81600020541690519015158152f35b50346101cb5760203660031901126101cb5761023f600435611e4d565b15610fab5760043560005260096020528060002090805161025f81611b05565b825481526001830154602082015260056002840154938383019485526003810154606084015260048101546080840152015460a0820152600435600052600960205281600020908251916102b283611b05565b80548352600181015460208401908152600282015485850190815260056003840154936060870194855260048101546080880152015460a086015261032061031961031261030b610304600435611ea3565b9851611ea3565b9451611ea3565b9251611ea3565b9351611ea3565b916001600160a01b03610334600435611d02565b169087519161034283611b53565b602a835288366020850137825115610f955760306020840153825160011015610f95576078602184015360295b60018111610f385750610ef5576105ea7f30302f737667222076696577426f783d223020302034303020353030223e0000610e8796602061013897610e8c9b97610ef19e9b97610c0e978f6103c342611ea3565b81517f3c73766720786d6c6e733d22687474703a2f2f7777772e77332e6f72672f32308882015291820198909852651e3232b3399f60d11b605e820152661e39ba3cb6329f60c91b60648201527f74657874207b20666f6e742d66616d696c793a20496e7465722c2073616e732d606b8201526773657269663b207d60c01b608b8201527f2e7469746c65207b20666f6e742d73697a653a20323470783b20666f6e742d7760938201527f65696768743a203630303b2066696c6c3a20234536454446333b207d0000000060b38201527f2e6c6162656c207b20666f6e742d73697a653a20313270783b20666f6e742d7760cf8201527f65696768743a203430303b2066696c6c3a20233842393439453b207d0000000060ef8201527f2e76616c7565207b20666f6e742d73697a653a20313870783b20666f6e742d7761010b8201527f65696768743a203630303b2066696c6c3a20233246383146373b207d0000000061012b8201527f2e626f72646572207b207374726f6b653a20233146323933333b207374726f6b6101478201527f652d77696474683a20323b2066696c6c3a206e6f6e653b207d00000000000000610167820152671e17b9ba3cb6329f60c11b610180820152661e17b232b3399f60c91b6101888201527f3c726563742077696474683d2234303022206865696768743d2235303022206661018f8201527f696c6c3d22233042304631342220636c6173733d22626f7264657222202f3e006101af8201527f3c7265637420783d2232302220793d223230222077696474683d2233363022206101ce8201527f6865696768743d22343630222066696c6c3d226e6f6e652220636c6173733d226101ee8201527f626f7264657222207374726f6b653d222331463239333322207374726f6b652d61020e8201526b3bb4b23a341e91189110179f60a11b61022e8201527f3c7465787420783d223230302220793d2236302220636c6173733d227469746c61023a8201527f652220746578742d616e63686f723d226d6964646c65223e534f4d4e4941205061025a8201526d20a9a9a827a92a1e17ba32bc3a1f60911b61027a8201527f3c7465787420783d2232302220793d223132302220636c6173733d226c6162656102888201526b36111f24a21e17ba32bc3a1f60a11b6102a88201527f3c7465787420783d2232302220793d223134352220636c6173733d2276616c756102b48201526365223e2360e01b6102d48201528b51909b8c98956102d892909161076d908290858d01908b01611a5d565b890194661e17ba32bc3a1f60c91b80988782809996819701527f3c6c696e652078313d223230222079313d22313630222078323d2233383022206102df8201527f79323d2231363022207374726f6b653d222331463239333322207374726f6b656102ff8201526c16bbb4b23a341e91189110179f60991b968761031f8301527f3c7465787420783d2232302220793d223230302220636c6173733d226c61626561032c8301527336111f2922a82aaa20aa24a7a71e17ba32bc3a1f60611b61034c8301527f3c7465787420783d2232302220793d223232352220636c6173733d2276616c75610360830152836232911f60e91b91826103808501526103839361087f82518093888885019101611a5d565b01928301527f3c7465787420783d223232302220793d223230302220636c6173733d226c616261038a8301527f656c223e4152454e4120504f494e54533c2f746578743e0000000000000000006103aa8301527f3c7465787420783d223232302220793d223232352220636c6173733d2276616c6103c183015283633ab2911f60e11b95866103e18501526103e59361092082518093888885019101611a5d565b01928301527f3c6c696e652078313d223230222079313d22323430222078323d2233383022206103ec8301527f79323d2232343022207374726f6b653d222331463239333322207374726f6b6561040c8301528761042c8301527f3c7465787420783d2232302220793d223238302220636c6173733d226c6162656104398301526d36111f2ba4a7299e17ba32bc3a1f60911b6104598301527f3c7465787420783d2232302220793d223330352220636c6173733d2276616c756104678301526104878201526109fc61048a8d819e5194859285019101611a5d565b01998a01527f3c7465787420783d223232302220793d223238302220636c6173733d226c61626104918a01527f656c223e50415254494349504154494f4e3c2f746578743e00000000000000006104b18a01527f3c7465787420783d223232302220793d223330352220636c6173733d2276616c6104c98a01526104e98901526104ed97610a938251809360208c85019101611a5d565b01968701527f3c6c696e652078313d223230222079313d22333230222078323d2233383022206104f48701527f79323d2233323022207374726f6b653d222331463239333322207374726f6b656105148701526105348601527f3c7465787420783d2232302220793d223336302220636c6173733d226c6162656105418601526f36111f2427a62222a91e17ba32bc3a1f60811b6105618601527f3c7465787420783d2232302220793d223338332220636c6173733d2276616c75610571860152733291103337b73a16b9b4bd329e911898b83c111f60611b61059186015280516105a5959091610b8c90839088840190602001611a5d565b01938401527f3c7465787420783d2232302220793d223435302220636c6173733d226c6162656105ac84015270036111f2620a9aa102aa82220aa22a21d1607d1b6105cc8401526105dd92610bea8251809360208785019101611a5d565b0191820152651e17b9bb339f60d11b6105e4820152036105ca810185520183611b6f565b607d60f81b610c27610c21600435611ea3565b93611fe7565b95610c328351611ea3565b90610c506060610c486103196020880151611ea3565b950151611ea3565b918a519889967f7b226e616d65223a22536f6d6e69612050617373706f727420230000000000006020890152610c90815180926020603a8c019101611a5d565b87017f222c226465736372697074696f6e223a224f6666696369616c20536f6d6e6961603a8201527f204172656e612050617373706f727420546f6b656e222c22696d616765223a22605a8201527f646174613a696d6167652f7376672b786d6c3b6261736536342c000000000000607a820152610d18825180936020609485019101611a5d565b016f222c2261747472696275746573223a5b60801b60948201527f7b2274726169745f74797065223a2252657075746174696f6e222c2276616c7560a48201526232911d60e91b60c4820152610d7882518093602060c785019101611a5d565b0190611f4b60f21b918260c78201527f7b2274726169745f74797065223a224172656e6120506f696e7473222c22766160c982015264363ab2911d60d91b60e9820152610dcf82518093602060ee85019101611a5d565b01938160ee8601527f7b2274726169745f74797065223a2257696e73222c2276616c7565223a00000060f086015261010d94610e148251809360208985019101611a5d565b01938401527f7b2274726169745f74797065223a2250617274696369706174696f6e222c227661010f8401526530b63ab2911d60d11b61012f84015261013592610e678251809360208785019101611a5d565b0191820152615d7d60f01b61013682015203610118810184520182611b6f565b611fe7565b90610edf603d825180947f646174613a6170706c69636174696f6e2f6a736f6e3b6261736536342c0000006020830152610ecf8151809260208686019101611a5d565b810103601d810185520183611b6f565b51918291602083526020830190611a80565b0390f35b6064885162461bcd60e51b815260206004820152602060248201527f537472696e67733a20686578206c656e67746820696e73756666696369656e746044820152fd5b90600f81166010811015610f95578451831015610f95576f181899199a1a9b1b9c1cb0b131b232b360811b901a8483016020015360041c908015610f7f576000190161036f565b634e487b7160e01b600052601160045260246000fd5b634e487b7160e01b600052603260045260246000fd5b5162461bcd60e51b8152602060048201526014602482015273151bdad95b88191bd95cc81b9bdd08195e1a5cdd60621b6044820152606490fd5b50346101cb5760803660031901126101cb57610fff611aa5565b611007611abb565b604435906064359267ffffffffffffffff84116101cb57366023850112156101cb5783600401359361103885611b91565b9461104587519687611b6f565b80865260209136602483830101116101cb57816000926024859301838a0137870101526001600160a01b03908161107b86611d02565b1680331490811561121d575b50801561120a575b156111b15781906110ae6110a287611d02565b85841693168314612144565b828516928315611161579183918796959461115f9a6110dd848a976110d661115a9e9d611d02565b1614612144565b8560005260048352600281600020936001600160601b0360a01b9485815416905585600052600381528260002060001981540190558360005282600020600181540190558760005252600020918254161790557fddf252ad1be2c89b69c2b068fc378daa952ba7f163c4a11628f55a4df523b3ef600080a46122bc565b611e29565b005b885162461bcd60e51b8152600481018390526024808201527f4552433732313a207472616e7366657220746f20746865207a65726f206164646044820152637265737360e01b6064820152608490fd5b60849087519062461bcd60e51b82526004820152602d60248201527f4552433732313a2063616c6c6572206973206e6f7420746f6b656e206f776e6560448201526c1c881bdc88185c1c1c9bdd9959609a1b6064820152fd5b50338261121687611bad565b161461108f565b9050600052600581528660002033600052815260ff87600020541638611087565b50346101cb5760203660031901126101cb5760c0906004356000526009602052806000209081549160018101549160028201546003830154916005600485015494015494815196875260208701528501526060840152608083015260a0820152f35b50346101cb573660031901126101cb576112b8611aa5565b5060243580151514611bd957600080fd5b50346101cb5760003660031901126101cb5780519060009060018054928360011c600185169283156113d1575b60209586831085146113bb57868895848752918260001461139957505060011461133c575b5050610ef1929161132d910385611b6f565b51928284938452830190611a80565b9085925060016000527fb10e2d527612073b26eecdfd717e6a320cf44b4afac2b0732d9fcbe2b7fa0cf6916000925b828410611381575050508201018161132d61131b565b8054848a01860152889550879490930192810161136b565b60ff19168682015292151560051b8501909201925083915061132d905061131b565b634e487b7160e01b600052602260045260246000fd5b90607f16906112f6565b50346101cb5760003660031901126101cb5760065490516001600160a01b039091168152602090f35b346101cb5760003660031901126101cb5761141d611d28565b600680546001600160a01b031981169091556000906001600160a01b03167f8be0079c531659141344cd1fd0a4f28419497f9722a3daafe3b4186f6b6457e08280a3005b50346101cb5760203660031901126101cb576001600160a01b03611483611aa5565b169081156114a1576020916000526003825280600020549051908152f35b5162461bcd60e51b815260206004820152602960248201527f4552433732313a2061646472657373207a65726f206973206e6f7420612076616044820152683634b21037bbb732b960b91b6064820152608490fd5b50346101cb5760203660031901126101cb57602090611516600435611d02565b90516001600160a01b039091168152f35b50346101cb5760203660031901126101cb576020906001600160a01b0361154c611aa5565b166000526008825280600020549051908152f35b50346101cb57602090816003193601126101cb5760c09161157f611aa5565b600060a0845161158e81611b05565b82815282858201528286820152826060820152826080820152015260018060a01b03166000526008815281600020546115c8811515611c74565b60005260098152816000208251916115df83611b05565b8154938484526001830154918085019283526002840154908286019182526003850154936060870194855260a0600560048801549760808a01988952015497019687528351978852519087015251908501525160608401525160808301525160a0820152f35b50346101cb5760003660031901126101cb5761165f611d80565b331561166b8115611c36565b336000526020916008835280600020546117d757600a549260018401808511610f7f57600a553360005260088152838260002055836000526009815281600020600081556000600182015560006002820155600060038201554260048201556005429101558151926116dc84611b37565b60008452611796579161115a916002611769946117016116fb88611e4d565b15612345565b61170d6116fb88611e4d565b336000526003815282600020600181540190558660005252600020336001600160601b0360a01b825416179055833360007fddf252ad1be2c89b69c2b068fc378daa952ba7f163c4a11628f55a4df523b3ef8180a4833361219e565b337f2cf689e09cb05e7e71be603090df76ef66fdfd5f723f4086dd4b3d6eee5c43d9600080a36001600755005b606491519062461bcd60e51b825280600483015260248201527f4552433732313a206d696e7420746f20746865207a65726f20616464726573736044820152fd5b5162461bcd60e51b815260048101839052601760248201527f50617373706f727420616c7265616479206d696e7465640000000000000000006044820152606490fd5b611ad1565b50346101cb5760a03660031901126101cb577ffb0aa002b87c357b223b2a678c06c1e17d601f29e4286cb003d5489356ae8ea0608061185c611aa5565b60243590604435946064359060843592611874611d28565b61187c611d80565b6001600160a01b031696611891881515611c36565b87600052600860205281600020546118aa811515611c74565b600052600960205281600020858155816001820155836002820155846003820155600542910155815194855260208501528301526060820152a26001600755005b50346101cb573660031901126101cb57611903611aa5565b50611bd9565b50346101cb5760203660031901126101cb57602090611516600435611bad565b50346101cb5760003660031901126101cb57805190600090600054916001908360011c600185169283156119e8575b60209586831085146113bb57868895848752918260001461139957505060011461198e575050610ef1929161132d910385611b6f565b600080805286935091907f290decd9548b62a8d60345a988386fc84ba6bc95484008f6362f93160ef3e5635b8284106119d0575050508201018161132d61131b565b8054848a0186015288955087949093019281016119ba565b90607f1690611958565b346101cb5760203660031901126101cb576004359063ffffffff60e01b82168092036101cb576020916380ac58cd60e01b8114908115611a4c575b8115611a3b575b5015158152f35b6301ffc9a760e01b14905083611a34565b635b5e139f60e01b81149150611a2d565b60005b838110611a705750506000910152565b8181015183820152602001611a60565b90602091611a9981518092818552858086019101611a5d565b601f01601f1916010190565b600435906001600160a01b03821682036101cb57565b602435906001600160a01b03821682036101cb57565b346101cb5760603660031901126101cb576001600160a01b03600435818116036101cb5760243590811614611bd957600080fd5b60c0810190811067ffffffffffffffff821117611b2157604052565b634e487b7160e01b600052604160045260246000fd5b6020810190811067ffffffffffffffff821117611b2157604052565b6060810190811067ffffffffffffffff821117611b2157604052565b90601f8019910116810190811067ffffffffffffffff821117611b2157604052565b67ffffffffffffffff8111611b2157601f01601f191660200190565b611bbe611bb982611e4d565b611cb6565b6000908152600460205260409020546001600160a01b031690565b60405162461bcd60e51b815260206004820152602f60248201527f50617373706f727420697320736f756c626f756e6420616e642063616e6e6f7460448201526e081899481d1c985b9cd9995c9c9959608a1b6064820152608490fd5b15611c3d57565b60405162461bcd60e51b815260206004820152600f60248201526e496e76616c6964206164647265737360881b6044820152606490fd5b15611c7b57565b60405162461bcd60e51b815260206004820152601360248201527214185cdcdc1bdc9d081b9bdd081b5a5b9d1959606a1b6044820152606490fd5b15611cbd57565b60405162461bcd60e51b815260206004820152601860248201527f4552433732313a20696e76616c696420746f6b656e20494400000000000000006044820152606490fd5b6000908152600260205260409020546001600160a01b0316611d25811515611cb6565b90565b6006546001600160a01b03163303611d3c57565b606460405162461bcd60e51b815260206004820152602060248201527f4f776e61626c653a2063616c6c6572206973206e6f7420746865206f776e65726044820152fd5b600260075414611d91576002600755565b60405162461bcd60e51b815260206004820152601f60248201527f5265656e7472616e637947756172643a207265656e7472616e742063616c6c006044820152606490fd5b60809060208152603260208201527f4552433732313a207472616e7366657220746f206e6f6e20455243373231526560408201527131b2b4bb32b91034b6b83632b6b2b73a32b960711b60608201520190565b15611e3057565b60405162461bcd60e51b815280611e4960048201611dd6565b0390fd5b6001600160a01b03611e5e82611d02565b1660005260086020526040600020541490565b90611e7b82611b91565b611e886040519182611b6f565b8281528092611e99601f1991611b91565b0190602036910137565b806000917a184f03e93ff9f4daa797ed6e38ed64bf6a1f01000000000000000080821015611fd9575b506d04ee2d6d415b85acef810000000080831015611fca575b50662386f26fc1000080831015611fbb575b506305f5e10080831015611fac575b5061271080831015611f9d575b506064821015611f8d575b600a80921015611f83575b600190816021611f3b60018701611e71565b95860101905b611f4d575b5050505090565b600019019083906f181899199a1a9b1b9c1cb0b131b232b360811b8282061a835304918215611f7e57919082611f41565b611f46565b9160010191611f29565b9190606460029104910191611f1e565b60049193920491019138611f13565b60089193920491019138611f06565b60109193920491019138611ef7565b60209193920491019138611ee5565b604093508104915038611ecc565b9081511561212f5760405191611ffc83611b53565b604083527f4142434445464748494a4b4c4d4e4f505152535455565758595a61626364656660208401527f6768696a6b6c6d6e6f707172737475767778797a303132333435363738392b2f604084015280519260029160028501809511610f7f576003948590046001600160fe1b0381168103610f7f576120829060029694961b611e71565b926020840192829183518401976020890192835194600085525b8a81106120e2575050505060039394959650525106806001146120cf576002146120c4575090565b603d90600019015390565b50603d9081600019820153600119015390565b836004919b989b019a8b51600190603f9082828260121c16870101518453828282600c1c16870101518385015382828260061c16870101518785015316840101518582015301969961209c565b905060405161213d81611b37565b6000815290565b1561214b57565b60405162461bcd60e51b815260206004820152602560248201527f4552433732313a207472616e736665722066726f6d20696e636f72726563742060448201526437bbb732b960d91b6064820152608490fd5b91929091803b156122b3576121eb936040519081630a85bd0160e11b9384825233600483015260009687602484015260448301526080606483015281878160209a8b966084830190611a80565b03926001600160a01b03165af184918161226f575b5061225e575050503d600014612256573d61221a81611b91565b906122286040519283611b6f565b81528091833d92013e5b805191826122535760405162461bcd60e51b815280611e4960048201611dd6565b01fd5b506060612232565b6001600160e01b0319161492509050565b9091508581813d83116122ac575b6122878183611b6f565b810103126122a857516001600160e01b0319811681036122a8579038612200565b8480fd5b503d61227d565b50915050600190565b9293919290803b1561233b576123109460018060a01b039460405192839187630a85bd0160e11b9687855233600486015216602484015260448301526080606483015281806020998a956084830190611a80565b03916000988991165af184918161226f575061225e575050503d600014612256573d61221a81611b91565b5050915050600190565b1561234c57565b60405162461bcd60e51b815260206004820152601c60248201527f4552433732313a20746f6b656e20616c7265616479206d696e746564000000006044820152606490fdfea2646970667358221220690c600862092801a08d31e6494f3956a75a2765a86b53f937a890990937022864736f6c63430008180033","opcodes":"PUSH1 0x80 CALLVALUE PUSH3 0x367 JUMPI PUSH1 0x1 PUSH1 0x1 PUSH1 0x40 SHL SUB SWAP1 PUSH1 0x40 SWAP1 DUP1 DUP3 ADD DUP4 DUP2 GT DUP3 DUP3 LT OR PUSH3 0x351 JUMPI DUP3 MSTORE PUSH1 0xF DUP2 MSTORE PUSH1 0x20 SWAP2 PUSH15 0x14DBDB5B9A584814185CDCDC1BDC9D PUSH1 0x8A SHL DUP4 DUP4 ADD MSTORE DUP1 MLOAD SWAP4 DUP2 DUP6 ADD DUP6 DUP2 LT DUP3 DUP3 GT OR PUSH3 0x351 JUMPI DUP3 MSTORE PUSH1 0x4 DUP6 MSTORE PUSH4 0x534D4E5 PUSH1 0xE4 SHL DUP5 DUP7 ADD MSTORE DUP3 MLOAD DUP2 DUP2 GT PUSH3 0x351 JUMPI PUSH1 0x0 SWAP5 DUP6 SLOAD SWAP2 PUSH1 0x1 SWAP6 DUP7 DUP5 DUP2 SHR SWAP5 AND DUP1 ISZERO PUSH3 0x346 JUMPI JUMPDEST DUP4 DUP6 LT EQ PUSH3 0x332 JUMPI DUP2 SWAP1 PUSH1 0x1F SWAP5 DUP6 DUP2 GT PUSH3 0x2DF JUMPI JUMPDEST POP DUP4 SWAP1 DUP6 DUP4 GT PUSH1 0x1 EQ PUSH3 0x27B JUMPI DUP10 SWAP3 PUSH3 0x26F JUMPI JUMPDEST POP POP PUSH1 0x0 NOT PUSH1 0x3 DUP4 SWAP1 SHL SHR NOT AND SWAP1 DUP7 SHL OR DUP7 SSTORE JUMPDEST DUP7 MLOAD SWAP3 DUP4 GT PUSH3 0x25B JUMPI DUP5 SLOAD DUP6 DUP2 DUP2 SHR SWAP2 AND DUP1 ISZERO PUSH3 0x250 JUMPI JUMPDEST DUP3 DUP3 LT EQ PUSH3 0x23C JUMPI DUP3 DUP2 GT PUSH3 0x1F4 JUMPI JUMPDEST POP DUP1 SWAP2 DUP4 GT PUSH1 0x1 EQ PUSH3 0x18B JUMPI POP DUP5 SWAP6 DUP3 SWAP4 SWAP5 SWAP6 SWAP3 PUSH3 0x17F JUMPI JUMPDEST POP POP PUSH1 0x0 NOT PUSH1 0x3 DUP4 SWAP1 SHL SHR NOT AND SWAP1 DUP4 SHL OR DUP3 SSTORE JUMPDEST PUSH1 0x6 DUP1 SLOAD CALLER PUSH1 0x1 PUSH1 0x1 PUSH1 0xA0 SHL SUB NOT DUP3 AND DUP2 OR SWAP1 SWAP3 SSTORE SWAP2 MLOAD SWAP4 SWAP1 SWAP2 PUSH1 0x1 PUSH1 0x1 PUSH1 0xA0 SHL SUB AND SWAP1 PUSH32 0x8BE0079C531659141344CD1FD0A4F28419497F9722A3DAAFE3B4186F6B6457E0 SWAP1 DUP1 LOG3 DUP1 PUSH1 0x7 SSTORE PUSH1 0xA SSTORE PUSH2 0x23C7 SWAP1 DUP2 PUSH3 0x36D DUP3 CODECOPY RETURN JUMPDEST ADD MLOAD SWAP1 POP CODESIZE DUP1 PUSH3 0x10F JUMP JUMPDEST SWAP1 PUSH1 0x1F NOT DUP4 AND SWAP7 DUP6 DUP8 MSTORE DUP3 DUP8 KECCAK256 SWAP3 DUP8 SWAP1 JUMPDEST DUP10 DUP3 LT PUSH3 0x1DC JUMPI POP POP DUP4 DUP7 SWAP8 SWAP9 SWAP7 SWAP6 SWAP7 LT PUSH3 0x1C2 JUMPI JUMPDEST POP POP POP DUP2 SHL ADD DUP3 SSTORE PUSH3 0x123 JUMP JUMPDEST ADD MLOAD PUSH1 0x0 NOT PUSH1 0xF8 DUP5 PUSH1 0x3 SHL AND SHR NOT AND SWAP1 SSTORE CODESIZE DUP1 DUP1 PUSH3 0x1B4 JUMP JUMPDEST DUP1 DUP9 DUP6 SWAP7 DUP3 SWAP5 SWAP7 DUP7 ADD MLOAD DUP2 SSTORE ADD SWAP6 ADD SWAP4 ADD SWAP1 PUSH3 0x19C JUMP JUMPDEST DUP6 DUP8 MSTORE DUP2 DUP8 KECCAK256 DUP4 DUP1 DUP7 ADD PUSH1 0x5 SHR DUP3 ADD SWAP3 DUP5 DUP8 LT PUSH3 0x232 JUMPI JUMPDEST ADD PUSH1 0x5 SHR ADD SWAP1 DUP7 SWAP1 JUMPDEST DUP3 DUP2 LT PUSH3 0x226 JUMPI POP POP PUSH3 0xF4 JUMP JUMPDEST DUP9 DUP2 SSTORE ADD DUP7 SWAP1 PUSH3 0x216 JUMP JUMPDEST SWAP3 POP DUP2 SWAP3 PUSH3 0x20D JUMP JUMPDEST PUSH4 0x4E487B71 PUSH1 0xE0 SHL DUP8 MSTORE PUSH1 0x22 PUSH1 0x4 MSTORE PUSH1 0x24 DUP8 REVERT JUMPDEST SWAP1 PUSH1 0x7F AND SWAP1 PUSH3 0xE2 JUMP JUMPDEST PUSH4 0x4E487B71 PUSH1 0xE0 SHL DUP7 MSTORE PUSH1 0x41 PUSH1 0x4 MSTORE PUSH1 0x24 DUP7 REVERT JUMPDEST ADD MLOAD SWAP1 POP CODESIZE DUP1 PUSH3 0xB4 JUMP JUMPDEST DUP10 DUP1 MSTORE DUP5 DUP11 KECCAK256 DUP10 SWAP5 POP SWAP2 SWAP1 PUSH1 0x1F NOT DUP5 AND DUP12 JUMPDEST DUP8 DUP3 DUP3 LT PUSH3 0x2C8 JUMPI POP POP DUP5 GT PUSH3 0x2AE JUMPI JUMPDEST POP POP POP DUP2 SHL ADD DUP7 SSTORE PUSH3 0xC8 JUMP JUMPDEST ADD MLOAD PUSH1 0x0 NOT PUSH1 0xF8 DUP5 PUSH1 0x3 SHL AND SHR NOT AND SWAP1 SSTORE CODESIZE DUP1 DUP1 PUSH3 0x2A0 JUMP JUMPDEST DUP4 DUP6 ADD MLOAD DUP7 SSTORE DUP13 SWAP8 SWAP1 SWAP6 ADD SWAP5 SWAP4 DUP5 ADD SWAP4 ADD PUSH3 0x28D JUMP JUMPDEST SWAP1 SWAP2 POP DUP9 DUP1 MSTORE DUP4 DUP10 KECCAK256 DUP6 DUP1 DUP6 ADD PUSH1 0x5 SHR DUP3 ADD SWAP3 DUP7 DUP7 LT PUSH3 0x328 JUMPI JUMPDEST SWAP2 DUP11 SWAP2 DUP7 SWAP6 SWAP5 SWAP4 ADD PUSH1 0x5 SHR ADD SWAP2 JUMPDEST DUP3 DUP2 LT PUSH3 0x319 JUMPI POP POP PUSH3 0x9E JUMP JUMPDEST DUP12 DUP2 SSTORE DUP6 SWAP5 POP DUP11 SWAP2 ADD PUSH3 0x309 JUMP JUMPDEST SWAP3 POP DUP2 SWAP3 PUSH3 0x2FB JUMP JUMPDEST PUSH4 0x4E487B71 PUSH1 0xE0 SHL DUP9 MSTORE PUSH1 0x22 PUSH1 0x4 MSTORE PUSH1 0x24 DUP9 REVERT JUMPDEST SWAP4 PUSH1 0x7F AND SWAP4 PUSH3 0x87 JUMP JUMPDEST PUSH4 0x4E487B71 PUSH1 0xE0 SHL PUSH1 0x0 MSTORE PUSH1 0x41 PUSH1 0x4 MSTORE PUSH1 0x24 PUSH1 0x0 REVERT JUMPDEST PUSH1 0x0 DUP1 REVERT INVALID PUSH1 0x80 PUSH1 0x40 SWAP1 DUP1 DUP3 MSTORE PUSH1 0x4 CALLDATASIZE LT ISZERO PUSH2 0x15 JUMPI PUSH1 0x0 DUP1 REVERT JUMPDEST PUSH1 0x0 CALLDATALOAD PUSH1 0xE0 SHR SWAP1 DUP2 PUSH4 0x1FFC9A7 EQ PUSH2 0x19F2 JUMPI POP DUP1 PUSH4 0x6FDDE03 EQ PUSH2 0x1929 JUMPI DUP1 PUSH4 0x81812FC EQ PUSH2 0x1909 JUMPI DUP1 PUSH4 0x95EA7B3 EQ PUSH2 0x18EB JUMPI DUP1 PUSH4 0x1241A45A EQ PUSH2 0x181F JUMPI DUP1 PUSH4 0x23B872DD EQ PUSH2 0x181A JUMPI DUP1 PUSH4 0x42842E0E EQ PUSH2 0x181A JUMPI DUP1 PUSH4 0x4EC794F6 EQ PUSH2 0x1645 JUMPI DUP1 PUSH4 0x57A5893C EQ PUSH2 0x1560 JUMPI DUP1 PUSH4 0x5D1C2634 EQ PUSH2 0x1527 JUMPI DUP1 PUSH4 0x6352211E EQ PUSH2 0x14F6 JUMPI DUP1 PUSH4 0x70A08231 EQ PUSH2 0x1461 JUMPI DUP1 PUSH4 0x715018A6 EQ PUSH2 0x1404 JUMPI DUP1 PUSH4 0x8DA5CB5B EQ PUSH2 0x13DB JUMPI DUP1 PUSH4 0x95D89B41 EQ PUSH2 0x12C9 JUMPI DUP1 PUSH4 0xA22CB465 EQ PUSH2 0x12A0 JUMPI DUP1 PUSH4 0xA6670EBE EQ PUSH2 0x123E JUMPI DUP1 PUSH4 0xB88D4FDE EQ PUSH2 0xFE5 JUMPI DUP1 PUSH4 0xC87B56DD EQ PUSH2 0x222 JUMPI DUP1 PUSH4 0xE985E9C5 EQ PUSH2 0x1D0 JUMPI PUSH4 0xF2FDE38B EQ PUSH2 0x108 JUMPI PUSH1 0x0 DUP1 REVERT JUMPDEST CALLVALUE PUSH2 0x1CB JUMPI PUSH1 0x20 CALLDATASIZE PUSH1 0x3 NOT ADD SLT PUSH2 0x1CB JUMPI PUSH2 0x121 PUSH2 0x1AA5 JUMP JUMPDEST PUSH2 0x129 PUSH2 0x1D28 JUMP JUMPDEST PUSH1 0x1 PUSH1 0x1 PUSH1 0xA0 SHL SUB SWAP1 DUP2 AND SWAP2 DUP3 ISZERO PUSH2 0x179 JUMPI POP PUSH1 0x6 SLOAD DUP3 PUSH1 0x1 PUSH1 0x1 PUSH1 0x60 SHL SUB PUSH1 0xA0 SHL DUP3 AND OR PUSH1 0x6 SSTORE AND PUSH32 0x8BE0079C531659141344CD1FD0A4F28419497F9722A3DAAFE3B4186F6B6457E0 PUSH1 0x0 DUP1 LOG3 STOP JUMPDEST MLOAD PUSH3 0x461BCD PUSH1 0xE5 SHL DUP2 MSTORE PUSH1 0x20 PUSH1 0x4 DUP3 ADD MSTORE PUSH1 0x26 PUSH1 0x24 DUP3 ADD MSTORE PUSH32 0x4F776E61626C653A206E6577206F776E657220697320746865207A65726F2061 PUSH1 0x44 DUP3 ADD MSTORE PUSH6 0x646472657373 PUSH1 0xD0 SHL PUSH1 0x64 DUP3 ADD MSTORE PUSH1 0x84 SWAP1 REVERT JUMPDEST PUSH1 0x0 DUP1 REVERT JUMPDEST POP CALLVALUE PUSH2 0x1CB JUMPI DUP1 PUSH1 0x3 NOT CALLDATASIZE ADD SLT PUSH2 0x1CB JUMPI PUSH1 0x20 SWAP1 PUSH2 0x1EC PUSH2 0x1AA5 JUMP JUMPDEST PUSH2 0x1F4 PUSH2 0x1ABB JUMP JUMPDEST SWAP1 PUSH1 0x1 DUP1 PUSH1 0xA0 SHL SUB DUP1 SWAP2 AND PUSH1 0x0 MSTORE PUSH1 0x5 DUP5 MSTORE DUP3 PUSH1 0x0 KECCAK256 SWAP2 AND PUSH1 0x0 MSTORE DUP3 MSTORE PUSH1 0xFF DUP2 PUSH1 0x0 KECCAK256 SLOAD AND SWAP1 MLOAD SWAP1 ISZERO ISZERO DUP2 MSTORE RETURN JUMPDEST POP CALLVALUE PUSH2 0x1CB JUMPI PUSH1 0x20 CALLDATASIZE PUSH1 0x3 NOT ADD SLT PUSH2 0x1CB JUMPI PUSH2 0x23F PUSH1 0x4 CALLDATALOAD PUSH2 0x1E4D JUMP JUMPDEST ISZERO PUSH2 0xFAB JUMPI PUSH1 0x4 CALLDATALOAD PUSH1 0x0 MSTORE PUSH1 0x9 PUSH1 0x20 MSTORE DUP1 PUSH1 0x0 KECCAK256 SWAP1 DUP1 MLOAD PUSH2 0x25F DUP2 PUSH2 0x1B05 JUMP JUMPDEST DUP3 SLOAD DUP2 MSTORE PUSH1 0x1 DUP4 ADD SLOAD PUSH1 0x20 DUP3 ADD MSTORE PUSH1 0x5 PUSH1 0x2 DUP5 ADD SLOAD SWAP4 DUP4 DUP4 ADD SWAP5 DUP6 MSTORE PUSH1 0x3 DUP2 ADD SLOAD PUSH1 0x60 DUP5 ADD MSTORE PUSH1 0x4 DUP2 ADD SLOAD PUSH1 0x80 DUP5 ADD MSTORE ADD SLOAD PUSH1 0xA0 DUP3 ADD MSTORE PUSH1 0x4 CALLDATALOAD PUSH1 0x0 MSTORE PUSH1 0x9 PUSH1 0x20 MSTORE DUP2 PUSH1 0x0 KECCAK256 SWAP1 DUP3 MLOAD SWAP2 PUSH2 0x2B2 DUP4 PUSH2 0x1B05 JUMP JUMPDEST DUP1 SLOAD DUP4 MSTORE PUSH1 0x1 DUP2 ADD SLOAD PUSH1 0x20 DUP5 ADD SWAP1 DUP2 MSTORE PUSH1 0x2 DUP3 ADD SLOAD DUP6 DUP6 ADD SWAP1 DUP2 MSTORE PUSH1 0x5 PUSH1 0x3 DUP5 ADD SLOAD SWAP4 PUSH1 0x60 DUP8 ADD SWAP5 DUP6 MSTORE PUSH1 0x4 DUP2 ADD SLOAD PUSH1 0x80 DUP9 ADD MSTORE ADD SLOAD PUSH1 0xA0 DUP7 ADD MSTORE PUSH2 0x320 PUSH2 0x319 PUSH2 0x312 PUSH2 0x30B PUSH2 0x304 PUSH1 0x4 CALLDATALOAD PUSH2 0x1EA3 JUMP JUMPDEST SWAP9 MLOAD PUSH2 0x1EA3 JUMP JUMPDEST SWAP5 MLOAD PUSH2 0x1EA3 JUMP JUMPDEST SWAP3 MLOAD PUSH2 0x1EA3 JUMP JUMPDEST SWAP4 MLOAD PUSH2 0x1EA3 JUMP JUMPDEST SWAP2 PUSH1 0x1 PUSH1 0x1 PUSH1 0xA0 SHL SUB PUSH2 0x334 PUSH1 0x4 CALLDATALOAD PUSH2 0x1D02 JUMP JUMPDEST AND SWAP1 DUP8 MLOAD SWAP2 PUSH2 0x342 DUP4 PUSH2 0x1B53 JUMP JUMPDEST PUSH1 0x2A DUP4 MSTORE DUP9 CALLDATASIZE PUSH1 0x20 DUP6 ADD CALLDATACOPY DUP3 MLOAD ISZERO PUSH2 0xF95 JUMPI PUSH1 0x30 PUSH1 0x20 DUP5 ADD MSTORE8 DUP3 MLOAD PUSH1 0x1 LT ISZERO PUSH2 0xF95 JUMPI PUSH1 0x78 PUSH1 0x21 DUP5 ADD MSTORE8 PUSH1 0x29 JUMPDEST PUSH1 0x1 DUP2 GT PUSH2 0xF38 JUMPI POP PUSH2 0xEF5 JUMPI PUSH2 0x5EA PUSH32 0x30302F737667222076696577426F783D223020302034303020353030223E0000 PUSH2 0xE87 SWAP7 PUSH1 0x20 PUSH2 0x138 SWAP8 PUSH2 0xE8C SWAP12 SWAP8 PUSH2 0xEF1 SWAP15 SWAP12 SWAP8 PUSH2 0xC0E SWAP8 DUP16 PUSH2 0x3C3 TIMESTAMP PUSH2 0x1EA3 JUMP JUMPDEST DUP2 MLOAD PUSH32 0x3C73766720786D6C6E733D22687474703A2F2F7777772E77332E6F72672F3230 DUP9 DUP3 ADD MSTORE SWAP2 DUP3 ADD SWAP9 SWAP1 SWAP9 MSTORE PUSH6 0x1E3232B3399F PUSH1 0xD1 SHL PUSH1 0x5E DUP3 ADD MSTORE PUSH7 0x1E39BA3CB6329F PUSH1 0xC9 SHL PUSH1 0x64 DUP3 ADD MSTORE PUSH32 0x74657874207B20666F6E742D66616D696C793A20496E7465722C2073616E732D PUSH1 0x6B DUP3 ADD MSTORE PUSH8 0x73657269663B207D PUSH1 0xC0 SHL PUSH1 0x8B DUP3 ADD MSTORE PUSH32 0x2E7469746C65207B20666F6E742D73697A653A20323470783B20666F6E742D77 PUSH1 0x93 DUP3 ADD MSTORE PUSH32 0x65696768743A203630303B2066696C6C3A20234536454446333B207D00000000 PUSH1 0xB3 DUP3 ADD MSTORE PUSH32 0x2E6C6162656C207B20666F6E742D73697A653A20313270783B20666F6E742D77 PUSH1 0xCF DUP3 ADD MSTORE PUSH32 0x65696768743A203430303B2066696C6C3A20233842393439453B207D00000000 PUSH1 0xEF DUP3 ADD MSTORE PUSH32 0x2E76616C7565207B20666F6E742D73697A653A20313870783B20666F6E742D77 PUSH2 0x10B DUP3 ADD MSTORE PUSH32 0x65696768743A203630303B2066696C6C3A20233246383146373B207D00000000 PUSH2 0x12B DUP3 ADD MSTORE PUSH32 0x2E626F72646572207B207374726F6B653A20233146323933333B207374726F6B PUSH2 0x147 DUP3 ADD MSTORE PUSH32 0x652D77696474683A20323B2066696C6C3A206E6F6E653B207D00000000000000 PUSH2 0x167 DUP3 ADD MSTORE PUSH8 0x1E17B9BA3CB6329F PUSH1 0xC1 SHL PUSH2 0x180 DUP3 ADD MSTORE PUSH7 0x1E17B232B3399F PUSH1 0xC9 SHL PUSH2 0x188 DUP3 ADD MSTORE PUSH32 0x3C726563742077696474683D2234303022206865696768743D22353030222066 PUSH2 0x18F DUP3 ADD MSTORE PUSH32 0x696C6C3D22233042304631342220636C6173733D22626F7264657222202F3E00 PUSH2 0x1AF DUP3 ADD MSTORE PUSH32 0x3C7265637420783D2232302220793D223230222077696474683D223336302220 PUSH2 0x1CE DUP3 ADD MSTORE PUSH32 0x6865696768743D22343630222066696C6C3D226E6F6E652220636C6173733D22 PUSH2 0x1EE DUP3 ADD MSTORE PUSH32 0x626F7264657222207374726F6B653D222331463239333322207374726F6B652D PUSH2 0x20E DUP3 ADD MSTORE PUSH12 0x3BB4B23A341E91189110179F PUSH1 0xA1 SHL PUSH2 0x22E DUP3 ADD MSTORE PUSH32 0x3C7465787420783D223230302220793D2236302220636C6173733D227469746C PUSH2 0x23A DUP3 ADD MSTORE PUSH32 0x652220746578742D616E63686F723D226D6964646C65223E534F4D4E49412050 PUSH2 0x25A DUP3 ADD MSTORE PUSH14 0x20A9A9A827A92A1E17BA32BC3A1F PUSH1 0x91 SHL PUSH2 0x27A DUP3 ADD MSTORE PUSH32 0x3C7465787420783D2232302220793D223132302220636C6173733D226C616265 PUSH2 0x288 DUP3 ADD MSTORE PUSH12 0x36111F24A21E17BA32BC3A1F PUSH1 0xA1 SHL PUSH2 0x2A8 DUP3 ADD MSTORE PUSH32 0x3C7465787420783D2232302220793D223134352220636C6173733D2276616C75 PUSH2 0x2B4 DUP3 ADD MSTORE PUSH4 0x65223E23 PUSH1 0xE0 SHL PUSH2 0x2D4 DUP3 ADD MSTORE DUP12 MLOAD SWAP1 SWAP12 DUP13 SWAP9 SWAP6 PUSH2 0x2D8 SWAP3 SWAP1 SWAP2 PUSH2 0x76D SWAP1 DUP3 SWAP1 DUP6 DUP14 ADD SWAP1 DUP12 ADD PUSH2 0x1A5D JUMP JUMPDEST DUP10 ADD SWAP5 PUSH7 0x1E17BA32BC3A1F PUSH1 0xC9 SHL DUP1 SWAP9 DUP8 DUP3 DUP1 SWAP10 SWAP7 DUP2 SWAP8 ADD MSTORE PUSH32 0x3C6C696E652078313D223230222079313D22313630222078323D223338302220 PUSH2 0x2DF DUP3 ADD MSTORE PUSH32 0x79323D2231363022207374726F6B653D222331463239333322207374726F6B65 PUSH2 0x2FF DUP3 ADD MSTORE PUSH13 0x16BBB4B23A341E91189110179F PUSH1 0x99 SHL SWAP7 DUP8 PUSH2 0x31F DUP4 ADD MSTORE PUSH32 0x3C7465787420783D2232302220793D223230302220636C6173733D226C616265 PUSH2 0x32C DUP4 ADD MSTORE PUSH20 0x36111F2922A82AAA20AA24A7A71E17BA32BC3A1F PUSH1 0x61 SHL PUSH2 0x34C DUP4 ADD MSTORE PUSH32 0x3C7465787420783D2232302220793D223232352220636C6173733D2276616C75 PUSH2 0x360 DUP4 ADD MSTORE DUP4 PUSH3 0x32911F PUSH1 0xE9 SHL SWAP2 DUP3 PUSH2 0x380 DUP6 ADD MSTORE PUSH2 0x383 SWAP4 PUSH2 0x87F DUP3 MLOAD DUP1 SWAP4 DUP9 DUP9 DUP6 ADD SWAP2 ADD PUSH2 0x1A5D JUMP JUMPDEST ADD SWAP3 DUP4 ADD MSTORE PUSH32 0x3C7465787420783D223232302220793D223230302220636C6173733D226C6162 PUSH2 0x38A DUP4 ADD MSTORE PUSH32 0x656C223E4152454E4120504F494E54533C2F746578743E000000000000000000 PUSH2 0x3AA DUP4 ADD MSTORE PUSH32 0x3C7465787420783D223232302220793D223232352220636C6173733D2276616C PUSH2 0x3C1 DUP4 ADD MSTORE DUP4 PUSH4 0x3AB2911F PUSH1 0xE1 SHL SWAP6 DUP7 PUSH2 0x3E1 DUP6 ADD MSTORE PUSH2 0x3E5 SWAP4 PUSH2 0x920 DUP3 MLOAD DUP1 SWAP4 DUP9 DUP9 DUP6 ADD SWAP2 ADD PUSH2 0x1A5D JUMP JUMPDEST ADD SWAP3 DUP4 ADD MSTORE PUSH32 0x3C6C696E652078313D223230222079313D22323430222078323D223338302220 PUSH2 0x3EC DUP4 ADD MSTORE PUSH32 0x79323D2232343022207374726F6B653D222331463239333322207374726F6B65 PUSH2 0x40C DUP4 ADD MSTORE DUP8 PUSH2 0x42C DUP4 ADD MSTORE PUSH32 0x3C7465787420783D2232302220793D223238302220636C6173733D226C616265 PUSH2 0x439 DUP4 ADD MSTORE PUSH14 0x36111F2BA4A7299E17BA32BC3A1F PUSH1 0x91 SHL PUSH2 0x459 DUP4 ADD MSTORE PUSH32 0x3C7465787420783D2232302220793D223330352220636C6173733D2276616C75 PUSH2 0x467 DUP4 ADD MSTORE PUSH2 0x487 DUP3 ADD MSTORE PUSH2 0x9FC PUSH2 0x48A DUP14 DUP2 SWAP15 MLOAD SWAP5 DUP6 SWAP3 DUP6 ADD SWAP2 ADD PUSH2 0x1A5D JUMP JUMPDEST ADD SWAP10 DUP11 ADD MSTORE PUSH32 0x3C7465787420783D223232302220793D223238302220636C6173733D226C6162 PUSH2 0x491 DUP11 ADD MSTORE PUSH32 0x656C223E50415254494349504154494F4E3C2F746578743E0000000000000000 PUSH2 0x4B1 DUP11 ADD MSTORE PUSH32 0x3C7465787420783D223232302220793D223330352220636C6173733D2276616C PUSH2 0x4C9 DUP11 ADD MSTORE PUSH2 0x4E9 DUP10 ADD MSTORE PUSH2 0x4ED SWAP8 PUSH2 0xA93 DUP3 MLOAD DUP1 SWAP4 PUSH1 0x20 DUP13 DUP6 ADD SWAP2 ADD PUSH2 0x1A5D JUMP JUMPDEST ADD SWAP7 DUP8 ADD MSTORE PUSH32 0x3C6C696E652078313D223230222079313D22333230222078323D223338302220 PUSH2 0x4F4 DUP8 ADD MSTORE PUSH32 0x79323D2233323022207374726F6B653D222331463239333322207374726F6B65 PUSH2 0x514 DUP8 ADD MSTORE PUSH2 0x534 DUP7 ADD MSTORE PUSH32 0x3C7465787420783D2232302220793D223336302220636C6173733D226C616265 PUSH2 0x541 DUP7 ADD MSTORE PUSH16 0x36111F2427A62222A91E17BA32BC3A1F PUSH1 0x81 SHL PUSH2 0x561 DUP7 ADD MSTORE PUSH32 0x3C7465787420783D2232302220793D223338332220636C6173733D2276616C75 PUSH2 0x571 DUP7 ADD MSTORE PUSH20 0x3291103337B73A16B9B4BD329E911898B83C111F PUSH1 0x61 SHL PUSH2 0x591 DUP7 ADD MSTORE DUP1 MLOAD PUSH2 0x5A5 SWAP6 SWAP1 SWAP2 PUSH2 0xB8C SWAP1 DUP4 SWAP1 DUP9 DUP5 ADD SWAP1 PUSH1 0x20 ADD PUSH2 0x1A5D JUMP JUMPDEST ADD SWAP4 DUP5 ADD MSTORE PUSH32 0x3C7465787420783D2232302220793D223435302220636C6173733D226C616265 PUSH2 0x5AC DUP5 ADD MSTORE PUSH17 0x36111F2620A9AA102AA82220AA22A21D1 PUSH1 0x7D SHL PUSH2 0x5CC DUP5 ADD MSTORE PUSH2 0x5DD SWAP3 PUSH2 0xBEA DUP3 MLOAD DUP1 SWAP4 PUSH1 0x20 DUP8 DUP6 ADD SWAP2 ADD PUSH2 0x1A5D JUMP JUMPDEST ADD SWAP2 DUP3 ADD MSTORE PUSH6 0x1E17B9BB339F PUSH1 0xD1 SHL PUSH2 0x5E4 DUP3 ADD MSTORE SUB PUSH2 0x5CA DUP2 ADD DUP6 MSTORE ADD DUP4 PUSH2 0x1B6F JUMP JUMPDEST PUSH1 0x7D PUSH1 0xF8 SHL PUSH2 0xC27 PUSH2 0xC21 PUSH1 0x4 CALLDATALOAD PUSH2 0x1EA3 JUMP JUMPDEST SWAP4 PUSH2 0x1FE7 JUMP JUMPDEST SWAP6 PUSH2 0xC32 DUP4 MLOAD PUSH2 0x1EA3 JUMP JUMPDEST SWAP1 PUSH2 0xC50 PUSH1 0x60 PUSH2 0xC48 PUSH2 0x319 PUSH1 0x20 DUP9 ADD MLOAD PUSH2 0x1EA3 JUMP JUMPDEST SWAP6 ADD MLOAD PUSH2 0x1EA3 JUMP JUMPDEST SWAP2 DUP11 MLOAD SWAP9 DUP10 SWAP7 PUSH32 0x7B226E616D65223A22536F6D6E69612050617373706F72742023000000000000 PUSH1 0x20 DUP10 ADD MSTORE PUSH2 0xC90 DUP2 MLOAD DUP1 SWAP3 PUSH1 0x20 PUSH1 0x3A DUP13 ADD SWAP2 ADD PUSH2 0x1A5D JUMP JUMPDEST DUP8 ADD PUSH32 0x222C226465736372697074696F6E223A224F6666696369616C20536F6D6E6961 PUSH1 0x3A DUP3 ADD MSTORE PUSH32 0x204172656E612050617373706F727420546F6B656E222C22696D616765223A22 PUSH1 0x5A DUP3 ADD MSTORE PUSH32 0x646174613A696D6167652F7376672B786D6C3B6261736536342C000000000000 PUSH1 0x7A DUP3 ADD MSTORE PUSH2 0xD18 DUP3 MLOAD DUP1 SWAP4 PUSH1 0x20 PUSH1 0x94 DUP6 ADD SWAP2 ADD PUSH2 0x1A5D JUMP JUMPDEST ADD PUSH16 0x222C2261747472696275746573223A5B PUSH1 0x80 SHL PUSH1 0x94 DUP3 ADD MSTORE PUSH32 0x7B2274726169745F74797065223A2252657075746174696F6E222C2276616C75 PUSH1 0xA4 DUP3 ADD MSTORE PUSH3 0x32911D PUSH1 0xE9 SHL PUSH1 0xC4 DUP3 ADD MSTORE PUSH2 0xD78 DUP3 MLOAD DUP1 SWAP4 PUSH1 0x20 PUSH1 0xC7 DUP6 ADD SWAP2 ADD PUSH2 0x1A5D JUMP JUMPDEST ADD SWAP1 PUSH2 0x1F4B PUSH1 0xF2 SHL SWAP2 DUP3 PUSH1 0xC7 DUP3 ADD MSTORE PUSH32 0x7B2274726169745F74797065223A224172656E6120506F696E7473222C227661 PUSH1 0xC9 DUP3 ADD MSTORE PUSH5 0x363AB2911D PUSH1 0xD9 SHL PUSH1 0xE9 DUP3 ADD MSTORE PUSH2 0xDCF DUP3 MLOAD DUP1 SWAP4 PUSH1 0x20 PUSH1 0xEE DUP6 ADD SWAP2 ADD PUSH2 0x1A5D JUMP JUMPDEST ADD SWAP4 DUP2 PUSH1 0xEE DUP7 ADD MSTORE PUSH32 0x7B2274726169745F74797065223A2257696E73222C2276616C7565223A000000 PUSH1 0xF0 DUP7 ADD MSTORE PUSH2 0x10D SWAP5 PUSH2 0xE14 DUP3 MLOAD DUP1 SWAP4 PUSH1 0x20 DUP10 DUP6 ADD SWAP2 ADD PUSH2 0x1A5D JUMP JUMPDEST ADD SWAP4 DUP5 ADD MSTORE PUSH32 0x7B2274726169745F74797065223A2250617274696369706174696F6E222C2276 PUSH2 0x10F DUP5 ADD MSTORE PUSH6 0x30B63AB2911D PUSH1 0xD1 SHL PUSH2 0x12F DUP5 ADD MSTORE PUSH2 0x135 SWAP3 PUSH2 0xE67 DUP3 MLOAD DUP1 SWAP4 PUSH1 0x20 DUP8 DUP6 ADD SWAP2 ADD PUSH2 0x1A5D JUMP JUMPDEST ADD SWAP2 DUP3 ADD MSTORE PUSH2 0x5D7D PUSH1 0xF0 SHL PUSH2 0x136 DUP3 ADD MSTORE SUB PUSH2 0x118 DUP2 ADD DUP5 MSTORE ADD DUP3 PUSH2 0x1B6F JUMP JUMPDEST PUSH2 0x1FE7 JUMP JUMPDEST SWAP1 PUSH2 0xEDF PUSH1 0x3D DUP3 MLOAD DUP1 SWAP5 PUSH32 0x646174613A6170706C69636174696F6E2F6A736F6E3B6261736536342C000000 PUSH1 0x20 DUP4 ADD MSTORE PUSH2 0xECF DUP2 MLOAD DUP1 SWAP3 PUSH1 0x20 DUP7 DUP7 ADD SWAP2 ADD PUSH2 0x1A5D JUMP JUMPDEST DUP2 ADD SUB PUSH1 0x1D DUP2 ADD DUP6 MSTORE ADD DUP4 PUSH2 0x1B6F JUMP JUMPDEST MLOAD SWAP2 DUP3 SWAP2 PUSH1 0x20 DUP4 MSTORE PUSH1 0x20 DUP4 ADD SWAP1 PUSH2 0x1A80 JUMP JUMPDEST SUB SWAP1 RETURN JUMPDEST PUSH1 0x64 DUP9 MLOAD PUSH3 0x461BCD PUSH1 0xE5 SHL DUP2 MSTORE PUSH1 0x20 PUSH1 0x4 DUP3 ADD MSTORE PUSH1 0x20 PUSH1 0x24 DUP3 ADD MSTORE PUSH32 0x537472696E67733A20686578206C656E67746820696E73756666696369656E74 PUSH1 0x44 DUP3 ADD MSTORE REVERT JUMPDEST SWAP1 PUSH1 0xF DUP2 AND PUSH1 0x10 DUP2 LT ISZERO PUSH2 0xF95 JUMPI DUP5 MLOAD DUP4 LT ISZERO PUSH2 0xF95 JUMPI PUSH16 0x181899199A1A9B1B9C1CB0B131B232B3 PUSH1 0x81 SHL SWAP1 BYTE DUP5 DUP4 ADD PUSH1 0x20 ADD MSTORE8 PUSH1 0x4 SHR SWAP1 DUP1 ISZERO PUSH2 0xF7F JUMPI PUSH1 0x0 NOT ADD PUSH2 0x36F JUMP JUMPDEST PUSH4 0x4E487B71 PUSH1 0xE0 SHL PUSH1 0x0 MSTORE PUSH1 0x11 PUSH1 0x4 MSTORE PUSH1 0x24 PUSH1 0x0 REVERT JUMPDEST PUSH4 0x4E487B71 PUSH1 0xE0 SHL PUSH1 0x0 MSTORE PUSH1 0x32 PUSH1 0x4 MSTORE PUSH1 0x24 PUSH1 0x0 REVERT JUMPDEST MLOAD PUSH3 0x461BCD PUSH1 0xE5 SHL DUP2 MSTORE PUSH1 0x20 PUSH1 0x4 DUP3 ADD MSTORE PUSH1 0x14 PUSH1 0x24 DUP3 ADD MSTORE PUSH20 0x151BDAD95B88191BD95CC81B9BDD08195E1A5CDD PUSH1 0x62 SHL PUSH1 0x44 DUP3 ADD MSTORE PUSH1 0x64 SWAP1 REVERT JUMPDEST POP CALLVALUE PUSH2 0x1CB JUMPI PUSH1 0x80 CALLDATASIZE PUSH1 0x3 NOT ADD SLT PUSH2 0x1CB JUMPI PUSH2 0xFFF PUSH2 0x1AA5 JUMP JUMPDEST PUSH2 0x1007 PUSH2 0x1ABB JUMP JUMPDEST PUSH1 0x44 CALLDATALOAD SWAP1 PUSH1 0x64 CALLDATALOAD SWAP3 PUSH8 0xFFFFFFFFFFFFFFFF DUP5 GT PUSH2 0x1CB JUMPI CALLDATASIZE PUSH1 0x23 DUP6 ADD SLT ISZERO PUSH2 0x1CB JUMPI DUP4 PUSH1 0x4 ADD CALLDATALOAD SWAP4 PUSH2 0x1038 DUP6 PUSH2 0x1B91 JUMP JUMPDEST SWAP5 PUSH2 0x1045 DUP8 MLOAD SWAP7 DUP8 PUSH2 0x1B6F JUMP JUMPDEST DUP1 DUP7 MSTORE PUSH1 0x20 SWAP2 CALLDATASIZE PUSH1 0x24 DUP4 DUP4 ADD ADD GT PUSH2 0x1CB JUMPI DUP2 PUSH1 0x0 SWAP3 PUSH1 0x24 DUP6 SWAP4 ADD DUP4 DUP11 ADD CALLDATACOPY DUP8 ADD ADD MSTORE PUSH1 0x1 PUSH1 0x1 PUSH1 0xA0 SHL SUB SWAP1 DUP2 PUSH2 0x107B DUP7 PUSH2 0x1D02 JUMP JUMPDEST AND DUP1 CALLER EQ SWAP1 DUP2 ISZERO PUSH2 0x121D JUMPI JUMPDEST POP DUP1 ISZERO PUSH2 0x120A JUMPI JUMPDEST ISZERO PUSH2 0x11B1 JUMPI DUP2 SWAP1 PUSH2 0x10AE PUSH2 0x10A2 DUP8 PUSH2 0x1D02 JUMP JUMPDEST DUP6 DUP5 AND SWAP4 AND DUP4 EQ PUSH2 0x2144 JUMP JUMPDEST DUP3 DUP6 AND SWAP3 DUP4 ISZERO PUSH2 0x1161 JUMPI SWAP2 DUP4 SWAP2 DUP8 SWAP7 SWAP6 SWAP5 PUSH2 0x115F SWAP11 PUSH2 0x10DD DUP5 DUP11 SWAP8 PUSH2 0x10D6 PUSH2 0x115A SWAP15 SWAP14 PUSH2 0x1D02 JUMP JUMPDEST AND EQ PUSH2 0x2144 JUMP JUMPDEST DUP6 PUSH1 0x0 MSTORE PUSH1 0x4 DUP4 MSTORE PUSH1 0x2 DUP2 PUSH1 0x0 KECCAK256 SWAP4 PUSH1 0x1 PUSH1 0x1 PUSH1 0x60 SHL SUB PUSH1 0xA0 SHL SWAP5 DUP6 DUP2 SLOAD AND SWAP1 SSTORE DUP6 PUSH1 0x0 MSTORE PUSH1 0x3 DUP2 MSTORE DUP3 PUSH1 0x0 KECCAK256 PUSH1 0x0 NOT DUP2 SLOAD ADD SWAP1 SSTORE DUP4 PUSH1 0x0 MSTORE DUP3 PUSH1 0x0 KECCAK256 PUSH1 0x1 DUP2 SLOAD ADD SWAP1 SSTORE DUP8 PUSH1 0x0 MSTORE MSTORE PUSH1 0x0 KECCAK256 SWAP2 DUP3 SLOAD AND OR SWAP1 SSTORE PUSH32 0xDDF252AD1BE2C89B69C2B068FC378DAA952BA7F163C4A11628F55A4DF523B3EF PUSH1 0x0 DUP1 LOG4 PUSH2 0x22BC JUMP JUMPDEST PUSH2 0x1E29 JUMP JUMPDEST STOP JUMPDEST DUP9 MLOAD PUSH3 0x461BCD PUSH1 0xE5 SHL DUP2 MSTORE PUSH1 0x4 DUP2 ADD DUP4 SWAP1 MSTORE PUSH1 0x24 DUP1 DUP3 ADD MSTORE PUSH32 0x4552433732313A207472616E7366657220746F20746865207A65726F20616464 PUSH1 0x44 DUP3 ADD MSTORE PUSH4 0x72657373 PUSH1 0xE0 SHL PUSH1 0x64 DUP3 ADD MSTORE PUSH1 0x84 SWAP1 REVERT JUMPDEST PUSH1 0x84 SWAP1 DUP8 MLOAD SWAP1 PUSH3 0x461BCD PUSH1 0xE5 SHL DUP3 MSTORE PUSH1 0x4 DUP3 ADD MSTORE PUSH1 0x2D PUSH1 0x24 DUP3 ADD MSTORE PUSH32 0x4552433732313A2063616C6C6572206973206E6F7420746F6B656E206F776E65 PUSH1 0x44 DUP3 ADD MSTORE PUSH13 0x1C881BDC88185C1C1C9BDD9959 PUSH1 0x9A SHL PUSH1 0x64 DUP3 ADD MSTORE REVERT JUMPDEST POP CALLER DUP3 PUSH2 0x1216 DUP8 PUSH2 0x1BAD JUMP JUMPDEST AND EQ PUSH2 0x108F JUMP JUMPDEST SWAP1 POP PUSH1 0x0 MSTORE PUSH1 0x5 DUP2 MSTORE DUP7 PUSH1 0x0 KECCAK256 CALLER PUSH1 0x0 MSTORE DUP2 MSTORE PUSH1 0xFF DUP8 PUSH1 0x0 KECCAK256 SLOAD AND CODESIZE PUSH2 0x1087 JUMP JUMPDEST POP CALLVALUE PUSH2 0x1CB JUMPI PUSH1 0x20 CALLDATASIZE PUSH1 0x3 NOT ADD SLT PUSH2 0x1CB JUMPI PUSH1 0xC0 SWAP1 PUSH1 0x4 CALLDATALOAD PUSH1 0x0 MSTORE PUSH1 0x9 PUSH1 0x20 MSTORE DUP1 PUSH1 0x0 KECCAK256 SWAP1 DUP2 SLOAD SWAP2 PUSH1 0x1 DUP2 ADD SLOAD SWAP2 PUSH1 0x2 DUP3 ADD SLOAD PUSH1 0x3 DUP4 ADD SLOAD SWAP2 PUSH1 0x5 PUSH1 0x4 DUP6 ADD SLOAD SWAP5 ADD SLOAD SWAP5 DUP2 MLOAD SWAP7 DUP8 MSTORE PUSH1 0x20 DUP8 ADD MSTORE DUP6 ADD MSTORE PUSH1 0x60 DUP5 ADD MSTORE PUSH1 0x80 DUP4 ADD MSTORE PUSH1 0xA0 DUP3 ADD MSTORE RETURN JUMPDEST POP CALLVALUE PUSH2 0x1CB JUMPI CALLDATASIZE PUSH1 0x3 NOT ADD SLT PUSH2 0x1CB JUMPI PUSH2 0x12B8 PUSH2 0x1AA5 JUMP JUMPDEST POP PUSH1 0x24 CALLDATALOAD DUP1 ISZERO ISZERO EQ PUSH2 0x1BD9 JUMPI PUSH1 0x0 DUP1 REVERT JUMPDEST POP CALLVALUE PUSH2 0x1CB JUMPI PUSH1 0x0 CALLDATASIZE PUSH1 0x3 NOT ADD SLT PUSH2 0x1CB JUMPI DUP1 MLOAD SWAP1 PUSH1 0x0 SWAP1 PUSH1 0x1 DUP1 SLOAD SWAP3 DUP4 PUSH1 0x1 SHR PUSH1 0x1 DUP6 AND SWAP3 DUP4 ISZERO PUSH2 0x13D1 JUMPI JUMPDEST PUSH1 0x20 SWAP6 DUP7 DUP4 LT DUP6 EQ PUSH2 0x13BB JUMPI DUP7 DUP9 SWAP6 DUP5 DUP8 MSTORE SWAP2 DUP3 PUSH1 0x0 EQ PUSH2 0x1399 JUMPI POP POP PUSH1 0x1 EQ PUSH2 0x133C JUMPI JUMPDEST POP POP PUSH2 0xEF1 SWAP3 SWAP2 PUSH2 0x132D SWAP2 SUB DUP6 PUSH2 0x1B6F JUMP JUMPDEST MLOAD SWAP3 DUP3 DUP5 SWAP4 DUP5 MSTORE DUP4 ADD SWAP1 PUSH2 0x1A80 JUMP JUMPDEST SWAP1 DUP6 SWAP3 POP PUSH1 0x1 PUSH1 0x0 MSTORE PUSH32 0xB10E2D527612073B26EECDFD717E6A320CF44B4AFAC2B0732D9FCBE2B7FA0CF6 SWAP2 PUSH1 0x0 SWAP3 JUMPDEST DUP3 DUP5 LT PUSH2 0x1381 JUMPI POP POP POP DUP3 ADD ADD DUP2 PUSH2 0x132D PUSH2 0x131B JUMP JUMPDEST DUP1 SLOAD DUP5 DUP11 ADD DUP7 ADD MSTORE DUP9 SWAP6 POP DUP8 SWAP5 SWAP1 SWAP4 ADD SWAP3 DUP2 ADD PUSH2 0x136B JUMP JUMPDEST PUSH1 0xFF NOT AND DUP7 DUP3 ADD MSTORE SWAP3 ISZERO ISZERO PUSH1 0x5 SHL DUP6 ADD SWAP1 SWAP3 ADD SWAP3 POP DUP4 SWAP2 POP PUSH2 0x132D SWAP1 POP PUSH2 0x131B JUMP JUMPDEST PUSH4 0x4E487B71 PUSH1 0xE0 SHL PUSH1 0x0 MSTORE PUSH1 0x22 PUSH1 0x4 MSTORE PUSH1 0x24 PUSH1 0x0 REVERT JUMPDEST SWAP1 PUSH1 0x7F AND SWAP1 PUSH2 0x12F6 JUMP JUMPDEST POP CALLVALUE PUSH2 0x1CB JUMPI PUSH1 0x0 CALLDATASIZE PUSH1 0x3 NOT ADD SLT PUSH2 0x1CB JUMPI PUSH1 0x6 SLOAD SWAP1 MLOAD PUSH1 0x1 PUSH1 0x1 PUSH1 0xA0 SHL SUB SWAP1 SWAP2 AND DUP2 MSTORE PUSH1 0x20 SWAP1 RETURN JUMPDEST CALLVALUE PUSH2 0x1CB JUMPI PUSH1 0x0 CALLDATASIZE PUSH1 0x3 NOT ADD SLT PUSH2 0x1CB JUMPI PUSH2 0x141D PUSH2 0x1D28 JUMP JUMPDEST PUSH1 0x6 DUP1 SLOAD PUSH1 0x1 PUSH1 0x1 PUSH1 0xA0 SHL SUB NOT DUP2 AND SWAP1 SWAP2 SSTORE PUSH1 0x0 SWAP1 PUSH1 0x1 PUSH1 0x1 PUSH1 0xA0 SHL SUB AND PUSH32 0x8BE0079C531659141344CD1FD0A4F28419497F9722A3DAAFE3B4186F6B6457E0 DUP3 DUP1 LOG3 STOP JUMPDEST POP CALLVALUE PUSH2 0x1CB JUMPI PUSH1 0x20 CALLDATASIZE PUSH1 0x3 NOT ADD SLT PUSH2 0x1CB JUMPI PUSH1 0x1 PUSH1 0x1 PUSH1 0xA0 SHL SUB PUSH2 0x1483 PUSH2 0x1AA5 JUMP JUMPDEST AND SWAP1 DUP2 ISZERO PUSH2 0x14A1 JUMPI PUSH1 0x20 SWAP2 PUSH1 0x0 MSTORE PUSH1 0x3 DUP3 MSTORE DUP1 PUSH1 0x0 KECCAK256 SLOAD SWAP1 MLOAD SWAP1 DUP2 MSTORE RETURN JUMPDEST MLOAD PUSH3 0x461BCD PUSH1 0xE5 SHL DUP2 MSTORE PUSH1 0x20 PUSH1 0x4 DUP3 ADD MSTORE PUSH1 0x29 PUSH1 0x24 DUP3 ADD MSTORE PUSH32 0x4552433732313A2061646472657373207A65726F206973206E6F742061207661 PUSH1 0x44 DUP3 ADD MSTORE PUSH9 0x3634B21037BBB732B9 PUSH1 0xB9 SHL PUSH1 0x64 DUP3 ADD MSTORE PUSH1 0x84 SWAP1 REVERT JUMPDEST POP CALLVALUE PUSH2 0x1CB JUMPI PUSH1 0x20 CALLDATASIZE PUSH1 0x3 NOT ADD SLT PUSH2 0x1CB JUMPI PUSH1 0x20 SWAP1 PUSH2 0x1516 PUSH1 0x4 CALLDATALOAD PUSH2 0x1D02 JUMP JUMPDEST SWAP1 MLOAD PUSH1 0x1 PUSH1 0x1 PUSH1 0xA0 SHL SUB SWAP1 SWAP2 AND DUP2 MSTORE RETURN JUMPDEST POP CALLVALUE PUSH2 0x1CB JUMPI PUSH1 0x20 CALLDATASIZE PUSH1 0x3 NOT ADD SLT PUSH2 0x1CB JUMPI PUSH1 0x20 SWAP1 PUSH1 0x1 PUSH1 0x1 PUSH1 0xA0 SHL SUB PUSH2 0x154C PUSH2 0x1AA5 JUMP JUMPDEST AND PUSH1 0x0 MSTORE PUSH1 0x8 DUP3 MSTORE DUP1 PUSH1 0x0 KECCAK256 SLOAD SWAP1 MLOAD SWAP1 DUP2 MSTORE RETURN JUMPDEST POP CALLVALUE PUSH2 0x1CB JUMPI PUSH1 0x20 SWAP1 DUP2 PUSH1 0x3 NOT CALLDATASIZE ADD SLT PUSH2 0x1CB JUMPI PUSH1 0xC0 SWAP2 PUSH2 0x157F PUSH2 0x1AA5 JUMP JUMPDEST PUSH1 0x0 PUSH1 0xA0 DUP5 MLOAD PUSH2 0x158E DUP2 PUSH2 0x1B05 JUMP JUMPDEST DUP3 DUP2 MSTORE DUP3 DUP6 DUP3 ADD MSTORE DUP3 DUP7 DUP3 ADD MSTORE DUP3 PUSH1 0x60 DUP3 ADD MSTORE DUP3 PUSH1 0x80 DUP3 ADD MSTORE ADD MSTORE PUSH1 0x1 DUP1 PUSH1 0xA0 SHL SUB AND PUSH1 0x0 MSTORE PUSH1 0x8 DUP2 MSTORE DUP2 PUSH1 0x0 KECCAK256 SLOAD PUSH2 0x15C8 DUP2 ISZERO ISZERO PUSH2 0x1C74 JUMP JUMPDEST PUSH1 0x0 MSTORE PUSH1 0x9 DUP2 MSTORE DUP2 PUSH1 0x0 KECCAK256 DUP3 MLOAD SWAP2 PUSH2 0x15DF DUP4 PUSH2 0x1B05 JUMP JUMPDEST DUP2 SLOAD SWAP4 DUP5 DUP5 MSTORE PUSH1 0x1 DUP4 ADD SLOAD SWAP2 DUP1 DUP6 ADD SWAP3 DUP4 MSTORE PUSH1 0x2 DUP5 ADD SLOAD SWAP1 DUP3 DUP7 ADD SWAP2 DUP3 MSTORE PUSH1 0x3 DUP6 ADD SLOAD SWAP4 PUSH1 0x60 DUP8 ADD SWAP5 DUP6 MSTORE PUSH1 0xA0 PUSH1 0x5 PUSH1 0x4 DUP9 ADD SLOAD SWAP8 PUSH1 0x80 DUP11 ADD SWAP9 DUP10 MSTORE ADD SLOAD SWAP8 ADD SWAP7 DUP8 MSTORE DUP4 MLOAD SWAP8 DUP9 MSTORE MLOAD SWAP1 DUP8 ADD MSTORE MLOAD SWAP1 DUP6 ADD MSTORE MLOAD PUSH1 0x60 DUP5 ADD MSTORE MLOAD PUSH1 0x80 DUP4 ADD MSTORE MLOAD PUSH1 0xA0 DUP3 ADD MSTORE RETURN JUMPDEST POP CALLVALUE PUSH2 0x1CB JUMPI PUSH1 0x0 CALLDATASIZE PUSH1 0x3 NOT ADD SLT PUSH2 0x1CB JUMPI PUSH2 0x165F PUSH2 0x1D80 JUMP JUMPDEST CALLER ISZERO PUSH2 0x166B DUP2 ISZERO PUSH2 0x1C36 JUMP JUMPDEST CALLER PUSH1 0x0 MSTORE PUSH1 0x20 SWAP2 PUSH1 0x8 DUP4 MSTORE DUP1 PUSH1 0x0 KECCAK256 SLOAD PUSH2 0x17D7 JUMPI PUSH1 0xA SLOAD SWAP3 PUSH1 0x1 DUP5 ADD DUP1 DUP6 GT PUSH2 0xF7F JUMPI PUSH1 0xA SSTORE CALLER PUSH1 0x0 MSTORE PUSH1 0x8 DUP2 MSTORE DUP4 DUP3 PUSH1 0x0 KECCAK256 SSTORE DUP4 PUSH1 0x0 MSTORE PUSH1 0x9 DUP2 MSTORE DUP2 PUSH1 0x0 KECCAK256 PUSH1 0x0 DUP2 SSTORE PUSH1 0x0 PUSH1 0x1 DUP3 ADD SSTORE PUSH1 0x0 PUSH1 0x2 DUP3 ADD SSTORE PUSH1 0x0 PUSH1 0x3 DUP3 ADD SSTORE TIMESTAMP PUSH1 0x4 DUP3 ADD SSTORE PUSH1 0x5 TIMESTAMP SWAP2 ADD SSTORE DUP2 MLOAD SWAP3 PUSH2 0x16DC DUP5 PUSH2 0x1B37 JUMP JUMPDEST PUSH1 0x0 DUP5 MSTORE PUSH2 0x1796 JUMPI SWAP2 PUSH2 0x115A SWAP2 PUSH1 0x2 PUSH2 0x1769 SWAP5 PUSH2 0x1701 PUSH2 0x16FB DUP9 PUSH2 0x1E4D JUMP JUMPDEST ISZERO PUSH2 0x2345 JUMP JUMPDEST PUSH2 0x170D PUSH2 0x16FB DUP9 PUSH2 0x1E4D JUMP JUMPDEST CALLER PUSH1 0x0 MSTORE PUSH1 0x3 DUP2 MSTORE DUP3 PUSH1 0x0 KECCAK256 PUSH1 0x1 DUP2 SLOAD ADD SWAP1 SSTORE DUP7 PUSH1 0x0 MSTORE MSTORE PUSH1 0x0 KECCAK256 CALLER PUSH1 0x1 PUSH1 0x1 PUSH1 0x60 SHL SUB PUSH1 0xA0 SHL DUP3 SLOAD AND OR SWAP1 SSTORE DUP4 CALLER PUSH1 0x0 PUSH32 0xDDF252AD1BE2C89B69C2B068FC378DAA952BA7F163C4A11628F55A4DF523B3EF DUP2 DUP1 LOG4 DUP4 CALLER PUSH2 0x219E JUMP JUMPDEST CALLER PUSH32 0x2CF689E09CB05E7E71BE603090DF76EF66FDFD5F723F4086DD4B3D6EEE5C43D9 PUSH1 0x0 DUP1 LOG3 PUSH1 0x1 PUSH1 0x7 SSTORE STOP JUMPDEST PUSH1 0x64 SWAP2 MLOAD SWAP1 PUSH3 0x461BCD PUSH1 0xE5 SHL DUP3 MSTORE DUP1 PUSH1 0x4 DUP4 ADD MSTORE PUSH1 0x24 DUP3 ADD MSTORE PUSH32 0x4552433732313A206D696E7420746F20746865207A65726F2061646472657373 PUSH1 0x44 DUP3 ADD MSTORE REVERT JUMPDEST MLOAD PUSH3 0x461BCD PUSH1 0xE5 SHL DUP2 MSTORE PUSH1 0x4 DUP2 ADD DUP4 SWAP1 MSTORE PUSH1 0x17 PUSH1 0x24 DUP3 ADD MSTORE PUSH32 0x50617373706F727420616C7265616479206D696E746564000000000000000000 PUSH1 0x44 DUP3 ADD MSTORE PUSH1 0x64 SWAP1 REVERT JUMPDEST PUSH2 0x1AD1 JUMP JUMPDEST POP CALLVALUE PUSH2 0x1CB JUMPI PUSH1 0xA0 CALLDATASIZE PUSH1 0x3 NOT ADD SLT PUSH2 0x1CB JUMPI PUSH32 0xFB0AA002B87C357B223B2A678C06C1E17D601F29E4286CB003D5489356AE8EA0 PUSH1 0x80 PUSH2 0x185C PUSH2 0x1AA5 JUMP JUMPDEST PUSH1 0x24 CALLDATALOAD SWAP1 PUSH1 0x44 CALLDATALOAD SWAP5 PUSH1 0x64 CALLDATALOAD SWAP1 PUSH1 0x84 CALLDATALOAD SWAP3 PUSH2 0x1874 PUSH2 0x1D28 JUMP JUMPDEST PUSH2 0x187C PUSH2 0x1D80 JUMP JUMPDEST PUSH1 0x1 PUSH1 0x1 PUSH1 0xA0 SHL SUB AND SWAP7 PUSH2 0x1891 DUP9 ISZERO ISZERO PUSH2 0x1C36 JUMP JUMPDEST DUP8 PUSH1 0x0 MSTORE PUSH1 0x8 PUSH1 0x20 MSTORE DUP2 PUSH1 0x0 KECCAK256 SLOAD PUSH2 0x18AA DUP2 ISZERO ISZERO PUSH2 0x1C74 JUMP JUMPDEST PUSH1 0x0 MSTORE PUSH1 0x9 PUSH1 0x20 MSTORE DUP2 PUSH1 0x0 KECCAK256 DUP6 DUP2 SSTORE DUP2 PUSH1 0x1 DUP3 ADD SSTORE DUP4 PUSH1 0x2 DUP3 ADD SSTORE DUP5 PUSH1 0x3 DUP3 ADD SSTORE PUSH1 0x5 TIMESTAMP SWAP2 ADD SSTORE DUP2 MLOAD SWAP5 DUP6 MSTORE PUSH1 0x20 DUP6 ADD MSTORE DUP4 ADD MSTORE PUSH1 0x60 DUP3 ADD MSTORE LOG2 PUSH1 0x1 PUSH1 0x7 SSTORE STOP JUMPDEST POP CALLVALUE PUSH2 0x1CB JUMPI CALLDATASIZE PUSH1 0x3 NOT ADD SLT PUSH2 0x1CB JUMPI PUSH2 0x1903 PUSH2 0x1AA5 JUMP JUMPDEST POP PUSH2 0x1BD9 JUMP JUMPDEST POP CALLVALUE PUSH2 0x1CB JUMPI PUSH1 0x20 CALLDATASIZE PUSH1 0x3 NOT ADD SLT PUSH2 0x1CB JUMPI PUSH1 0x20 SWAP1 PUSH2 0x1516 PUSH1 0x4 CALLDATALOAD PUSH2 0x1BAD JUMP JUMPDEST POP CALLVALUE PUSH2 0x1CB JUMPI PUSH1 0x0 CALLDATASIZE PUSH1 0x3 NOT ADD SLT PUSH2 0x1CB JUMPI DUP1 MLOAD SWAP1 PUSH1 0x0 SWAP1 PUSH1 0x0 SLOAD SWAP2 PUSH1 0x1 SWAP1 DUP4 PUSH1 0x1 SHR PUSH1 0x1 DUP6 AND SWAP3 DUP4 ISZERO PUSH2 0x19E8 JUMPI JUMPDEST PUSH1 0x20 SWAP6 DUP7 DUP4 LT DUP6 EQ PUSH2 0x13BB JUMPI DUP7 DUP9 SWAP6 DUP5 DUP8 MSTORE SWAP2 DUP3 PUSH1 0x0 EQ PUSH2 0x1399 JUMPI POP POP PUSH1 0x1 EQ PUSH2 0x198E JUMPI POP POP PUSH2 0xEF1 SWAP3 SWAP2 PUSH2 0x132D SWAP2 SUB DUP6 PUSH2 0x1B6F JUMP JUMPDEST PUSH1 0x0 DUP1 DUP1 MSTORE DUP7 SWAP4 POP SWAP2 SWAP1 PUSH32 0x290DECD9548B62A8D60345A988386FC84BA6BC95484008F6362F93160EF3E563 JUMPDEST DUP3 DUP5 LT PUSH2 0x19D0 JUMPI POP POP POP DUP3 ADD ADD DUP2 PUSH2 0x132D PUSH2 0x131B JUMP JUMPDEST DUP1 SLOAD DUP5 DUP11 ADD DUP7 ADD MSTORE DUP9 SWAP6 POP DUP8 SWAP5 SWAP1 SWAP4 ADD SWAP3 DUP2 ADD PUSH2 0x19BA JUMP JUMPDEST SWAP1 PUSH1 0x7F AND SWAP1 PUSH2 0x1958 JUMP JUMPDEST CALLVALUE PUSH2 0x1CB JUMPI PUSH1 0x20 CALLDATASIZE PUSH1 0x3 NOT ADD SLT PUSH2 0x1CB JUMPI PUSH1 0x4 CALLDATALOAD SWAP1 PUSH4 0xFFFFFFFF PUSH1 0xE0 SHL DUP3 AND DUP1 SWAP3 SUB PUSH2 0x1CB JUMPI PUSH1 0x20 SWAP2 PUSH4 0x80AC58CD PUSH1 0xE0 SHL DUP2 EQ SWAP1 DUP2 ISZERO PUSH2 0x1A4C JUMPI JUMPDEST DUP2 ISZERO PUSH2 0x1A3B JUMPI JUMPDEST POP ISZERO ISZERO DUP2 MSTORE RETURN JUMPDEST PUSH4 0x1FFC9A7 PUSH1 0xE0 SHL EQ SWAP1 POP DUP4 PUSH2 0x1A34 JUMP JUMPDEST PUSH4 0x5B5E139F PUSH1 0xE0 SHL DUP2 EQ SWAP2 POP PUSH2 0x1A2D JUMP JUMPDEST PUSH1 0x0 JUMPDEST DUP4 DUP2 LT PUSH2 0x1A70 JUMPI POP POP PUSH1 0x0 SWAP2 ADD MSTORE JUMP JUMPDEST DUP2 DUP2 ADD MLOAD DUP4 DUP3 ADD MSTORE PUSH1 0x20 ADD PUSH2 0x1A60 JUMP JUMPDEST SWAP1 PUSH1 0x20 SWAP2 PUSH2 0x1A99 DUP2 MLOAD DUP1 SWAP3 DUP2 DUP6 MSTORE DUP6 DUP1 DUP7 ADD SWAP2 ADD PUSH2 0x1A5D JUMP JUMPDEST PUSH1 0x1F ADD PUSH1 0x1F NOT AND ADD ADD SWAP1 JUMP JUMPDEST PUSH1 0x4 CALLDATALOAD SWAP1 PUSH1 0x1 PUSH1 0x1 PUSH1 0xA0 SHL SUB DUP3 AND DUP3 SUB PUSH2 0x1CB JUMPI JUMP JUMPDEST PUSH1 0x24 CALLDATALOAD SWAP1 PUSH1 0x1 PUSH1 0x1 PUSH1 0xA0 SHL SUB DUP3 AND DUP3 SUB PUSH2 0x1CB JUMPI JUMP JUMPDEST CALLVALUE PUSH2 0x1CB JUMPI PUSH1 0x60 CALLDATASIZE PUSH1 0x3 NOT ADD SLT PUSH2 0x1CB JUMPI PUSH1 0x1 PUSH1 0x1 PUSH1 0xA0 SHL SUB PUSH1 0x4 CALLDATALOAD DUP2 DUP2 AND SUB PUSH2 0x1CB JUMPI PUSH1 0x24 CALLDATALOAD SWAP1 DUP2 AND EQ PUSH2 0x1BD9 JUMPI PUSH1 0x0 DUP1 REVERT JUMPDEST PUSH1 0xC0 DUP2 ADD SWAP1 DUP2 LT PUSH8 0xFFFFFFFFFFFFFFFF DUP3 GT OR PUSH2 0x1B21 JUMPI PUSH1 0x40 MSTORE JUMP JUMPDEST PUSH4 0x4E487B71 PUSH1 0xE0 SHL PUSH1 0x0 MSTORE PUSH1 0x41 PUSH1 0x4 MSTORE PUSH1 0x24 PUSH1 0x0 REVERT JUMPDEST PUSH1 0x20 DUP2 ADD SWAP1 DUP2 LT PUSH8 0xFFFFFFFFFFFFFFFF DUP3 GT OR PUSH2 0x1B21 JUMPI PUSH1 0x40 MSTORE JUMP JUMPDEST PUSH1 0x60 DUP2 ADD SWAP1 DUP2 LT PUSH8 0xFFFFFFFFFFFFFFFF DUP3 GT OR PUSH2 0x1B21 JUMPI PUSH1 0x40 MSTORE JUMP JUMPDEST SWAP1 PUSH1 0x1F DUP1 NOT SWAP2 ADD AND DUP2 ADD SWAP1 DUP2 LT PUSH8 0xFFFFFFFFFFFFFFFF DUP3 GT OR PUSH2 0x1B21 JUMPI PUSH1 0x40 MSTORE JUMP JUMPDEST PUSH8 0xFFFFFFFFFFFFFFFF DUP2 GT PUSH2 0x1B21 JUMPI PUSH1 0x1F ADD PUSH1 0x1F NOT AND PUSH1 0x20 ADD SWAP1 JUMP JUMPDEST PUSH2 0x1BBE PUSH2 0x1BB9 DUP3 PUSH2 0x1E4D JUMP JUMPDEST PUSH2 0x1CB6 JUMP JUMPDEST PUSH1 0x0 SWAP1 DUP2 MSTORE PUSH1 0x4 PUSH1 0x20 MSTORE PUSH1 0x40 SWAP1 KECCAK256 SLOAD PUSH1 0x1 PUSH1 0x1 PUSH1 0xA0 SHL SUB AND SWAP1 JUMP JUMPDEST PUSH1 0x40 MLOAD PUSH3 0x461BCD PUSH1 0xE5 SHL DUP2 MSTORE PUSH1 0x20 PUSH1 0x4 DUP3 ADD MSTORE PUSH1 0x2F PUSH1 0x24 DUP3 ADD MSTORE PUSH32 0x50617373706F727420697320736F756C626F756E6420616E642063616E6E6F74 PUSH1 0x44 DUP3 ADD MSTORE PUSH15 0x81899481D1C985B9CD9995C9C9959 PUSH1 0x8A SHL PUSH1 0x64 DUP3 ADD MSTORE PUSH1 0x84 SWAP1 REVERT JUMPDEST ISZERO PUSH2 0x1C3D JUMPI JUMP JUMPDEST PUSH1 0x40 MLOAD PUSH3 0x461BCD PUSH1 0xE5 SHL DUP2 MSTORE PUSH1 0x20 PUSH1 0x4 DUP3 ADD MSTORE PUSH1 0xF PUSH1 0x24 DUP3 ADD MSTORE PUSH15 0x496E76616C69642061646472657373 PUSH1 0x88 SHL PUSH1 0x44 DUP3 ADD MSTORE PUSH1 0x64 SWAP1 REVERT JUMPDEST ISZERO PUSH2 0x1C7B JUMPI JUMP JUMPDEST PUSH1 0x40 MLOAD PUSH3 0x461BCD PUSH1 0xE5 SHL DUP2 MSTORE PUSH1 0x20 PUSH1 0x4 DUP3 ADD MSTORE PUSH1 0x13 PUSH1 0x24 DUP3 ADD MSTORE PUSH19 0x14185CDCDC1BDC9D081B9BDD081B5A5B9D1959 PUSH1 0x6A SHL PUSH1 0x44 DUP3 ADD MSTORE PUSH1 0x64 SWAP1 REVERT JUMPDEST ISZERO PUSH2 0x1CBD JUMPI JUMP JUMPDEST PUSH1 0x40 MLOAD PUSH3 0x461BCD PUSH1 0xE5 SHL DUP2 MSTORE PUSH1 0x20 PUSH1 0x4 DUP3 ADD MSTORE PUSH1 0x18 PUSH1 0x24 DUP3 ADD MSTORE PUSH32 0x4552433732313A20696E76616C696420746F6B656E2049440000000000000000 PUSH1 0x44 DUP3 ADD MSTORE PUSH1 0x64 SWAP1 REVERT JUMPDEST PUSH1 0x0 SWAP1 DUP2 MSTORE PUSH1 0x2 PUSH1 0x20 MSTORE PUSH1 0x40 SWAP1 KECCAK256 SLOAD PUSH1 0x1 PUSH1 0x1 PUSH1 0xA0 SHL SUB AND PUSH2 0x1D25 DUP2 ISZERO ISZERO PUSH2 0x1CB6 JUMP JUMPDEST SWAP1 JUMP JUMPDEST PUSH1 0x6 SLOAD PUSH1 0x1 PUSH1 0x1 PUSH1 0xA0 SHL SUB AND CALLER SUB PUSH2 0x1D3C JUMPI JUMP JUMPDEST PUSH1 0x64 PUSH1 0x40 MLOAD PUSH3 0x461BCD PUSH1 0xE5 SHL DUP2 MSTORE PUSH1 0x20 PUSH1 0x4 DUP3 ADD MSTORE PUSH1 0x20 PUSH1 0x24 DUP3 ADD MSTORE PUSH32 0x4F776E61626C653A2063616C6C6572206973206E6F7420746865206F776E6572 PUSH1 0x44 DUP3 ADD MSTORE REVERT JUMPDEST PUSH1 0x2 PUSH1 0x7 SLOAD EQ PUSH2 0x1D91 JUMPI PUSH1 0x2 PUSH1 0x7 SSTORE JUMP JUMPDEST PUSH1 0x40 MLOAD PUSH3 0x461BCD PUSH1 0xE5 SHL DUP2 MSTORE PUSH1 0x20 PUSH1 0x4 DUP3 ADD MSTORE PUSH1 0x1F PUSH1 0x24 DUP3 ADD MSTORE PUSH32 0x5265656E7472616E637947756172643A207265656E7472616E742063616C6C00 PUSH1 0x44 DUP3 ADD MSTORE PUSH1 0x64 SWAP1 REVERT JUMPDEST PUSH1 0x80 SWAP1 PUSH1 0x20 DUP2 MSTORE PUSH1 0x32 PUSH1 0x20 DUP3 ADD MSTORE PUSH32 0x4552433732313A207472616E7366657220746F206E6F6E204552433732315265 PUSH1 0x40 DUP3 ADD MSTORE PUSH18 0x31B2B4BB32B91034B6B83632B6B2B73A32B9 PUSH1 0x71 SHL PUSH1 0x60 DUP3 ADD MSTORE ADD SWAP1 JUMP JUMPDEST ISZERO PUSH2 0x1E30 JUMPI JUMP JUMPDEST PUSH1 0x40 MLOAD PUSH3 0x461BCD PUSH1 0xE5 SHL DUP2 MSTORE DUP1 PUSH2 0x1E49 PUSH1 0x4 DUP3 ADD PUSH2 0x1DD6 JUMP JUMPDEST SUB SWAP1 REVERT JUMPDEST PUSH1 0x1 PUSH1 0x1 PUSH1 0xA0 SHL SUB PUSH2 0x1E5E DUP3 PUSH2 0x1D02 JUMP JUMPDEST AND PUSH1 0x0 MSTORE PUSH1 0x8 PUSH1 0x20 MSTORE PUSH1 0x40 PUSH1 0x0 KECCAK256 SLOAD EQ SWAP1 JUMP JUMPDEST SWAP1 PUSH2 0x1E7B DUP3 PUSH2 0x1B91 JUMP JUMPDEST PUSH2 0x1E88 PUSH1 0x40 MLOAD SWAP2 DUP3 PUSH2 0x1B6F JUMP JUMPDEST DUP3 DUP2 MSTORE DUP1 SWAP3 PUSH2 0x1E99 PUSH1 0x1F NOT SWAP2 PUSH2 0x1B91 JUMP JUMPDEST ADD SWAP1 PUSH1 0x20 CALLDATASIZE SWAP2 ADD CALLDATACOPY JUMP JUMPDEST DUP1 PUSH1 0x0 SWAP2 PUSH27 0x184F03E93FF9F4DAA797ED6E38ED64BF6A1F010000000000000000 DUP1 DUP3 LT ISZERO PUSH2 0x1FD9 JUMPI JUMPDEST POP PUSH14 0x4EE2D6D415B85ACEF8100000000 DUP1 DUP4 LT ISZERO PUSH2 0x1FCA JUMPI JUMPDEST POP PUSH7 0x2386F26FC10000 DUP1 DUP4 LT ISZERO PUSH2 0x1FBB JUMPI JUMPDEST POP PUSH4 0x5F5E100 DUP1 DUP4 LT ISZERO PUSH2 0x1FAC JUMPI JUMPDEST POP PUSH2 0x2710 DUP1 DUP4 LT ISZERO PUSH2 0x1F9D JUMPI JUMPDEST POP PUSH1 0x64 DUP3 LT ISZERO PUSH2 0x1F8D JUMPI JUMPDEST PUSH1 0xA DUP1 SWAP3 LT ISZERO PUSH2 0x1F83 JUMPI JUMPDEST PUSH1 0x1 SWAP1 DUP2 PUSH1 0x21 PUSH2 0x1F3B PUSH1 0x1 DUP8 ADD PUSH2 0x1E71 JUMP JUMPDEST SWAP6 DUP7 ADD ADD SWAP1 JUMPDEST PUSH2 0x1F4D JUMPI JUMPDEST POP POP POP POP SWAP1 JUMP JUMPDEST PUSH1 0x0 NOT ADD SWAP1 DUP4 SWAP1 PUSH16 0x181899199A1A9B1B9C1CB0B131B232B3 PUSH1 0x81 SHL DUP3 DUP3 MOD BYTE DUP4 MSTORE8 DIV SWAP2 DUP3 ISZERO PUSH2 0x1F7E JUMPI SWAP2 SWAP1 DUP3 PUSH2 0x1F41 JUMP JUMPDEST PUSH2 0x1F46 JUMP JUMPDEST SWAP2 PUSH1 0x1 ADD SWAP2 PUSH2 0x1F29 JUMP JUMPDEST SWAP2 SWAP1 PUSH1 0x64 PUSH1 0x2 SWAP2 DIV SWAP2 ADD SWAP2 PUSH2 0x1F1E JUMP JUMPDEST PUSH1 0x4 SWAP2 SWAP4 SWAP3 DIV SWAP2 ADD SWAP2 CODESIZE PUSH2 0x1F13 JUMP JUMPDEST PUSH1 0x8 SWAP2 SWAP4 SWAP3 DIV SWAP2 ADD SWAP2 CODESIZE PUSH2 0x1F06 JUMP JUMPDEST PUSH1 0x10 SWAP2 SWAP4 SWAP3 DIV SWAP2 ADD SWAP2 CODESIZE PUSH2 0x1EF7 JUMP JUMPDEST PUSH1 0x20 SWAP2 SWAP4 SWAP3 DIV SWAP2 ADD SWAP2 CODESIZE PUSH2 0x1EE5 JUMP JUMPDEST PUSH1 0x40 SWAP4 POP DUP2 DIV SWAP2 POP CODESIZE PUSH2 0x1ECC JUMP JUMPDEST SWAP1 DUP2 MLOAD ISZERO PUSH2 0x212F JUMPI PUSH1 0x40 MLOAD SWAP2 PUSH2 0x1FFC DUP4 PUSH2 0x1B53 JUMP JUMPDEST PUSH1 0x40 DUP4 MSTORE PUSH32 0x4142434445464748494A4B4C4D4E4F505152535455565758595A616263646566 PUSH1 0x20 DUP5 ADD MSTORE PUSH32 0x6768696A6B6C6D6E6F707172737475767778797A303132333435363738392B2F PUSH1 0x40 DUP5 ADD MSTORE DUP1 MLOAD SWAP3 PUSH1 0x2 SWAP2 PUSH1 0x2 DUP6 ADD DUP1 SWAP6 GT PUSH2 0xF7F JUMPI PUSH1 0x3 SWAP5 DUP6 SWAP1 DIV PUSH1 0x1 PUSH1 0x1 PUSH1 0xFE SHL SUB DUP2 AND DUP2 SUB PUSH2 0xF7F JUMPI PUSH2 0x2082 SWAP1 PUSH1 0x2 SWAP7 SWAP5 SWAP7 SHL PUSH2 0x1E71 JUMP JUMPDEST SWAP3 PUSH1 0x20 DUP5 ADD SWAP3 DUP3 SWAP2 DUP4 MLOAD DUP5 ADD SWAP8 PUSH1 0x20 DUP10 ADD SWAP3 DUP4 MLOAD SWAP5 PUSH1 0x0 DUP6 MSTORE JUMPDEST DUP11 DUP2 LT PUSH2 0x20E2 JUMPI POP POP POP POP PUSH1 0x3 SWAP4 SWAP5 SWAP6 SWAP7 POP MSTORE MLOAD MOD DUP1 PUSH1 0x1 EQ PUSH2 0x20CF JUMPI PUSH1 0x2 EQ PUSH2 0x20C4 JUMPI POP SWAP1 JUMP JUMPDEST PUSH1 0x3D SWAP1 PUSH1 0x0 NOT ADD MSTORE8 SWAP1 JUMP JUMPDEST POP PUSH1 0x3D SWAP1 DUP2 PUSH1 0x0 NOT DUP3 ADD MSTORE8 PUSH1 0x1 NOT ADD MSTORE8 SWAP1 JUMP JUMPDEST DUP4 PUSH1 0x4 SWAP2 SWAP12 SWAP9 SWAP12 ADD SWAP11 DUP12 MLOAD PUSH1 0x1 SWAP1 PUSH1 0x3F SWAP1 DUP3 DUP3 DUP3 PUSH1 0x12 SHR AND DUP8 ADD ADD MLOAD DUP5 MSTORE8 DUP3 DUP3 DUP3 PUSH1 0xC SHR AND DUP8 ADD ADD MLOAD DUP4 DUP6 ADD MSTORE8 DUP3 DUP3 DUP3 PUSH1 0x6 SHR AND DUP8 ADD ADD MLOAD DUP8 DUP6 ADD MSTORE8 AND DUP5 ADD ADD MLOAD DUP6 DUP3 ADD MSTORE8 ADD SWAP7 SWAP10 PUSH2 0x209C JUMP JUMPDEST SWAP1 POP PUSH1 0x40 MLOAD PUSH2 0x213D DUP2 PUSH2 0x1B37 JUMP JUMPDEST PUSH1 0x0 DUP2 MSTORE SWAP1 JUMP JUMPDEST ISZERO PUSH2 0x214B JUMPI JUMP JUMPDEST PUSH1 0x40 MLOAD PUSH3 0x461BCD PUSH1 0xE5 SHL DUP2 MSTORE PUSH1 0x20 PUSH1 0x4 DUP3 ADD MSTORE PUSH1 0x25 PUSH1 0x24 DUP3 ADD MSTORE PUSH32 0x4552433732313A207472616E736665722066726F6D20696E636F727265637420 PUSH1 0x44 DUP3 ADD MSTORE PUSH5 0x37BBB732B9 PUSH1 0xD9 SHL PUSH1 0x64 DUP3 ADD MSTORE PUSH1 0x84 SWAP1 REVERT JUMPDEST SWAP2 SWAP3 SWAP1 SWAP2 DUP1 EXTCODESIZE ISZERO PUSH2 0x22B3 JUMPI PUSH2 0x21EB SWAP4 PUSH1 0x40 MLOAD SWAP1 DUP2 PUSH4 0xA85BD01 PUSH1 0xE1 SHL SWAP4 DUP5 DUP3 MSTORE CALLER PUSH1 0x4 DUP4 ADD MSTORE PUSH1 0x0 SWAP7 DUP8 PUSH1 0x24 DUP5 ADD MSTORE PUSH1 0x44 DUP4 ADD MSTORE PUSH1 0x80 PUSH1 0x64 DUP4 ADD MSTORE DUP2 DUP8 DUP2 PUSH1 0x20 SWAP11 DUP12 SWAP7 PUSH1 0x84 DUP4 ADD SWAP1 PUSH2 0x1A80 JUMP JUMPDEST SUB SWAP3 PUSH1 0x1 PUSH1 0x1 PUSH1 0xA0 SHL SUB AND GAS CALL DUP5 SWAP2 DUP2 PUSH2 0x226F JUMPI JUMPDEST POP PUSH2 0x225E JUMPI POP POP POP RETURNDATASIZE PUSH1 0x0 EQ PUSH2 0x2256 JUMPI RETURNDATASIZE PUSH2 0x221A DUP2 PUSH2 0x1B91 JUMP JUMPDEST SWAP1 PUSH2 0x2228 PUSH1 0x40 MLOAD SWAP3 DUP4 PUSH2 0x1B6F JUMP JUMPDEST DUP2 MSTORE DUP1 SWAP2 DUP4 RETURNDATASIZE SWAP3 ADD RETURNDATACOPY JUMPDEST DUP1 MLOAD SWAP2 DUP3 PUSH2 0x2253 JUMPI PUSH1 0x40 MLOAD PUSH3 0x461BCD PUSH1 0xE5 SHL DUP2 MSTORE DUP1 PUSH2 0x1E49 PUSH1 0x4 DUP3 ADD PUSH2 0x1DD6 JUMP JUMPDEST ADD REVERT JUMPDEST POP PUSH1 0x60 PUSH2 0x2232 JUMP JUMPDEST PUSH1 0x1 PUSH1 0x1 PUSH1 0xE0 SHL SUB NOT AND EQ SWAP3 POP SWAP1 POP JUMP JUMPDEST SWAP1 SWAP2 POP DUP6 DUP2 DUP2 RETURNDATASIZE DUP4 GT PUSH2 0x22AC JUMPI JUMPDEST PUSH2 0x2287 DUP2 DUP4 PUSH2 0x1B6F JUMP JUMPDEST DUP2 ADD SUB SLT PUSH2 0x22A8 JUMPI MLOAD PUSH1 0x1 PUSH1 0x1 PUSH1 0xE0 SHL SUB NOT DUP2 AND DUP2 SUB PUSH2 0x22A8 JUMPI SWAP1 CODESIZE PUSH2 0x2200 JUMP JUMPDEST DUP5 DUP1 REVERT JUMPDEST POP RETURNDATASIZE PUSH2 0x227D JUMP JUMPDEST POP SWAP2 POP POP PUSH1 0x1 SWAP1 JUMP JUMPDEST SWAP3 SWAP4 SWAP2 SWAP3 SWAP1 DUP1 EXTCODESIZE ISZERO PUSH2 0x233B JUMPI PUSH2 0x2310 SWAP5 PUSH1 0x1 DUP1 PUSH1 0xA0 SHL SUB SWAP5 PUSH1 0x40 MLOAD SWAP3 DUP4 SWAP2 DUP8 PUSH4 0xA85BD01 PUSH1 0xE1 SHL SWAP7 DUP8 DUP6 MSTORE CALLER PUSH1 0x4 DUP7 ADD MSTORE AND PUSH1 0x24 DUP5 ADD MSTORE PUSH1 0x44 DUP4 ADD MSTORE PUSH1 0x80 PUSH1 0x64 DUP4 ADD MSTORE DUP2 DUP1 PUSH1 0x20 SWAP10 DUP11 SWAP6 PUSH1 0x84 DUP4 ADD SWAP1 PUSH2 0x1A80 JUMP JUMPDEST SUB SWAP2 PUSH1 0x0 SWAP9 DUP10 SWAP2 AND GAS CALL DUP5 SWAP2 DUP2 PUSH2 0x226F JUMPI POP PUSH2 0x225E JUMPI POP POP POP RETURNDATASIZE PUSH1 0x0 EQ PUSH2 0x2256 JUMPI RETURNDATASIZE PUSH2 0x221A DUP2 PUSH2 0x1B91 JUMP JUMPDEST POP POP SWAP2 POP POP PUSH1 0x1 SWAP1 JUMP JUMPDEST ISZERO PUSH2 0x234C JUMPI JUMP JUMPDEST PUSH1 0x40 MLOAD PUSH3 0x461BCD PUSH1 0xE5 SHL DUP2 MSTORE PUSH1 0x20 PUSH1 0x4 DUP3 ADD MSTORE PUSH1 0x1C PUSH1 0x24 DUP3 ADD MSTORE PUSH32 0x4552433732313A20746F6B656E20616C7265616479206D696E74656400000000 PUSH1 0x44 DUP3 ADD MSTORE PUSH1 0x64 SWAP1 REVERT INVALID LOG2 PUSH5 0x6970667358 0x22 SLT KECCAK256 PUSH10 0xC600862092801A08D31 0xE6 BLOBHASH 0x4F CODECOPY JUMP 0xA7 GAS 0x27 PUSH6 0xA86B53F937A8 SWAP1 SWAP10 MULMOD CALLDATACOPY MUL 0x28 PUSH5 0x736F6C6343 STOP ADDMOD XOR STOP CALLER "},"methodIdentifiers":{"approve(address,uint256)":"095ea7b3","balanceOf(address)":"70a08231","getApproved(uint256)":"081812fc","getPassport(address)":"57a5893c","isApprovedForAll(address,address)":"e985e9c5","mintPassport()":"4ec794f6","name()":"06fdde03","owner()":"8da5cb5b","ownerOf(uint256)":"6352211e","passportData(uint256)":"a6670ebe","passportOf(address)":"5d1c2634","renounceOwnership()":"715018a6","safeTransferFrom(address,address,uint256)":"42842e0e","safeTransferFrom(address,address,uint256,bytes)":"b88d4fde","setApprovalForAll(address,bool)":"a22cb465","supportsInterface(bytes4)":"01ffc9a7","symbol()":"95d89b41","tokenURI(uint256)":"c87b56dd","transferFrom(address,address,uint256)":"23b872dd","transferOwnership(address)":"f2fde38b","updateStats(address,uint256,uint256,uint256,uint256)":"1241a45a"}}}}}