{"contracts/ArenaEngine.sol":{"ArenaEngine":{"abi":[{"inputs":[{"internalType":"address","name":"_passportContract","type":"address"}],"stateMutability":"nonpayable","type":"constructor"},{"anonymous":false,"inputs":[{"indexed":true,"internalType":"uint256","name":"challengeId","type":"uint256"},{"indexed":true,"internalType":"address","name":"creator","type":"address"},{"indexed":false,"internalType":"uint256","name":"entryFee","type":"uint256"},{"indexed":false,"internalType":"uint256","name":"duration","type":"uint256"}],"name":"ChallengeCreated","type":"event"},{"anonymous":false,"inputs":[{"indexed":true,"internalType":"uint256","name":"challengeId","type":"uint256"},{"indexed":true,"internalType":"address","name":"winner","type":"address"},{"indexed":false,"internalType":"uint256","name":"winPool","type":"uint256"}],"name":"ChallengeFinalized","type":"event"},{"anonymous":false,"inputs":[{"indexed":true,"internalType":"address","name":"previousOwner","type":"address"},{"indexed":true,"internalType":"address","name":"newOwner","type":"address"}],"name":"OwnershipTransferred","type":"event"},{"anonymous":false,"inputs":[{"indexed":true,"internalType":"uint256","name":"challengeId","type":"uint256"},{"indexed":true,"internalType":"address","name":"participant","type":"address"}],"name":"ParticipantEntered","type":"event"},{"anonymous":false,"inputs":[{"indexed":true,"internalType":"uint256","name":"challengeId","type":"uint256"},{"indexed":true,"internalType":"address","name":"participant","type":"address"},{"indexed":false,"internalType":"uint256","name":"score","type":"uint256"},{"indexed":false,"internalType":"uint256","name":"rank","type":"uint256"}],"name":"ScoreSubmitted","type":"event"},{"anonymous":false,"inputs":[{"indexed":true,"internalType":"address","name":"recipient","type":"address"},{"indexed":false,"internalType":"uint256","name":"amount","type":"uint256"}],"name":"WithdrawalProcessed","type":"event"},{"inputs":[{"internalType":"uint256","name":"challengeId","type":"uint256"},{"internalType":"address","name":"participant","type":"address"}],"name":"calculateRank","outputs":[{"internalType":"uint256","name":"","type":"uint256"}],"stateMutability":"view","type":"function"},{"inputs":[{"internalType":"uint256","name":"","type":"uint256"}],"name":"challenges","outputs":[{"internalType":"uint256","name":"id","type":"uint256"},{"internalType":"address","name":"creator","type":"address"},{"internalType":"uint256","name":"entryFee","type":"uint256"},{"internalType":"uint256","name":"duration","type":"uint256"},{"internalType":"uint256","name":"startTime","type":"uint256"},{"internalType":"uint256","name":"totalPrize","type":"uint256"},{"internalType":"bool","name":"finalized","type":"bool"},{"internalType":"address","name":"topPlayer","type":"address"},{"internalType":"uint256","name":"topScore","type":"uint256"}],"stateMutability":"view","type":"function"},{"inputs":[{"internalType":"uint256","name":"entryFee","type":"uint256"},{"internalType":"uint256","name":"duration","type":"uint256"}],"name":"createChallenge","outputs":[{"internalType":"uint256","name":"","type":"uint256"}],"stateMutability":"nonpayable","type":"function"},{"inputs":[{"internalType":"uint256","name":"challengeId","type":"uint256"}],"name":"enterChallenge","outputs":[],"stateMutability":"payable","type":"function"},{"inputs":[{"internalType":"uint256","name":"challengeId","type":"uint256"}],"name":"finalizeChallenge","outputs":[],"stateMutability":"nonpayable","type":"function"},{"inputs":[{"internalType":"uint256","name":"challengeId","type":"uint256"}],"name":"getChallenge","outputs":[{"components":[{"internalType":"uint256","name":"id","type":"uint256"},{"internalType":"address","name":"creator","type":"address"},{"internalType":"uint256","name":"entryFee","type":"uint256"},{"internalType":"uint256","name":"duration","type":"uint256"},{"internalType":"uint256","name":"startTime","type":"uint256"},{"internalType":"uint256","name":"totalPrize","type":"uint256"},{"internalType":"bool","name":"finalized","type":"bool"},{"internalType":"address","name":"topPlayer","type":"address"},{"internalType":"uint256","name":"topScore","type":"uint256"}],"internalType":"struct ArenaEngine.Challenge","name":"","type":"tuple"}],"stateMutability":"view","type":"function"},{"inputs":[],"name":"getChallengeIdCounter","outputs":[{"internalType":"uint256","name":"","type":"uint256"}],"stateMutability":"view","type":"function"},{"inputs":[{"internalType":"uint256","name":"challengeId","type":"uint256"}],"name":"getLeaderboard","outputs":[{"internalType":"address[]","name":"addresses","type":"address[]"},{"internalType":"uint256[]","name":"scores_","type":"uint256[]"}],"stateMutability":"view","type":"function"},{"inputs":[{"internalType":"uint256","name":"challengeId","type":"uint256"}],"name":"getParticipantCount","outputs":[{"internalType":"uint256","name":"","type":"uint256"}],"stateMutability":"view","type":"function"},{"inputs":[{"internalType":"uint256","name":"challengeId","type":"uint256"}],"name":"getParticipants","outputs":[{"internalType":"address[]","name":"","type":"address[]"}],"stateMutability":"view","type":"function"},{"inputs":[{"internalType":"uint256","name":"","type":"uint256"},{"internalType":"address","name":"","type":"address"}],"name":"hasEntered","outputs":[{"internalType":"bool","name":"","type":"bool"}],"stateMutability":"view","type":"function"},{"inputs":[],"name":"owner","outputs":[{"internalType":"address","name":"","type":"address"}],"stateMutability":"view","type":"function"},{"inputs":[{"internalType":"uint256","name":"","type":"uint256"},{"internalType":"address","name":"","type":"address"}],"name":"participantIndex","outputs":[{"internalType":"uint256","name":"","type":"uint256"}],"stateMutability":"view","type":"function"},{"inputs":[{"internalType":"uint256","name":"","type":"uint256"},{"internalType":"uint256","name":"","type":"uint256"}],"name":"participants","outputs":[{"internalType":"address","name":"","type":"address"}],"stateMutability":"view","type":"function"},{"inputs":[],"name":"passportContract","outputs":[{"internalType":"contract ISomniaPassport","name":"","type":"address"}],"stateMutability":"view","type":"function"},{"inputs":[{"internalType":"address","name":"","type":"address"}],"name":"pendingWithdrawals","outputs":[{"internalType":"uint256","name":"","type":"uint256"}],"stateMutability":"view","type":"function"},{"inputs":[],"name":"renounceOwnership","outputs":[],"stateMutability":"nonpayable","type":"function"},{"inputs":[{"internalType":"uint256","name":"","type":"uint256"},{"internalType":"address","name":"","type":"address"}],"name":"scores","outputs":[{"internalType":"uint256","name":"","type":"uint256"}],"stateMutability":"view","type":"function"},{"inputs":[{"internalType":"uint256","name":"challengeId","type":"uint256"},{"internalType":"uint256","name":"score","type":"uint256"}],"name":"submitScore","outputs":[],"stateMutability":"nonpayable","type":"function"},{"inputs":[{"internalType":"address","name":"newOwner","type":"address"}],"name":"transferOwnership","outputs":[],"stateMutability":"nonpayable","type":"function"},{"inputs":[],"name":"withdraw","outputs":[],"stateMutability":"nonpayable","type":"function"}],"evm":{"bytecode":{"linkReferences":{},"object":"6080346100fc57601f6117c638819003918201601f19168301916001600160401b03831184841017610101578084926020946040528339810103126100fc57516001600160a01b03808216918290036100fc576000549060018060a01b0319913383821617600055604051913391167f8be0079c531659141344cd1fd0a4f28419497f9722a3daafe3b4186f6b6457e0600080a36001805582156100ba5750600854161760085560016007556040516116ae90816101188239f35b62461bcd60e51b815260206004820152601960248201527f496e76616c69642070617373706f727420636f6e7472616374000000000000006044820152606490fd5b600080fd5b634e487b7160e01b600052604160045260246000fdfe608060408181526004918236101561001657600080fd5b600092833560e01c918263073c74f314611229575081631bdd4b741461110757816325c1a69514610e765781633ccfd60b14610d3f578163484dd61a14610a7d57816357a248f114610a5e578163715018a614610a045781637a07b674146109c257816381fb1fb41461097b5781638358ba081461078657816384f615851461066957816386ae5fec146106425781638da5cb5b1461061a5781638f1d37761461058b578163a34b46fe14610331578163ab9027b014610308578163ace25895146102c6578163c1e3bd3e1461023f578163e5656a5e1461020d578163f2fde38b14610146575063f3f437031461010c57600080fd5b346101425760203660031901126101425760209181906001600160a01b03610132611289565b1681526009845220549051908152f35b5080fd5b90503461020957602036600319011261020957610161611289565b9061016a611620565b6001600160a01b039182169283156101b757505082546001600160a01b0319811683178455167f8be0079c531659141344cd1fd0a4f28419497f9722a3daafe3b4186f6b6457e08380a380f35b906020608492519162461bcd60e51b8352820152602660248201527f4f776e61626c653a206e6577206f776e657220697320746865207a65726f206160448201526564647265737360d01b6064820152fd5b8280fd5b82843461023c578160031936011261023c575061023560209261022e61126e565b9035611495565b9051908152f35b80fd5b9190503461020957602091826003193601126102c257803584528252808320815190819485928583549182815201928252858220915b868282106102a257859061029e8861028f84890385611353565b519282849384528301906112e3565b0390f35b83546001600160a01b031685528895509093019260019283019201610275565b8380fd5b90503461020957816003193601126102095760209282916102e561126e565b90358252600585528282206001600160a01b039091168252845220549051908152f35b50503461014257816003193601126101425760085490516001600160a01b039091168152602090f35b8391503461014257602080600319360112610209579092918335918282528481528382209084519182828254918281520191855282852090855b81811061056e5750505082610381910383611353565b81519561038d87611469565b9661039a87519889611353565b8088526103a681611469565b601f1996908701368a8601376103bb82611469565b946103c889519687611353565b8286526103d483611469565b8686019801368937865b83811061050b57505050845b81811061043f575050508061040886519787899889528801906112e3565b928684038288015251928381520193925b82811061042857505050500390f35b835185528695509381019392810192600101610419565b6001989395949697988082018083116104f8575b83811061046b575050600101979695939492976103ea565b8061047783928b611481565b51610482858c611481565b511061048f575b01610453565b6001600160a01b03806104a2868a611481565b5116906104af838a611481565b51166104bb868a611481565b526104c68289611481565b526104d1848b611481565b516104dc828c611481565b516104e7868d611481565b526104f2828c611481565b52610489565b634e487b7160e01b875260118552602487fd5b9899979895979496956001906001600160a01b038061052a8386611481565b5116610536838a611481565b5284895260038a528c89209061054c8386611481565b5116895289528b882054610560828c611481565b5201999897959694996103de565b82546001600160a01b03168452928401926001928301920161036b565b905034610209576020366003190112610209578161012093823581526002602052209182549260018060a01b039182600183015416936002830154906003840154908401549160058501549360076006870154960154978151998a5260208a01528801526060870152608086015260a085015260ff8116151560c085015260081c1660e0830152610100820152f35b505034610142578160031936011261014257905490516001600160a01b039091168152602090f35b90503461020957602036600319011261020957602092818392358252845220549051908152f35b838334610142576106793661129f565b610681611620565b610e108110610743576007549360018501808611610730576020966007918255868352600288528583209087825560018201336bffffffffffffffffffffffff60a01b8254161790558560028301558460038301554290820155826005820155600681016affffffffffffffffffffff60a81b81541690550155825191825284820152827f7c9c42ea4a98ff02e597498c394568923c74c2d3e031718ad08dbb59a42f03eb833393a351908152f35b634e487b7160e01b825260118752602482fd5b825162461bcd60e51b8152602081870181905260248201527f4475726174696f6e206d757374206265206174206c65617374203120686f75726044820152606490fd5b905034610209576107963661129f565b9290916107a16115ca565b828552602090600282528286206107ba81541515611375565b60068101916107cd60ff845416156113c1565b6107e96107e282840154600385015490611406565b4210611429565b86156109385785885260068452848820338952845260ff8589205416156108f557858852600384528488203389528452848820548711156108b25750908560077fd0d8829ed5c85447ff7f11f919d541dd197effa10f32914186d91cfcad32f439959493878a5260038552858a20338b52855282868b2055018054821161088b575b5050506108783385611495565b9082519586528501523393a36001805580f35b558054610100600160a81b0319163360081b610100600160a81b031617905538858161086b565b845162461bcd60e51b8152908101849052601760248201527f53636f72652063616e206f6e6c7920696e6372656173650000000000000000006044820152606490fd5b845162461bcd60e51b8152908101849052601d60248201527f4e6f742070617274696369706174656420696e206368616c6c656e67650000006044820152606490fd5b845162461bcd60e51b8152908101849052601f60248201527f53636f7265206d7573742062652067726561746572207468616e207a65726f006044820152606490fd5b82843461023c5761098b3661129f565b9390825260205281812090815484101561023c57506020926109ac916112b5565b905491519160018060a01b039160031b1c168152f35b90503461020957816003193601126102095760209282916109e161126e565b90358252600385528282206001600160a01b039091168252845220549051908152f35b833461023c578060031936011261023c57610a1d611620565b80546001600160a01b03198116825581906001600160a01b03167f8be0079c531659141344cd1fd0a4f28419497f9722a3daafe3b4186f6b6457e08280a380f35b5050346101425781600319360112610142576020906007549051908152f35b839150346101425760208060031936011261020957813590610a9d611620565b610aa56115ca565b8184526002815284842094610abc86541515611375565b6006860193845460ff8116610cfd5781880154610ae060039160038b015490611406565b4210610cc1576001809260ff19161780885560018060a01b03938460089260081c169283610b11575b8a6001805580f35b888b52818852868b20549260018403610b905750505050505060057f65a8b6841034f85ee47ce3b451ae9348ce320bb1bbfa24551f637873754f373c949596970195865482825460081c16895260098552610b70848a20918254611406565b90555460081c1694549051908152a35b8082808080808080808080610b09565b909192939699949b60050154916046830283810460461484151715610cae576064900497888403938411610cae578c5260099260098a528b8d20610bd58a8254611406565b9055600019860190868211610c9b578115610c885704938c5b868110610c3257505050505050507f65a8b6841034f85ee47ce3b451ae9348ce320bb1bbfa24551f637873754f373c94959697505460081c169451908152a3610b80565b8e908d8f878f8f908e8e91855288835280610c4f888888206112b5565b9054908c1b1c1691548b1c168103610c6d575b505050505001610bee565b83525220610c7c888254611406565b90558d8f878e38610c62565b634e487b7160e01b8e526012865260248efd5b634e487b7160e01b8e526011865260248efd5b634e487b7160e01b8d526011855260248dfd5b835162461bcd60e51b815280840186905260166024820152754368616c6c656e6765207374696c6c2061637469766560501b6044820152606490fd5b5082606492519162461bcd60e51b8352820152601b60248201527f4368616c6c656e676520616c72656164792066696e616c697a656400000000006044820152fd5b91905034610209578260031936011261020957610d5a6115ca565b3383526020906009825280842054928315610e3c573385526009835284828120558480808087335af13d15610e37573d67ffffffffffffffff8111610e2457835190610daf601f8201601f1916870183611353565b815286853d92013e5b15610def5750907f5abb0fc89def2ee3226cc48f5621ee8e2b45f6dcc7898d2bdb5d480533c32bc091519283523392a26001805580f35b82606492519162461bcd60e51b8352820152601160248201527015da5d1a191c985dd85b0819985a5b1959607a1b6044820152fd5b634e487b7160e01b875260418352602487fd5b610db8565b82606492519162461bcd60e51b835282015260166024820152754e6f2070656e64696e67207769746864726177616c7360501b6044820152fd5b9190506020806003193601126102c257823592610e916115ca565b8385526002825282852090610ea882541515611375565b600282015434036110ce57610ec460ff600684015416156113c1565b610ed96107e282840154600385015490611406565b6008548451631747098d60e21b815233838201526001600160a01b03939185908290602490829088165afa9081156110c4578891611093575b50156110505785875260068452848720338852845260ff858820541661100d57600501610f40348254611406565b9055848652808352838620546005845284872033885284528487205584865280835283862080549168010000000000000000831015610ffa575090610f8a916001820181556112b5565b819291549060031b9133831b921b191617905582845260038152818420338552815283828120558284526006815281842090338552528220600160ff1982541617905533907f7076b6d580c0523456eb58b88d88dc6937af3562eaa19a4a16af7885694781288380a36001805580f35b634e487b7160e01b885260419052602487fd5b845162461bcd60e51b8152808301859052601960248201527f416c726561647920656e7465726564206368616c6c656e6765000000000000006044820152606490fd5b845162461bcd60e51b8152808301859052601860248201527f4d757374206d696e742070617373706f727420666972737400000000000000006044820152606490fd5b90508481813d83116110bd575b6110aa8183611353565b810103126110b9575138610f12565b8780fd5b503d6110a0565b86513d8a823e3d90fd5b835162461bcd60e51b81529081018390526013602482015272496e636f727265637420656e7472792066656560681b6044820152606490fd5b905034610209576020366003190112610209579160ff610120938380519361112e85611320565b80855280602086015280828601528060608601528060808601528060a08601528060c08601528060e0860152806101008096015282358152600260205220845192839161117a83611320565b80549687845260018060a01b03948560018401541691602086019283526002840154818701908152876003860154936060890194855286015494608089019586528b600760058901549860a08c01998a528460e060068301549d8e60c082019e8f911615159052019c60081c168c5201549b019a8b5283519c8d52511660208c015251908a01525160608901525160808801525160a087015251151560c0860152511660e08401525190820152f35b929150346102c257816003193601126102c2579060209360ff9261124b61126e565b90358252600686528282206001600160a01b039091168252855220541615158152f35b602435906001600160a01b038216820361128457565b600080fd5b600435906001600160a01b038216820361128457565b6040906003190112611284576004359060243590565b80548210156112cd5760005260206000200190600090565b634e487b7160e01b600052603260045260246000fd5b90815180825260208080930193019160005b828110611303575050505090565b83516001600160a01b0316855293810193928101926001016112f5565b610120810190811067ffffffffffffffff82111761133d57604052565b634e487b7160e01b600052604160045260246000fd5b90601f8019910116810190811067ffffffffffffffff82111761133d57604052565b1561137c57565b60405162461bcd60e51b815260206004820152601860248201527f4368616c6c656e676520646f6573206e6f7420657869737400000000000000006044820152606490fd5b156113c857565b60405162461bcd60e51b815260206004820152601660248201527510da185b1b195b99d9481a5cc8199a5b985b1a5e995960521b6044820152606490fd5b9190820180921161141357565b634e487b7160e01b600052601160045260246000fd5b1561143057565b60405162461bcd60e51b815260206004820152601160248201527010da185b1b195b99d948195e1c1a5c9959607a1b6044820152606490fd5b67ffffffffffffffff811161133d5760051b60200190565b80518210156112cd5760209160051b010190565b60008181526003602081815260408084206001600160a01b039687168552825280842054929695949091831561158757600195828652600498600483528487209385518086868298549384815201908b52868b20928b5b8d89838310611570575050505061150592500386611353565b875b855181101561156257818952828552868920846115248389611481565b51168a52855287878a20541161153d575b600101611507565b986001810180911161154f5798611535565b634e487b7160e01b895260118c52602489fd5b509799505050505050505050565b86548a168552958101958b955090930192016114ec565b60649083519062461bcd60e51b82526004820152601c60248201527f5061727469636970616e74206e6f7420696e206368616c6c656e6765000000006044820152fd5b6002600154146115db576002600155565b60405162461bcd60e51b815260206004820152601f60248201527f5265656e7472616e637947756172643a207265656e7472616e742063616c6c006044820152606490fd5b6000546001600160a01b0316330361163457565b606460405162461bcd60e51b815260206004820152602060248201527f4f776e61626c653a2063616c6c6572206973206e6f7420746865206f776e65726044820152fdfea26469706673582212202de7466a0ae835d355c51f3e140b47b39073bd7c2e8ec1f9618411643a097bed64736f6c63430008180033","opcodes":"PUSH1 0x80 CALLVALUE PUSH2 0xFC JUMPI PUSH1 0x1F PUSH2 0x17C6 CODESIZE DUP2 SWAP1 SUB SWAP2 DUP3 ADD PUSH1 0x1F NOT AND DUP4 ADD SWAP2 PUSH1 0x1 PUSH1 0x1 PUSH1 0x40 SHL SUB DUP4 GT DUP5 DUP5 LT OR PUSH2 0x101 JUMPI DUP1 DUP5 SWAP3 PUSH1 0x20 SWAP5 PUSH1 0x40 MSTORE DUP4 CODECOPY DUP2 ADD SUB SLT PUSH2 0xFC JUMPI MLOAD PUSH1 0x1 PUSH1 0x1 PUSH1 0xA0 SHL SUB DUP1 DUP3 AND SWAP2 DUP3 SWAP1 SUB PUSH2 0xFC JUMPI PUSH1 0x0 SLOAD SWAP1 PUSH1 0x1 DUP1 PUSH1 0xA0 SHL SUB NOT SWAP2 CALLER DUP4 DUP3 AND OR PUSH1 0x0 SSTORE PUSH1 0x40 MLOAD SWAP2 CALLER SWAP2 AND PUSH32 0x8BE0079C531659141344CD1FD0A4F28419497F9722A3DAAFE3B4186F6B6457E0 PUSH1 0x0 DUP1 LOG3 PUSH1 0x1 DUP1 SSTORE DUP3 ISZERO PUSH2 0xBA JUMPI POP PUSH1 0x8 SLOAD AND OR PUSH1 0x8 SSTORE PUSH1 0x1 PUSH1 0x7 SSTORE PUSH1 0x40 MLOAD PUSH2 0x16AE SWAP1 DUP2 PUSH2 0x118 DUP3 CODECOPY RETURN JUMPDEST PUSH3 0x461BCD PUSH1 0xE5 SHL DUP2 MSTORE PUSH1 0x20 PUSH1 0x4 DUP3 ADD MSTORE PUSH1 0x19 PUSH1 0x24 DUP3 ADD MSTORE PUSH32 0x496E76616C69642070617373706F727420636F6E747261637400000000000000 PUSH1 0x44 DUP3 ADD MSTORE PUSH1 0x64 SWAP1 REVERT JUMPDEST PUSH1 0x0 DUP1 REVERT JUMPDEST PUSH4 0x4E487B71 PUSH1 0xE0 SHL PUSH1 0x0 MSTORE PUSH1 0x41 PUSH1 0x4 MSTORE PUSH1 0x24 PUSH1 0x0 REVERT INVALID PUSH1 0x80 PUSH1 0x40 DUP2 DUP2 MSTORE PUSH1 0x4 SWAP2 DUP3 CALLDATASIZE LT ISZERO PUSH2 0x16 JUMPI PUSH1 0x0 DUP1 REVERT JUMPDEST PUSH1 0x0 SWAP3 DUP4 CALLDATALOAD PUSH1 0xE0 SHR SWAP2 DUP3 PUSH4 0x73C74F3 EQ PUSH2 0x1229 JUMPI POP DUP2 PUSH4 0x1BDD4B74 EQ PUSH2 0x1107 JUMPI DUP2 PUSH4 0x25C1A695 EQ PUSH2 0xE76 JUMPI DUP2 PUSH4 0x3CCFD60B EQ PUSH2 0xD3F JUMPI DUP2 PUSH4 0x484DD61A EQ PUSH2 0xA7D JUMPI DUP2 PUSH4 0x57A248F1 EQ PUSH2 0xA5E JUMPI DUP2 PUSH4 0x715018A6 EQ PUSH2 0xA04 JUMPI DUP2 PUSH4 0x7A07B674 EQ PUSH2 0x9C2 JUMPI DUP2 PUSH4 0x81FB1FB4 EQ PUSH2 0x97B JUMPI DUP2 PUSH4 0x8358BA08 EQ PUSH2 0x786 JUMPI DUP2 PUSH4 0x84F61585 EQ PUSH2 0x669 JUMPI DUP2 PUSH4 0x86AE5FEC EQ PUSH2 0x642 JUMPI DUP2 PUSH4 0x8DA5CB5B EQ PUSH2 0x61A JUMPI DUP2 PUSH4 0x8F1D3776 EQ PUSH2 0x58B JUMPI DUP2 PUSH4 0xA34B46FE EQ PUSH2 0x331 JUMPI DUP2 PUSH4 0xAB9027B0 EQ PUSH2 0x308 JUMPI DUP2 PUSH4 0xACE25895 EQ PUSH2 0x2C6 JUMPI DUP2 PUSH4 0xC1E3BD3E EQ PUSH2 0x23F JUMPI DUP2 PUSH4 0xE5656A5E EQ PUSH2 0x20D JUMPI DUP2 PUSH4 0xF2FDE38B EQ PUSH2 0x146 JUMPI POP PUSH4 0xF3F43703 EQ PUSH2 0x10C JUMPI PUSH1 0x0 DUP1 REVERT JUMPDEST CALLVALUE PUSH2 0x142 JUMPI PUSH1 0x20 CALLDATASIZE PUSH1 0x3 NOT ADD SLT PUSH2 0x142 JUMPI PUSH1 0x20 SWAP2 DUP2 SWAP1 PUSH1 0x1 PUSH1 0x1 PUSH1 0xA0 SHL SUB PUSH2 0x132 PUSH2 0x1289 JUMP JUMPDEST AND DUP2 MSTORE PUSH1 0x9 DUP5 MSTORE KECCAK256 SLOAD SWAP1 MLOAD SWAP1 DUP2 MSTORE RETURN JUMPDEST POP DUP1 REVERT JUMPDEST SWAP1 POP CALLVALUE PUSH2 0x209 JUMPI PUSH1 0x20 CALLDATASIZE PUSH1 0x3 NOT ADD SLT PUSH2 0x209 JUMPI PUSH2 0x161 PUSH2 0x1289 JUMP JUMPDEST SWAP1 PUSH2 0x16A PUSH2 0x1620 JUMP JUMPDEST PUSH1 0x1 PUSH1 0x1 PUSH1 0xA0 SHL SUB SWAP2 DUP3 AND SWAP3 DUP4 ISZERO PUSH2 0x1B7 JUMPI POP POP DUP3 SLOAD PUSH1 0x1 PUSH1 0x1 PUSH1 0xA0 SHL SUB NOT DUP2 AND DUP4 OR DUP5 SSTORE AND PUSH32 0x8BE0079C531659141344CD1FD0A4F28419497F9722A3DAAFE3B4186F6B6457E0 DUP4 DUP1 LOG3 DUP1 RETURN JUMPDEST SWAP1 PUSH1 0x20 PUSH1 0x84 SWAP3 MLOAD SWAP2 PUSH3 0x461BCD PUSH1 0xE5 SHL DUP4 MSTORE DUP3 ADD MSTORE PUSH1 0x26 PUSH1 0x24 DUP3 ADD MSTORE PUSH32 0x4F776E61626C653A206E6577206F776E657220697320746865207A65726F2061 PUSH1 0x44 DUP3 ADD MSTORE PUSH6 0x646472657373 PUSH1 0xD0 SHL PUSH1 0x64 DUP3 ADD MSTORE REVERT JUMPDEST DUP3 DUP1 REVERT JUMPDEST DUP3 DUP5 CALLVALUE PUSH2 0x23C JUMPI DUP2 PUSH1 0x3 NOT CALLDATASIZE ADD SLT PUSH2 0x23C JUMPI POP PUSH2 0x235 PUSH1 0x20 SWAP3 PUSH2 0x22E PUSH2 0x126E JUMP JUMPDEST SWAP1 CALLDATALOAD PUSH2 0x1495 JUMP JUMPDEST SWAP1 MLOAD SWAP1 DUP2 MSTORE RETURN JUMPDEST DUP1 REVERT JUMPDEST SWAP2 SWAP1 POP CALLVALUE PUSH2 0x209 JUMPI PUSH1 0x20 SWAP2 DUP3 PUSH1 0x3 NOT CALLDATASIZE ADD SLT PUSH2 0x2C2 JUMPI DUP1 CALLDATALOAD DUP5 MSTORE DUP3 MSTORE DUP1 DUP4 KECCAK256 DUP2 MLOAD SWAP1 DUP2 SWAP5 DUP6 SWAP3 DUP6 DUP4 SLOAD SWAP2 DUP3 DUP2 MSTORE ADD SWAP3 DUP3 MSTORE DUP6 DUP3 KECCAK256 SWAP2 JUMPDEST DUP7 DUP3 DUP3 LT PUSH2 0x2A2 JUMPI DUP6 SWAP1 PUSH2 0x29E DUP9 PUSH2 0x28F DUP5 DUP10 SUB DUP6 PUSH2 0x1353 JUMP JUMPDEST MLOAD SWAP3 DUP3 DUP5 SWAP4 DUP5 MSTORE DUP4 ADD SWAP1 PUSH2 0x12E3 JUMP JUMPDEST SUB SWAP1 RETURN JUMPDEST DUP4 SLOAD PUSH1 0x1 PUSH1 0x1 PUSH1 0xA0 SHL SUB AND DUP6 MSTORE DUP9 SWAP6 POP SWAP1 SWAP4 ADD SWAP3 PUSH1 0x1 SWAP3 DUP4 ADD SWAP3 ADD PUSH2 0x275 JUMP JUMPDEST DUP4 DUP1 REVERT JUMPDEST SWAP1 POP CALLVALUE PUSH2 0x209 JUMPI DUP2 PUSH1 0x3 NOT CALLDATASIZE ADD SLT PUSH2 0x209 JUMPI PUSH1 0x20 SWAP3 DUP3 SWAP2 PUSH2 0x2E5 PUSH2 0x126E JUMP JUMPDEST SWAP1 CALLDATALOAD DUP3 MSTORE PUSH1 0x5 DUP6 MSTORE DUP3 DUP3 KECCAK256 PUSH1 0x1 PUSH1 0x1 PUSH1 0xA0 SHL SUB SWAP1 SWAP2 AND DUP3 MSTORE DUP5 MSTORE KECCAK256 SLOAD SWAP1 MLOAD SWAP1 DUP2 MSTORE RETURN JUMPDEST POP POP CALLVALUE PUSH2 0x142 JUMPI DUP2 PUSH1 0x3 NOT CALLDATASIZE ADD SLT PUSH2 0x142 JUMPI PUSH1 0x8 SLOAD SWAP1 MLOAD PUSH1 0x1 PUSH1 0x1 PUSH1 0xA0 SHL SUB SWAP1 SWAP2 AND DUP2 MSTORE PUSH1 0x20 SWAP1 RETURN JUMPDEST DUP4 SWAP2 POP CALLVALUE PUSH2 0x142 JUMPI PUSH1 0x20 DUP1 PUSH1 0x3 NOT CALLDATASIZE ADD SLT PUSH2 0x209 JUMPI SWAP1 SWAP3 SWAP2 DUP4 CALLDATALOAD SWAP2 DUP3 DUP3 MSTORE DUP5 DUP2 MSTORE DUP4 DUP3 KECCAK256 SWAP1 DUP5 MLOAD SWAP2 DUP3 DUP3 DUP3 SLOAD SWAP2 DUP3 DUP2 MSTORE ADD SWAP2 DUP6 MSTORE DUP3 DUP6 KECCAK256 SWAP1 DUP6 JUMPDEST DUP2 DUP2 LT PUSH2 0x56E JUMPI POP POP POP DUP3 PUSH2 0x381 SWAP2 SUB DUP4 PUSH2 0x1353 JUMP JUMPDEST DUP2 MLOAD SWAP6 PUSH2 0x38D DUP8 PUSH2 0x1469 JUMP JUMPDEST SWAP7 PUSH2 0x39A DUP8 MLOAD SWAP9 DUP10 PUSH2 0x1353 JUMP JUMPDEST DUP1 DUP9 MSTORE PUSH2 0x3A6 DUP2 PUSH2 0x1469 JUMP JUMPDEST PUSH1 0x1F NOT SWAP7 SWAP1 DUP8 ADD CALLDATASIZE DUP11 DUP7 ADD CALLDATACOPY PUSH2 0x3BB DUP3 PUSH2 0x1469 JUMP JUMPDEST SWAP5 PUSH2 0x3C8 DUP10 MLOAD SWAP7 DUP8 PUSH2 0x1353 JUMP JUMPDEST DUP3 DUP7 MSTORE PUSH2 0x3D4 DUP4 PUSH2 0x1469 JUMP JUMPDEST DUP7 DUP7 ADD SWAP9 ADD CALLDATASIZE DUP10 CALLDATACOPY DUP7 JUMPDEST DUP4 DUP2 LT PUSH2 0x50B JUMPI POP POP POP DUP5 JUMPDEST DUP2 DUP2 LT PUSH2 0x43F JUMPI POP POP POP DUP1 PUSH2 0x408 DUP7 MLOAD SWAP8 DUP8 DUP10 SWAP9 DUP10 MSTORE DUP9 ADD SWAP1 PUSH2 0x12E3 JUMP JUMPDEST SWAP3 DUP7 DUP5 SUB DUP3 DUP9 ADD MSTORE MLOAD SWAP3 DUP4 DUP2 MSTORE ADD SWAP4 SWAP3 JUMPDEST DUP3 DUP2 LT PUSH2 0x428 JUMPI POP POP POP POP SUB SWAP1 RETURN JUMPDEST DUP4 MLOAD DUP6 MSTORE DUP7 SWAP6 POP SWAP4 DUP2 ADD SWAP4 SWAP3 DUP2 ADD SWAP3 PUSH1 0x1 ADD PUSH2 0x419 JUMP JUMPDEST PUSH1 0x1 SWAP9 SWAP4 SWAP6 SWAP5 SWAP7 SWAP8 SWAP9 DUP1 DUP3 ADD DUP1 DUP4 GT PUSH2 0x4F8 JUMPI JUMPDEST DUP4 DUP2 LT PUSH2 0x46B JUMPI POP POP PUSH1 0x1 ADD SWAP8 SWAP7 SWAP6 SWAP4 SWAP5 SWAP3 SWAP8 PUSH2 0x3EA JUMP JUMPDEST DUP1 PUSH2 0x477 DUP4 SWAP3 DUP12 PUSH2 0x1481 JUMP JUMPDEST MLOAD PUSH2 0x482 DUP6 DUP13 PUSH2 0x1481 JUMP JUMPDEST MLOAD LT PUSH2 0x48F JUMPI JUMPDEST ADD PUSH2 0x453 JUMP JUMPDEST PUSH1 0x1 PUSH1 0x1 PUSH1 0xA0 SHL SUB DUP1 PUSH2 0x4A2 DUP7 DUP11 PUSH2 0x1481 JUMP JUMPDEST MLOAD AND SWAP1 PUSH2 0x4AF DUP4 DUP11 PUSH2 0x1481 JUMP JUMPDEST MLOAD AND PUSH2 0x4BB DUP7 DUP11 PUSH2 0x1481 JUMP JUMPDEST MSTORE PUSH2 0x4C6 DUP3 DUP10 PUSH2 0x1481 JUMP JUMPDEST MSTORE PUSH2 0x4D1 DUP5 DUP12 PUSH2 0x1481 JUMP JUMPDEST MLOAD PUSH2 0x4DC DUP3 DUP13 PUSH2 0x1481 JUMP JUMPDEST MLOAD PUSH2 0x4E7 DUP7 DUP14 PUSH2 0x1481 JUMP JUMPDEST MSTORE PUSH2 0x4F2 DUP3 DUP13 PUSH2 0x1481 JUMP JUMPDEST MSTORE PUSH2 0x489 JUMP JUMPDEST PUSH4 0x4E487B71 PUSH1 0xE0 SHL DUP8 MSTORE PUSH1 0x11 DUP6 MSTORE PUSH1 0x24 DUP8 REVERT JUMPDEST SWAP9 SWAP10 SWAP8 SWAP9 SWAP6 SWAP8 SWAP5 SWAP7 SWAP6 PUSH1 0x1 SWAP1 PUSH1 0x1 PUSH1 0x1 PUSH1 0xA0 SHL SUB DUP1 PUSH2 0x52A DUP4 DUP7 PUSH2 0x1481 JUMP JUMPDEST MLOAD AND PUSH2 0x536 DUP4 DUP11 PUSH2 0x1481 JUMP JUMPDEST MSTORE DUP5 DUP10 MSTORE PUSH1 0x3 DUP11 MSTORE DUP13 DUP10 KECCAK256 SWAP1 PUSH2 0x54C DUP4 DUP7 PUSH2 0x1481 JUMP JUMPDEST MLOAD AND DUP10 MSTORE DUP10 MSTORE DUP12 DUP9 KECCAK256 SLOAD PUSH2 0x560 DUP3 DUP13 PUSH2 0x1481 JUMP JUMPDEST MSTORE ADD SWAP10 SWAP9 SWAP8 SWAP6 SWAP7 SWAP5 SWAP10 PUSH2 0x3DE JUMP JUMPDEST DUP3 SLOAD PUSH1 0x1 PUSH1 0x1 PUSH1 0xA0 SHL SUB AND DUP5 MSTORE SWAP3 DUP5 ADD SWAP3 PUSH1 0x1 SWAP3 DUP4 ADD SWAP3 ADD PUSH2 0x36B JUMP JUMPDEST SWAP1 POP CALLVALUE PUSH2 0x209 JUMPI PUSH1 0x20 CALLDATASIZE PUSH1 0x3 NOT ADD SLT PUSH2 0x209 JUMPI DUP2 PUSH2 0x120 SWAP4 DUP3 CALLDATALOAD DUP2 MSTORE PUSH1 0x2 PUSH1 0x20 MSTORE KECCAK256 SWAP2 DUP3 SLOAD SWAP3 PUSH1 0x1 DUP1 PUSH1 0xA0 SHL SUB SWAP2 DUP3 PUSH1 0x1 DUP4 ADD SLOAD AND SWAP4 PUSH1 0x2 DUP4 ADD SLOAD SWAP1 PUSH1 0x3 DUP5 ADD SLOAD SWAP1 DUP5 ADD SLOAD SWAP2 PUSH1 0x5 DUP6 ADD SLOAD SWAP4 PUSH1 0x7 PUSH1 0x6 DUP8 ADD SLOAD SWAP7 ADD SLOAD SWAP8 DUP2 MLOAD SWAP10 DUP11 MSTORE PUSH1 0x20 DUP11 ADD MSTORE DUP9 ADD MSTORE PUSH1 0x60 DUP8 ADD MSTORE PUSH1 0x80 DUP7 ADD MSTORE PUSH1 0xA0 DUP6 ADD MSTORE PUSH1 0xFF DUP2 AND ISZERO ISZERO PUSH1 0xC0 DUP6 ADD MSTORE PUSH1 0x8 SHR AND PUSH1 0xE0 DUP4 ADD MSTORE PUSH2 0x100 DUP3 ADD MSTORE RETURN JUMPDEST POP POP CALLVALUE PUSH2 0x142 JUMPI DUP2 PUSH1 0x3 NOT CALLDATASIZE ADD SLT PUSH2 0x142 JUMPI SWAP1 SLOAD SWAP1 MLOAD PUSH1 0x1 PUSH1 0x1 PUSH1 0xA0 SHL SUB SWAP1 SWAP2 AND DUP2 MSTORE PUSH1 0x20 SWAP1 RETURN JUMPDEST SWAP1 POP CALLVALUE PUSH2 0x209 JUMPI PUSH1 0x20 CALLDATASIZE PUSH1 0x3 NOT ADD SLT PUSH2 0x209 JUMPI PUSH1 0x20 SWAP3 DUP2 DUP4 SWAP3 CALLDATALOAD DUP3 MSTORE DUP5 MSTORE KECCAK256 SLOAD SWAP1 MLOAD SWAP1 DUP2 MSTORE RETURN JUMPDEST DUP4 DUP4 CALLVALUE PUSH2 0x142 JUMPI PUSH2 0x679 CALLDATASIZE PUSH2 0x129F JUMP JUMPDEST PUSH2 0x681 PUSH2 0x1620 JUMP JUMPDEST PUSH2 0xE10 DUP2 LT PUSH2 0x743 JUMPI PUSH1 0x7 SLOAD SWAP4 PUSH1 0x1 DUP6 ADD DUP1 DUP7 GT PUSH2 0x730 JUMPI PUSH1 0x20 SWAP7 PUSH1 0x7 SWAP2 DUP3 SSTORE DUP7 DUP4 MSTORE PUSH1 0x2 DUP9 MSTORE DUP6 DUP4 KECCAK256 SWAP1 DUP8 DUP3 SSTORE PUSH1 0x1 DUP3 ADD CALLER PUSH12 0xFFFFFFFFFFFFFFFFFFFFFFFF PUSH1 0xA0 SHL DUP3 SLOAD AND OR SWAP1 SSTORE DUP6 PUSH1 0x2 DUP4 ADD SSTORE DUP5 PUSH1 0x3 DUP4 ADD SSTORE TIMESTAMP SWAP1 DUP3 ADD SSTORE DUP3 PUSH1 0x5 DUP3 ADD SSTORE PUSH1 0x6 DUP2 ADD PUSH11 0xFFFFFFFFFFFFFFFFFFFFFF PUSH1 0xA8 SHL DUP2 SLOAD AND SWAP1 SSTORE ADD SSTORE DUP3 MLOAD SWAP2 DUP3 MSTORE DUP5 DUP3 ADD MSTORE DUP3 PUSH32 0x7C9C42EA4A98FF02E597498C394568923C74C2D3E031718AD08DBB59A42F03EB DUP4 CALLER SWAP4 LOG3 MLOAD SWAP1 DUP2 MSTORE RETURN JUMPDEST PUSH4 0x4E487B71 PUSH1 0xE0 SHL DUP3 MSTORE PUSH1 0x11 DUP8 MSTORE PUSH1 0x24 DUP3 REVERT JUMPDEST DUP3 MLOAD PUSH3 0x461BCD PUSH1 0xE5 SHL DUP2 MSTORE PUSH1 0x20 DUP2 DUP8 ADD DUP2 SWAP1 MSTORE PUSH1 0x24 DUP3 ADD MSTORE PUSH32 0x4475726174696F6E206D757374206265206174206C65617374203120686F7572 PUSH1 0x44 DUP3 ADD MSTORE PUSH1 0x64 SWAP1 REVERT JUMPDEST SWAP1 POP CALLVALUE PUSH2 0x209 JUMPI PUSH2 0x796 CALLDATASIZE PUSH2 0x129F JUMP JUMPDEST SWAP3 SWAP1 SWAP2 PUSH2 0x7A1 PUSH2 0x15CA JUMP JUMPDEST DUP3 DUP6 MSTORE PUSH1 0x20 SWAP1 PUSH1 0x2 DUP3 MSTORE DUP3 DUP7 KECCAK256 PUSH2 0x7BA DUP2 SLOAD ISZERO ISZERO PUSH2 0x1375 JUMP JUMPDEST PUSH1 0x6 DUP2 ADD SWAP2 PUSH2 0x7CD PUSH1 0xFF DUP5 SLOAD AND ISZERO PUSH2 0x13C1 JUMP JUMPDEST PUSH2 0x7E9 PUSH2 0x7E2 DUP3 DUP5 ADD SLOAD PUSH1 0x3 DUP6 ADD SLOAD SWAP1 PUSH2 0x1406 JUMP JUMPDEST TIMESTAMP LT PUSH2 0x1429 JUMP JUMPDEST DUP7 ISZERO PUSH2 0x938 JUMPI DUP6 DUP9 MSTORE PUSH1 0x6 DUP5 MSTORE DUP5 DUP9 KECCAK256 CALLER DUP10 MSTORE DUP5 MSTORE PUSH1 0xFF DUP6 DUP10 KECCAK256 SLOAD AND ISZERO PUSH2 0x8F5 JUMPI DUP6 DUP9 MSTORE PUSH1 0x3 DUP5 MSTORE DUP5 DUP9 KECCAK256 CALLER DUP10 MSTORE DUP5 MSTORE DUP5 DUP9 KECCAK256 SLOAD DUP8 GT ISZERO PUSH2 0x8B2 JUMPI POP SWAP1 DUP6 PUSH1 0x7 PUSH32 0xD0D8829ED5C85447FF7F11F919D541DD197EFFA10F32914186D91CFCAD32F439 SWAP6 SWAP5 SWAP4 DUP8 DUP11 MSTORE PUSH1 0x3 DUP6 MSTORE DUP6 DUP11 KECCAK256 CALLER DUP12 MSTORE DUP6 MSTORE DUP3 DUP7 DUP12 KECCAK256 SSTORE ADD DUP1 SLOAD DUP3 GT PUSH2 0x88B JUMPI JUMPDEST POP POP POP PUSH2 0x878 CALLER DUP6 PUSH2 0x1495 JUMP JUMPDEST SWAP1 DUP3 MLOAD SWAP6 DUP7 MSTORE DUP6 ADD MSTORE CALLER SWAP4 LOG3 PUSH1 0x1 DUP1 SSTORE DUP1 RETURN JUMPDEST SSTORE DUP1 SLOAD PUSH2 0x100 PUSH1 0x1 PUSH1 0xA8 SHL SUB NOT AND CALLER PUSH1 0x8 SHL PUSH2 0x100 PUSH1 0x1 PUSH1 0xA8 SHL SUB AND OR SWAP1 SSTORE CODESIZE DUP6 DUP2 PUSH2 0x86B JUMP JUMPDEST DUP5 MLOAD PUSH3 0x461BCD PUSH1 0xE5 SHL DUP2 MSTORE SWAP1 DUP2 ADD DUP5 SWAP1 MSTORE PUSH1 0x17 PUSH1 0x24 DUP3 ADD MSTORE PUSH32 0x53636F72652063616E206F6E6C7920696E637265617365000000000000000000 PUSH1 0x44 DUP3 ADD MSTORE PUSH1 0x64 SWAP1 REVERT JUMPDEST DUP5 MLOAD PUSH3 0x461BCD PUSH1 0xE5 SHL DUP2 MSTORE SWAP1 DUP2 ADD DUP5 SWAP1 MSTORE PUSH1 0x1D PUSH1 0x24 DUP3 ADD MSTORE PUSH32 0x4E6F742070617274696369706174656420696E206368616C6C656E6765000000 PUSH1 0x44 DUP3 ADD MSTORE PUSH1 0x64 SWAP1 REVERT JUMPDEST DUP5 MLOAD PUSH3 0x461BCD PUSH1 0xE5 SHL DUP2 MSTORE SWAP1 DUP2 ADD DUP5 SWAP1 MSTORE PUSH1 0x1F PUSH1 0x24 DUP3 ADD MSTORE PUSH32 0x53636F7265206D7573742062652067726561746572207468616E207A65726F00 PUSH1 0x44 DUP3 ADD MSTORE PUSH1 0x64 SWAP1 REVERT JUMPDEST DUP3 DUP5 CALLVALUE PUSH2 0x23C JUMPI PUSH2 0x98B CALLDATASIZE PUSH2 0x129F JUMP JUMPDEST SWAP4 SWAP1 DUP3 MSTORE PUSH1 0x20 MSTORE DUP2 DUP2 KECCAK256 SWAP1 DUP2 SLOAD DUP5 LT ISZERO PUSH2 0x23C JUMPI POP PUSH1 0x20 SWAP3 PUSH2 0x9AC SWAP2 PUSH2 0x12B5 JUMP JUMPDEST SWAP1 SLOAD SWAP2 MLOAD SWAP2 PUSH1 0x1 DUP1 PUSH1 0xA0 SHL SUB SWAP2 PUSH1 0x3 SHL SHR AND DUP2 MSTORE RETURN JUMPDEST SWAP1 POP CALLVALUE PUSH2 0x209 JUMPI DUP2 PUSH1 0x3 NOT CALLDATASIZE ADD SLT PUSH2 0x209 JUMPI PUSH1 0x20 SWAP3 DUP3 SWAP2 PUSH2 0x9E1 PUSH2 0x126E JUMP JUMPDEST SWAP1 CALLDATALOAD DUP3 MSTORE PUSH1 0x3 DUP6 MSTORE DUP3 DUP3 KECCAK256 PUSH1 0x1 PUSH1 0x1 PUSH1 0xA0 SHL SUB SWAP1 SWAP2 AND DUP3 MSTORE DUP5 MSTORE KECCAK256 SLOAD SWAP1 MLOAD SWAP1 DUP2 MSTORE RETURN JUMPDEST DUP4 CALLVALUE PUSH2 0x23C JUMPI DUP1 PUSH1 0x3 NOT CALLDATASIZE ADD SLT PUSH2 0x23C JUMPI PUSH2 0xA1D PUSH2 0x1620 JUMP JUMPDEST DUP1 SLOAD PUSH1 0x1 PUSH1 0x1 PUSH1 0xA0 SHL SUB NOT DUP2 AND DUP3 SSTORE DUP2 SWAP1 PUSH1 0x1 PUSH1 0x1 PUSH1 0xA0 SHL SUB AND PUSH32 0x8BE0079C531659141344CD1FD0A4F28419497F9722A3DAAFE3B4186F6B6457E0 DUP3 DUP1 LOG3 DUP1 RETURN JUMPDEST POP POP CALLVALUE PUSH2 0x142 JUMPI DUP2 PUSH1 0x3 NOT CALLDATASIZE ADD SLT PUSH2 0x142 JUMPI PUSH1 0x20 SWAP1 PUSH1 0x7 SLOAD SWAP1 MLOAD SWAP1 DUP2 MSTORE RETURN JUMPDEST DUP4 SWAP2 POP CALLVALUE PUSH2 0x142 JUMPI PUSH1 0x20 DUP1 PUSH1 0x3 NOT CALLDATASIZE ADD SLT PUSH2 0x209 JUMPI DUP2 CALLDATALOAD SWAP1 PUSH2 0xA9D PUSH2 0x1620 JUMP JUMPDEST PUSH2 0xAA5 PUSH2 0x15CA JUMP JUMPDEST DUP2 DUP5 MSTORE PUSH1 0x2 DUP2 MSTORE DUP5 DUP5 KECCAK256 SWAP5 PUSH2 0xABC DUP7 SLOAD ISZERO ISZERO PUSH2 0x1375 JUMP JUMPDEST PUSH1 0x6 DUP7 ADD SWAP4 DUP5 SLOAD PUSH1 0xFF DUP2 AND PUSH2 0xCFD JUMPI DUP2 DUP9 ADD SLOAD PUSH2 0xAE0 PUSH1 0x3 SWAP2 PUSH1 0x3 DUP12 ADD SLOAD SWAP1 PUSH2 0x1406 JUMP JUMPDEST TIMESTAMP LT PUSH2 0xCC1 JUMPI PUSH1 0x1 DUP1 SWAP3 PUSH1 0xFF NOT AND OR DUP1 DUP9 SSTORE PUSH1 0x1 DUP1 PUSH1 0xA0 SHL SUB SWAP4 DUP5 PUSH1 0x8 SWAP3 PUSH1 0x8 SHR AND SWAP3 DUP4 PUSH2 0xB11 JUMPI JUMPDEST DUP11 PUSH1 0x1 DUP1 SSTORE DUP1 RETURN JUMPDEST DUP9 DUP12 MSTORE DUP2 DUP9 MSTORE DUP7 DUP12 KECCAK256 SLOAD SWAP3 PUSH1 0x1 DUP5 SUB PUSH2 0xB90 JUMPI POP POP POP POP POP POP PUSH1 0x5 PUSH32 0x65A8B6841034F85EE47CE3B451AE9348CE320BB1BBFA24551F637873754F373C SWAP5 SWAP6 SWAP7 SWAP8 ADD SWAP6 DUP7 SLOAD DUP3 DUP3 SLOAD PUSH1 0x8 SHR AND DUP10 MSTORE PUSH1 0x9 DUP6 MSTORE PUSH2 0xB70 DUP5 DUP11 KECCAK256 SWAP2 DUP3 SLOAD PUSH2 0x1406 JUMP JUMPDEST SWAP1 SSTORE SLOAD PUSH1 0x8 SHR AND SWAP5 SLOAD SWAP1 MLOAD SWAP1 DUP2 MSTORE LOG3 JUMPDEST DUP1 DUP3 DUP1 DUP1 DUP1 DUP1 DUP1 DUP1 DUP1 DUP1 DUP1 PUSH2 0xB09 JUMP JUMPDEST SWAP1 SWAP2 SWAP3 SWAP4 SWAP7 SWAP10 SWAP5 SWAP12 PUSH1 0x5 ADD SLOAD SWAP2 PUSH1 0x46 DUP4 MUL DUP4 DUP2 DIV PUSH1 0x46 EQ DUP5 ISZERO OR ISZERO PUSH2 0xCAE JUMPI PUSH1 0x64 SWAP1 DIV SWAP8 DUP9 DUP5 SUB SWAP4 DUP5 GT PUSH2 0xCAE JUMPI DUP13 MSTORE PUSH1 0x9 SWAP3 PUSH1 0x9 DUP11 MSTORE DUP12 DUP14 KECCAK256 PUSH2 0xBD5 DUP11 DUP3 SLOAD PUSH2 0x1406 JUMP JUMPDEST SWAP1 SSTORE PUSH1 0x0 NOT DUP7 ADD SWAP1 DUP7 DUP3 GT PUSH2 0xC9B JUMPI DUP2 ISZERO PUSH2 0xC88 JUMPI DIV SWAP4 DUP13 JUMPDEST DUP7 DUP2 LT PUSH2 0xC32 JUMPI POP POP POP POP POP POP POP PUSH32 0x65A8B6841034F85EE47CE3B451AE9348CE320BB1BBFA24551F637873754F373C SWAP5 SWAP6 SWAP7 SWAP8 POP SLOAD PUSH1 0x8 SHR AND SWAP5 MLOAD SWAP1 DUP2 MSTORE LOG3 PUSH2 0xB80 JUMP JUMPDEST DUP15 SWAP1 DUP14 DUP16 DUP8 DUP16 DUP16 SWAP1 DUP15 DUP15 SWAP2 DUP6 MSTORE DUP9 DUP4 MSTORE DUP1 PUSH2 0xC4F DUP9 DUP9 DUP9 KECCAK256 PUSH2 0x12B5 JUMP JUMPDEST SWAP1 SLOAD SWAP1 DUP13 SHL SHR AND SWAP2 SLOAD DUP12 SHR AND DUP2 SUB PUSH2 0xC6D JUMPI JUMPDEST POP POP POP POP POP ADD PUSH2 0xBEE JUMP JUMPDEST DUP4 MSTORE MSTORE KECCAK256 PUSH2 0xC7C DUP9 DUP3 SLOAD PUSH2 0x1406 JUMP JUMPDEST SWAP1 SSTORE DUP14 DUP16 DUP8 DUP15 CODESIZE PUSH2 0xC62 JUMP JUMPDEST PUSH4 0x4E487B71 PUSH1 0xE0 SHL DUP15 MSTORE PUSH1 0x12 DUP7 MSTORE PUSH1 0x24 DUP15 REVERT JUMPDEST PUSH4 0x4E487B71 PUSH1 0xE0 SHL DUP15 MSTORE PUSH1 0x11 DUP7 MSTORE PUSH1 0x24 DUP15 REVERT JUMPDEST PUSH4 0x4E487B71 PUSH1 0xE0 SHL DUP14 MSTORE PUSH1 0x11 DUP6 MSTORE PUSH1 0x24 DUP14 REVERT JUMPDEST DUP4 MLOAD PUSH3 0x461BCD PUSH1 0xE5 SHL DUP2 MSTORE DUP1 DUP5 ADD DUP7 SWAP1 MSTORE PUSH1 0x16 PUSH1 0x24 DUP3 ADD MSTORE PUSH22 0x4368616C6C656E6765207374696C6C20616374697665 PUSH1 0x50 SHL PUSH1 0x44 DUP3 ADD MSTORE PUSH1 0x64 SWAP1 REVERT JUMPDEST POP DUP3 PUSH1 0x64 SWAP3 MLOAD SWAP2 PUSH3 0x461BCD PUSH1 0xE5 SHL DUP4 MSTORE DUP3 ADD MSTORE PUSH1 0x1B PUSH1 0x24 DUP3 ADD MSTORE PUSH32 0x4368616C6C656E676520616C72656164792066696E616C697A65640000000000 PUSH1 0x44 DUP3 ADD MSTORE REVERT JUMPDEST SWAP2 SWAP1 POP CALLVALUE PUSH2 0x209 JUMPI DUP3 PUSH1 0x3 NOT CALLDATASIZE ADD SLT PUSH2 0x209 JUMPI PUSH2 0xD5A PUSH2 0x15CA JUMP JUMPDEST CALLER DUP4 MSTORE PUSH1 0x20 SWAP1 PUSH1 0x9 DUP3 MSTORE DUP1 DUP5 KECCAK256 SLOAD SWAP3 DUP4 ISZERO PUSH2 0xE3C JUMPI CALLER DUP6 MSTORE PUSH1 0x9 DUP4 MSTORE DUP5 DUP3 DUP2 KECCAK256 SSTORE DUP5 DUP1 DUP1 DUP1 DUP8 CALLER GAS CALL RETURNDATASIZE ISZERO PUSH2 0xE37 JUMPI RETURNDATASIZE PUSH8 0xFFFFFFFFFFFFFFFF DUP2 GT PUSH2 0xE24 JUMPI DUP4 MLOAD SWAP1 PUSH2 0xDAF PUSH1 0x1F DUP3 ADD PUSH1 0x1F NOT AND DUP8 ADD DUP4 PUSH2 0x1353 JUMP JUMPDEST DUP2 MSTORE DUP7 DUP6 RETURNDATASIZE SWAP3 ADD RETURNDATACOPY JUMPDEST ISZERO PUSH2 0xDEF JUMPI POP SWAP1 PUSH32 0x5ABB0FC89DEF2EE3226CC48F5621EE8E2B45F6DCC7898D2BDB5D480533C32BC0 SWAP2 MLOAD SWAP3 DUP4 MSTORE CALLER SWAP3 LOG2 PUSH1 0x1 DUP1 SSTORE DUP1 RETURN JUMPDEST DUP3 PUSH1 0x64 SWAP3 MLOAD SWAP2 PUSH3 0x461BCD PUSH1 0xE5 SHL DUP4 MSTORE DUP3 ADD MSTORE PUSH1 0x11 PUSH1 0x24 DUP3 ADD MSTORE PUSH17 0x15DA5D1A191C985DD85B0819985A5B1959 PUSH1 0x7A SHL PUSH1 0x44 DUP3 ADD MSTORE REVERT JUMPDEST PUSH4 0x4E487B71 PUSH1 0xE0 SHL DUP8 MSTORE PUSH1 0x41 DUP4 MSTORE PUSH1 0x24 DUP8 REVERT JUMPDEST PUSH2 0xDB8 JUMP JUMPDEST DUP3 PUSH1 0x64 SWAP3 MLOAD SWAP2 PUSH3 0x461BCD PUSH1 0xE5 SHL DUP4 MSTORE DUP3 ADD MSTORE PUSH1 0x16 PUSH1 0x24 DUP3 ADD MSTORE PUSH22 0x4E6F2070656E64696E67207769746864726177616C73 PUSH1 0x50 SHL PUSH1 0x44 DUP3 ADD MSTORE REVERT JUMPDEST SWAP2 SWAP1 POP PUSH1 0x20 DUP1 PUSH1 0x3 NOT CALLDATASIZE ADD SLT PUSH2 0x2C2 JUMPI DUP3 CALLDATALOAD SWAP3 PUSH2 0xE91 PUSH2 0x15CA JUMP JUMPDEST DUP4 DUP6 MSTORE PUSH1 0x2 DUP3 MSTORE DUP3 DUP6 KECCAK256 SWAP1 PUSH2 0xEA8 DUP3 SLOAD ISZERO ISZERO PUSH2 0x1375 JUMP JUMPDEST PUSH1 0x2 DUP3 ADD SLOAD CALLVALUE SUB PUSH2 0x10CE JUMPI PUSH2 0xEC4 PUSH1 0xFF PUSH1 0x6 DUP5 ADD SLOAD AND ISZERO PUSH2 0x13C1 JUMP JUMPDEST PUSH2 0xED9 PUSH2 0x7E2 DUP3 DUP5 ADD SLOAD PUSH1 0x3 DUP6 ADD SLOAD SWAP1 PUSH2 0x1406 JUMP JUMPDEST PUSH1 0x8 SLOAD DUP5 MLOAD PUSH4 0x1747098D PUSH1 0xE2 SHL DUP2 MSTORE CALLER DUP4 DUP3 ADD MSTORE PUSH1 0x1 PUSH1 0x1 PUSH1 0xA0 SHL SUB SWAP4 SWAP2 DUP6 SWAP1 DUP3 SWAP1 PUSH1 0x24 SWAP1 DUP3 SWAP1 DUP9 AND GAS STATICCALL SWAP1 DUP2 ISZERO PUSH2 0x10C4 JUMPI DUP9 SWAP2 PUSH2 0x1093 JUMPI JUMPDEST POP ISZERO PUSH2 0x1050 JUMPI DUP6 DUP8 MSTORE PUSH1 0x6 DUP5 MSTORE DUP5 DUP8 KECCAK256 CALLER DUP9 MSTORE DUP5 MSTORE PUSH1 0xFF DUP6 DUP9 KECCAK256 SLOAD AND PUSH2 0x100D JUMPI PUSH1 0x5 ADD PUSH2 0xF40 CALLVALUE DUP3 SLOAD PUSH2 0x1406 JUMP JUMPDEST SWAP1 SSTORE DUP5 DUP7 MSTORE DUP1 DUP4 MSTORE DUP4 DUP7 KECCAK256 SLOAD PUSH1 0x5 DUP5 MSTORE DUP5 DUP8 KECCAK256 CALLER DUP9 MSTORE DUP5 MSTORE DUP5 DUP8 KECCAK256 SSTORE DUP5 DUP7 MSTORE DUP1 DUP4 MSTORE DUP4 DUP7 KECCAK256 DUP1 SLOAD SWAP2 PUSH9 0x10000000000000000 DUP4 LT ISZERO PUSH2 0xFFA JUMPI POP SWAP1 PUSH2 0xF8A SWAP2 PUSH1 0x1 DUP3 ADD DUP2 SSTORE PUSH2 0x12B5 JUMP JUMPDEST DUP2 SWAP3 SWAP2 SLOAD SWAP1 PUSH1 0x3 SHL SWAP2 CALLER DUP4 SHL SWAP3 SHL NOT AND OR SWAP1 SSTORE DUP3 DUP5 MSTORE PUSH1 0x3 DUP2 MSTORE DUP2 DUP5 KECCAK256 CALLER DUP6 MSTORE DUP2 MSTORE DUP4 DUP3 DUP2 KECCAK256 SSTORE DUP3 DUP5 MSTORE PUSH1 0x6 DUP2 MSTORE DUP2 DUP5 KECCAK256 SWAP1 CALLER DUP6 MSTORE MSTORE DUP3 KECCAK256 PUSH1 0x1 PUSH1 0xFF NOT DUP3 SLOAD AND OR SWAP1 SSTORE CALLER SWAP1 PUSH32 0x7076B6D580C0523456EB58B88D88DC6937AF3562EAA19A4A16AF788569478128 DUP4 DUP1 LOG3 PUSH1 0x1 DUP1 SSTORE DUP1 RETURN JUMPDEST PUSH4 0x4E487B71 PUSH1 0xE0 SHL DUP9 MSTORE PUSH1 0x41 SWAP1 MSTORE PUSH1 0x24 DUP8 REVERT JUMPDEST DUP5 MLOAD PUSH3 0x461BCD PUSH1 0xE5 SHL DUP2 MSTORE DUP1 DUP4 ADD DUP6 SWAP1 MSTORE PUSH1 0x19 PUSH1 0x24 DUP3 ADD MSTORE PUSH32 0x416C726561647920656E7465726564206368616C6C656E676500000000000000 PUSH1 0x44 DUP3 ADD MSTORE PUSH1 0x64 SWAP1 REVERT JUMPDEST DUP5 MLOAD PUSH3 0x461BCD PUSH1 0xE5 SHL DUP2 MSTORE DUP1 DUP4 ADD DUP6 SWAP1 MSTORE PUSH1 0x18 PUSH1 0x24 DUP3 ADD MSTORE PUSH32 0x4D757374206D696E742070617373706F72742066697273740000000000000000 PUSH1 0x44 DUP3 ADD MSTORE PUSH1 0x64 SWAP1 REVERT JUMPDEST SWAP1 POP DUP5 DUP2 DUP2 RETURNDATASIZE DUP4 GT PUSH2 0x10BD JUMPI JUMPDEST PUSH2 0x10AA DUP2 DUP4 PUSH2 0x1353 JUMP JUMPDEST DUP2 ADD SUB SLT PUSH2 0x10B9 JUMPI MLOAD CODESIZE PUSH2 0xF12 JUMP JUMPDEST DUP8 DUP1 REVERT JUMPDEST POP RETURNDATASIZE PUSH2 0x10A0 JUMP JUMPDEST DUP7 MLOAD RETURNDATASIZE DUP11 DUP3 RETURNDATACOPY RETURNDATASIZE SWAP1 REVERT JUMPDEST DUP4 MLOAD PUSH3 0x461BCD PUSH1 0xE5 SHL DUP2 MSTORE SWAP1 DUP2 ADD DUP4 SWAP1 MSTORE PUSH1 0x13 PUSH1 0x24 DUP3 ADD MSTORE PUSH19 0x496E636F727265637420656E74727920666565 PUSH1 0x68 SHL PUSH1 0x44 DUP3 ADD MSTORE PUSH1 0x64 SWAP1 REVERT JUMPDEST SWAP1 POP CALLVALUE PUSH2 0x209 JUMPI PUSH1 0x20 CALLDATASIZE PUSH1 0x3 NOT ADD SLT PUSH2 0x209 JUMPI SWAP2 PUSH1 0xFF PUSH2 0x120 SWAP4 DUP4 DUP1 MLOAD SWAP4 PUSH2 0x112E DUP6 PUSH2 0x1320 JUMP JUMPDEST DUP1 DUP6 MSTORE DUP1 PUSH1 0x20 DUP7 ADD MSTORE DUP1 DUP3 DUP7 ADD MSTORE DUP1 PUSH1 0x60 DUP7 ADD MSTORE DUP1 PUSH1 0x80 DUP7 ADD MSTORE DUP1 PUSH1 0xA0 DUP7 ADD MSTORE DUP1 PUSH1 0xC0 DUP7 ADD MSTORE DUP1 PUSH1 0xE0 DUP7 ADD MSTORE DUP1 PUSH2 0x100 DUP1 SWAP7 ADD MSTORE DUP3 CALLDATALOAD DUP2 MSTORE PUSH1 0x2 PUSH1 0x20 MSTORE KECCAK256 DUP5 MLOAD SWAP3 DUP4 SWAP2 PUSH2 0x117A DUP4 PUSH2 0x1320 JUMP JUMPDEST DUP1 SLOAD SWAP7 DUP8 DUP5 MSTORE PUSH1 0x1 DUP1 PUSH1 0xA0 SHL SUB SWAP5 DUP6 PUSH1 0x1 DUP5 ADD SLOAD AND SWAP2 PUSH1 0x20 DUP7 ADD SWAP3 DUP4 MSTORE PUSH1 0x2 DUP5 ADD SLOAD DUP2 DUP8 ADD SWAP1 DUP2 MSTORE DUP8 PUSH1 0x3 DUP7 ADD SLOAD SWAP4 PUSH1 0x60 DUP10 ADD SWAP5 DUP6 MSTORE DUP7 ADD SLOAD SWAP5 PUSH1 0x80 DUP10 ADD SWAP6 DUP7 MSTORE DUP12 PUSH1 0x7 PUSH1 0x5 DUP10 ADD SLOAD SWAP9 PUSH1 0xA0 DUP13 ADD SWAP10 DUP11 MSTORE DUP5 PUSH1 0xE0 PUSH1 0x6 DUP4 ADD SLOAD SWAP14 DUP15 PUSH1 0xC0 DUP3 ADD SWAP15 DUP16 SWAP2 AND ISZERO ISZERO SWAP1 MSTORE ADD SWAP13 PUSH1 0x8 SHR AND DUP13 MSTORE ADD SLOAD SWAP12 ADD SWAP11 DUP12 MSTORE DUP4 MLOAD SWAP13 DUP14 MSTORE MLOAD AND PUSH1 0x20 DUP13 ADD MSTORE MLOAD SWAP1 DUP11 ADD MSTORE MLOAD PUSH1 0x60 DUP10 ADD MSTORE MLOAD PUSH1 0x80 DUP9 ADD MSTORE MLOAD PUSH1 0xA0 DUP8 ADD MSTORE MLOAD ISZERO ISZERO PUSH1 0xC0 DUP7 ADD MSTORE MLOAD AND PUSH1 0xE0 DUP5 ADD MSTORE MLOAD SWAP1 DUP3 ADD MSTORE RETURN JUMPDEST SWAP3 SWAP2 POP CALLVALUE PUSH2 0x2C2 JUMPI DUP2 PUSH1 0x3 NOT CALLDATASIZE ADD SLT PUSH2 0x2C2 JUMPI SWAP1 PUSH1 0x20 SWAP4 PUSH1 0xFF SWAP3 PUSH2 0x124B PUSH2 0x126E JUMP JUMPDEST SWAP1 CALLDATALOAD DUP3 MSTORE PUSH1 0x6 DUP7 MSTORE DUP3 DUP3 KECCAK256 PUSH1 0x1 PUSH1 0x1 PUSH1 0xA0 SHL SUB SWAP1 SWAP2 AND DUP3 MSTORE DUP6 MSTORE KECCAK256 SLOAD AND ISZERO ISZERO DUP2 MSTORE RETURN JUMPDEST PUSH1 0x24 CALLDATALOAD SWAP1 PUSH1 0x1 PUSH1 0x1 PUSH1 0xA0 SHL SUB DUP3 AND DUP3 SUB PUSH2 0x1284 JUMPI JUMP JUMPDEST PUSH1 0x0 DUP1 REVERT JUMPDEST PUSH1 0x4 CALLDATALOAD SWAP1 PUSH1 0x1 PUSH1 0x1 PUSH1 0xA0 SHL SUB DUP3 AND DUP3 SUB PUSH2 0x1284 JUMPI JUMP JUMPDEST PUSH1 0x40 SWAP1 PUSH1 0x3 NOT ADD SLT PUSH2 0x1284 JUMPI PUSH1 0x4 CALLDATALOAD SWAP1 PUSH1 0x24 CALLDATALOAD SWAP1 JUMP JUMPDEST DUP1 SLOAD DUP3 LT ISZERO PUSH2 0x12CD JUMPI PUSH1 0x0 MSTORE PUSH1 0x20 PUSH1 0x0 KECCAK256 ADD SWAP1 PUSH1 0x0 SWAP1 JUMP JUMPDEST PUSH4 0x4E487B71 PUSH1 0xE0 SHL PUSH1 0x0 MSTORE PUSH1 0x32 PUSH1 0x4 MSTORE PUSH1 0x24 PUSH1 0x0 REVERT JUMPDEST SWAP1 DUP2 MLOAD DUP1 DUP3 MSTORE PUSH1 0x20 DUP1 DUP1 SWAP4 ADD SWAP4 ADD SWAP2 PUSH1 0x0 JUMPDEST DUP3 DUP2 LT PUSH2 0x1303 JUMPI POP POP POP POP SWAP1 JUMP JUMPDEST DUP4 MLOAD PUSH1 0x1 PUSH1 0x1 PUSH1 0xA0 SHL SUB AND DUP6 MSTORE SWAP4 DUP2 ADD SWAP4 SWAP3 DUP2 ADD SWAP3 PUSH1 0x1 ADD PUSH2 0x12F5 JUMP JUMPDEST PUSH2 0x120 DUP2 ADD SWAP1 DUP2 LT PUSH8 0xFFFFFFFFFFFFFFFF DUP3 GT OR PUSH2 0x133D JUMPI PUSH1 0x40 MSTORE JUMP JUMPDEST PUSH4 0x4E487B71 PUSH1 0xE0 SHL PUSH1 0x0 MSTORE PUSH1 0x41 PUSH1 0x4 MSTORE PUSH1 0x24 PUSH1 0x0 REVERT JUMPDEST SWAP1 PUSH1 0x1F DUP1 NOT SWAP2 ADD AND DUP2 ADD SWAP1 DUP2 LT PUSH8 0xFFFFFFFFFFFFFFFF DUP3 GT OR PUSH2 0x133D JUMPI PUSH1 0x40 MSTORE JUMP JUMPDEST ISZERO PUSH2 0x137C JUMPI JUMP JUMPDEST PUSH1 0x40 MLOAD PUSH3 0x461BCD PUSH1 0xE5 SHL DUP2 MSTORE PUSH1 0x20 PUSH1 0x4 DUP3 ADD MSTORE PUSH1 0x18 PUSH1 0x24 DUP3 ADD MSTORE PUSH32 0x4368616C6C656E676520646F6573206E6F742065786973740000000000000000 PUSH1 0x44 DUP3 ADD MSTORE PUSH1 0x64 SWAP1 REVERT JUMPDEST ISZERO PUSH2 0x13C8 JUMPI JUMP JUMPDEST PUSH1 0x40 MLOAD PUSH3 0x461BCD PUSH1 0xE5 SHL DUP2 MSTORE PUSH1 0x20 PUSH1 0x4 DUP3 ADD MSTORE PUSH1 0x16 PUSH1 0x24 DUP3 ADD MSTORE PUSH22 0x10DA185B1B195B99D9481A5CC8199A5B985B1A5E9959 PUSH1 0x52 SHL PUSH1 0x44 DUP3 ADD MSTORE PUSH1 0x64 SWAP1 REVERT JUMPDEST SWAP2 SWAP1 DUP3 ADD DUP1 SWAP3 GT PUSH2 0x1413 JUMPI JUMP JUMPDEST PUSH4 0x4E487B71 PUSH1 0xE0 SHL PUSH1 0x0 MSTORE PUSH1 0x11 PUSH1 0x4 MSTORE PUSH1 0x24 PUSH1 0x0 REVERT JUMPDEST ISZERO PUSH2 0x1430 JUMPI JUMP JUMPDEST PUSH1 0x40 MLOAD PUSH3 0x461BCD PUSH1 0xE5 SHL DUP2 MSTORE PUSH1 0x20 PUSH1 0x4 DUP3 ADD MSTORE PUSH1 0x11 PUSH1 0x24 DUP3 ADD MSTORE PUSH17 0x10DA185B1B195B99D948195E1C1A5C9959 PUSH1 0x7A SHL PUSH1 0x44 DUP3 ADD MSTORE PUSH1 0x64 SWAP1 REVERT JUMPDEST PUSH8 0xFFFFFFFFFFFFFFFF DUP2 GT PUSH2 0x133D JUMPI PUSH1 0x5 SHL PUSH1 0x20 ADD SWAP1 JUMP JUMPDEST DUP1 MLOAD DUP3 LT ISZERO PUSH2 0x12CD JUMPI PUSH1 0x20 SWAP2 PUSH1 0x5 SHL ADD ADD SWAP1 JUMP JUMPDEST PUSH1 0x0 DUP2 DUP2 MSTORE PUSH1 0x3 PUSH1 0x20 DUP2 DUP2 MSTORE PUSH1 0x40 DUP1 DUP5 KECCAK256 PUSH1 0x1 PUSH1 0x1 PUSH1 0xA0 SHL SUB SWAP7 DUP8 AND DUP6 MSTORE DUP3 MSTORE DUP1 DUP5 KECCAK256 SLOAD SWAP3 SWAP7 SWAP6 SWAP5 SWAP1 SWAP2 DUP4 ISZERO PUSH2 0x1587 JUMPI PUSH1 0x1 SWAP6 DUP3 DUP7 MSTORE PUSH1 0x4 SWAP9 PUSH1 0x4 DUP4 MSTORE DUP5 DUP8 KECCAK256 SWAP4 DUP6 MLOAD DUP1 DUP7 DUP7 DUP3 SWAP9 SLOAD SWAP4 DUP5 DUP2 MSTORE ADD SWAP1 DUP12 MSTORE DUP7 DUP12 KECCAK256 SWAP3 DUP12 JUMPDEST DUP14 DUP10 DUP4 DUP4 LT PUSH2 0x1570 JUMPI POP POP POP POP PUSH2 0x1505 SWAP3 POP SUB DUP7 PUSH2 0x1353 JUMP JUMPDEST DUP8 JUMPDEST DUP6 MLOAD DUP2 LT ISZERO PUSH2 0x1562 JUMPI DUP2 DUP10 MSTORE DUP3 DUP6 MSTORE DUP7 DUP10 KECCAK256 DUP5 PUSH2 0x1524 DUP4 DUP10 PUSH2 0x1481 JUMP JUMPDEST MLOAD AND DUP11 MSTORE DUP6 MSTORE DUP8 DUP8 DUP11 KECCAK256 SLOAD GT PUSH2 0x153D JUMPI JUMPDEST PUSH1 0x1 ADD PUSH2 0x1507 JUMP JUMPDEST SWAP9 PUSH1 0x1 DUP2 ADD DUP1 SWAP2 GT PUSH2 0x154F JUMPI SWAP9 PUSH2 0x1535 JUMP JUMPDEST PUSH4 0x4E487B71 PUSH1 0xE0 SHL DUP10 MSTORE PUSH1 0x11 DUP13 MSTORE PUSH1 0x24 DUP10 REVERT JUMPDEST POP SWAP8 SWAP10 POP POP POP POP POP POP POP POP POP JUMP JUMPDEST DUP7 SLOAD DUP11 AND DUP6 MSTORE SWAP6 DUP2 ADD SWAP6 DUP12 SWAP6 POP SWAP1 SWAP4 ADD SWAP3 ADD PUSH2 0x14EC JUMP JUMPDEST PUSH1 0x64 SWAP1 DUP4 MLOAD SWAP1 PUSH3 0x461BCD PUSH1 0xE5 SHL DUP3 MSTORE PUSH1 0x4 DUP3 ADD MSTORE PUSH1 0x1C PUSH1 0x24 DUP3 ADD MSTORE PUSH32 0x5061727469636970616E74206E6F7420696E206368616C6C656E676500000000 PUSH1 0x44 DUP3 ADD MSTORE REVERT JUMPDEST PUSH1 0x2 PUSH1 0x1 SLOAD EQ PUSH2 0x15DB JUMPI PUSH1 0x2 PUSH1 0x1 SSTORE JUMP JUMPDEST PUSH1 0x40 MLOAD PUSH3 0x461BCD PUSH1 0xE5 SHL DUP2 MSTORE PUSH1 0x20 PUSH1 0x4 DUP3 ADD MSTORE PUSH1 0x1F PUSH1 0x24 DUP3 ADD MSTORE PUSH32 0x5265656E7472616E637947756172643A207265656E7472616E742063616C6C00 PUSH1 0x44 DUP3 ADD MSTORE PUSH1 0x64 SWAP1 REVERT JUMPDEST PUSH1 0x0 SLOAD PUSH1 0x1 PUSH1 0x1 PUSH1 0xA0 SHL SUB AND CALLER SUB PUSH2 0x1634 JUMPI JUMP JUMPDEST PUSH1 0x64 PUSH1 0x40 MLOAD PUSH3 0x461BCD PUSH1 0xE5 SHL DUP2 MSTORE PUSH1 0x20 PUSH1 0x4 DUP3 ADD MSTORE PUSH1 0x20 PUSH1 0x24 DUP3 ADD MSTORE PUSH32 0x4F776E61626C653A2063616C6C6572206973206E6F7420746865206F776E6572 PUSH1 0x44 DUP3 ADD MSTORE REVERT INVALID LOG2 PUSH5 0x6970667358 0x22 SLT KECCAK256 0x2D 0xE7 CHAINID PUSH11 0xAE835D355C51F3E140B47 0xB3 SWAP1 PUSH20 0xBD7C2E8EC1F9618411643A097BED64736F6C6343 STOP ADDMOD XOR STOP CALLER "},"methodIdentifiers":{"calculateRank(uint256,address)":"e5656a5e","challenges(uint256)":"8f1d3776","createChallenge(uint256,uint256)":"84f61585","enterChallenge(uint256)":"25c1a695","finalizeChallenge(uint256)":"484dd61a","getChallenge(uint256)":"1bdd4b74","getChallengeIdCounter()":"57a248f1","getLeaderboard(uint256)":"a34b46fe","getParticipantCount(uint256)":"86ae5fec","getParticipants(uint256)":"c1e3bd3e","hasEntered(uint256,address)":"073c74f3","owner()":"8da5cb5b","participantIndex(uint256,address)":"ace25895","participants(uint256,uint256)":"81fb1fb4","passportContract()":"ab9027b0","pendingWithdrawals(address)":"f3f43703","renounceOwnership()":"715018a6","scores(uint256,address)":"7a07b674","submitScore(uint256,uint256)":"8358ba08","transferOwnership(address)":"f2fde38b","withdraw()":"3ccfd60b"}}}}}