{
  "_format": "hh-sol-artifact-1",
  "contractName": "ReputationCore",
  "sourceName": "contracts/ReputationCore.sol",
  "abi": [
    {
      "inputs": [
        {
          "internalType": "address",
          "name": "_passportContract",
          "type": "address"
        }
      ],
      "stateMutability": "nonpayable",
      "type": "constructor"
    },
    {
      "anonymous": false,
      "inputs": [
        {
          "indexed": true,
          "internalType": "address",
          "name": "previousOwner",
          "type": "address"
        },
        {
          "indexed": true,
          "internalType": "address",
          "name": "newOwner",
          "type": "address"
        }
      ],
      "name": "OwnershipTransferred",
      "type": "event"
    },
    {
      "anonymous": false,
      "inputs": [
        {
          "indexed": true,
          "internalType": "address",
          "name": "user",
          "type": "address"
        },
        {
          "indexed": false,
          "internalType": "uint256",
          "name": "newReputation",
          "type": "uint256"
        }
      ],
      "name": "ReputationUpdated",
      "type": "event"
    },
    {
      "inputs": [],
      "name": "REPUTATION_ARENA_DIVISOR",
      "outputs": [
        {
          "internalType": "uint256",
          "name": "",
          "type": "uint256"
        }
      ],
      "stateMutability": "view",
      "type": "function"
    },
    {
      "inputs": [],
      "name": "REPUTATION_PER_PARTICIPATION",
      "outputs": [
        {
          "internalType": "uint256",
          "name": "",
          "type": "uint256"
        }
      ],
      "stateMutability": "view",
      "type": "function"
    },
    {
      "inputs": [],
      "name": "REPUTATION_PER_WIN",
      "outputs": [
        {
          "internalType": "uint256",
          "name": "",
          "type": "uint256"
        }
      ],
      "stateMutability": "view",
      "type": "function"
    },
    {
      "inputs": [
        {
          "internalType": "uint256",
          "name": "wins",
          "type": "uint256"
        },
        {
          "internalType": "uint256",
          "name": "participation",
          "type": "uint256"
        },
        {
          "internalType": "uint256",
          "name": "arenaPoints",
          "type": "uint256"
        }
      ],
      "name": "calculateReputation",
      "outputs": [
        {
          "internalType": "uint256",
          "name": "",
          "type": "uint256"
        }
      ],
      "stateMutability": "pure",
      "type": "function"
    },
    {
      "inputs": [],
      "name": "getReputationFormula",
      "outputs": [
        {
          "internalType": "string",
          "name": "",
          "type": "string"
        }
      ],
      "stateMutability": "pure",
      "type": "function"
    },
    {
      "inputs": [],
      "name": "owner",
      "outputs": [
        {
          "internalType": "address",
          "name": "",
          "type": "address"
        }
      ],
      "stateMutability": "view",
      "type": "function"
    },
    {
      "inputs": [],
      "name": "passportContract",
      "outputs": [
        {
          "internalType": "contract ISomniaPassport",
          "name": "",
          "type": "address"
        }
      ],
      "stateMutability": "view",
      "type": "function"
    },
    {
      "inputs": [],
      "name": "renounceOwnership",
      "outputs": [],
      "stateMutability": "nonpayable",
      "type": "function"
    },
    {
      "inputs": [
        {
          "internalType": "address",
          "name": "newOwner",
          "type": "address"
        }
      ],
      "name": "transferOwnership",
      "outputs": [],
      "stateMutability": "nonpayable",
      "type": "function"
    },
    {
      "inputs": [
        {
          "internalType": "address",
          "name": "_passportContract",
          "type": "address"
        }
      ],
      "name": "updatePassportContract",
      "outputs": [],
      "stateMutability": "nonpayable",
      "type": "function"
    },
    {
      "inputs": [
        {
          "internalType": "address",
          "name": "user",
          "type": "address"
        }
      ],
      "name": "updateReputation",
      "outputs": [],
      "stateMutability": "nonpayable",
      "type": "function"
    }
  ],
  "bytecode": "0x6080346100f357601f6108b738819003918201601f19168301916001600160401b038311848410176100f8578084926020946040528339810103126100f357516001600160a01b03808216918290036100f3576000549060018060a01b0319913383821617600055604051913391167f8be0079c531659141344cd1fd0a4f28419497f9722a3daafe3b4186f6b6457e0600080a382156100b1575060015416176001556040516107a8908161010f8239f35b62461bcd60e51b815260206004820152601960248201527f496e76616c69642070617373706f727420636f6e7472616374000000000000006044820152606490fd5b600080fd5b634e487b7160e01b600052604160045260246000fdfe6040608081526004908136101561001557600080fd5b600091823560e01c80630e90e5651461042957806319c7a2981461040d578063715018a6146103b35780638da5cb5b1461038b5780639fb57ede1461036f578063a1f45f9114610285578063ab9027b01461025c578063cbec27bc1461023c578063f2fde38b14610168578063f4445a47146101365763fab0dec41461009a57600080fd5b346101325760203660031901126101325780356001600160a01b038116929083900361012e576100c861071a565b82156100eb5750506bffffffffffffffffffffffff60a01b600154161760015580f35b906020606492519162461bcd60e51b8352820152601960248201527f496e76616c69642070617373706f727420636f6e7472616374000000000000006044820152fd5b8380fd5b8280fd5b509134610165576060366003190112610165575061015e6020926044359060243590356106d9565b9051908152f35b80fd5b509034610132576020366003190112610132576001600160a01b038235818116939192908490036102385761019b61071a565b83156101e6575050600054826bffffffffffffffffffffffff60a01b821617600055167f8be0079c531659141344cd1fd0a4f28419497f9722a3daafe3b4186f6b6457e0600080a380f35b906020608492519162461bcd60e51b8352820152602660248201527f4f776e61626c653a206e6577206f776e657220697320746865207a65726f206160448201526564647265737360d01b6064820152fd5b8480fd5b50503461025857816003193601126102585760209051600a8152f35b5080fd5b50503461025857816003193601126102585760015490516001600160a01b039091168152602090f35b5034610132578260031936011261013257815190608082019082821067ffffffffffffffff83111761035a57508252604381526020907f72657075746174696f6e203d202877696e73202a20353029202b20287061727460208201527f696369706174696f6e202a203529202b20286172656e61506f696e7473202f20838201526231302960e81b6060820152825193849260208452825192836020860152825b84811061034457505050828201840152601f01601f19168101030190f35b8181018301518882018801528795508201610326565b604190634e487b7160e01b6000525260246000fd5b5050346102585781600319360112610258576020905160328152f35b505034610258578160031936011261025857905490516001600160a01b039091168152602090f35b83346101655780600319360112610165576103cc61071a565b600080546001600160a01b0319811682556001600160a01b03167f8be0079c531659141344cd1fd0a4f28419497f9722a3daafe3b4186f6b6457e08280a380f35b5050346102585781600319360112610258576020905160058152f35b50919034610258576020806003193601126101325783356001600160a01b0381811693918490036102385761045c61071a565b83156106495760015416908051631747098d60e21b815284878201528381602481865afa90811561058957869161061c575b50156105e45780516315e9624f60e21b815286810185905260c081602481865afa928315610589578693879288908992610597575b506104cf8483836106d9565b9586036104da578880f35b823b1561059357898980948a9460a49489519889978896630920d22d60e11b88528701528b60248701526044860152606485015260848401525af1801561058957610558575b507ffc577563f1b9a0461e24abef1e1fcc0d33d3d881f20b5df6dda59de4aae2c8219394955051908152a28038808080808080808880f35b67ffffffffffffffff81969296116105765785529394508438610520565b634e487b7160e01b825260418752602482fd5b82513d88823e3d90fd5b8880fd5b93505050925060c0813d60c0116105dc575b816105b660c0938361067e565b810103126105d8578051928482015193606084840151930151909492386104c3565b8580fd5b3d91506105a9565b5162461bcd60e51b8152808601839052601360248201527214185cdcdc1bdc9d081b9bdd081b5a5b9d1959606a1b6044820152606490fd5b90508381813d8311610642575b610633818361067e565b810103126105d857513861048e565b503d610629565b815162461bcd60e51b8152808701849052600f60248201526e496e76616c6964206164647265737360881b6044820152606490fd5b90601f8019910116810190811067ffffffffffffffff8211176106a057604052565b634e487b7160e01b600052604160045260246000fd5b919082018092116106c357565b634e487b7160e01b600052601160045260246000fd5b90916032820291808304603214901517156106c3576005830292808404600514901517156106c35761071792600a6107129204926106b6565b6106b6565b90565b6000546001600160a01b0316330361072e57565b606460405162461bcd60e51b815260206004820152602060248201527f4f776e61626c653a2063616c6c6572206973206e6f7420746865206f776e65726044820152fdfea264697066735822122036e0c48d0f52a7f720b9f07371ff44709bd7519bc5816cc9ed8afb772bb2b23b64736f6c63430008180033",
  "linkReferences": {},
  "deployedLinkReferences": {}
}