{
  "_format": "hh-sol-artifact-1",
  "contractName": "SomniaPassport",
  "sourceName": "contracts/SomniaPassport.sol",
  "abi": [
    {
      "inputs": [],
      "stateMutability": "nonpayable",
      "type": "constructor"
    },
    {
      "anonymous": false,
      "inputs": [
        {
          "indexed": true,
          "internalType": "address",
          "name": "owner",
          "type": "address"
        },
        {
          "indexed": true,
          "internalType": "address",
          "name": "approved",
          "type": "address"
        },
        {
          "indexed": true,
          "internalType": "uint256",
          "name": "tokenId",
          "type": "uint256"
        }
      ],
      "name": "Approval",
      "type": "event"
    },
    {
      "anonymous": false,
      "inputs": [
        {
          "indexed": true,
          "internalType": "address",
          "name": "owner",
          "type": "address"
        },
        {
          "indexed": true,
          "internalType": "address",
          "name": "operator",
          "type": "address"
        },
        {
          "indexed": false,
          "internalType": "bool",
          "name": "approved",
          "type": "bool"
        }
      ],
      "name": "ApprovalForAll",
      "type": "event"
    },
    {
      "anonymous": false,
      "inputs": [
        {
          "indexed": true,
          "internalType": "address",
          "name": "previousOwner",
          "type": "address"
        },
        {
          "indexed": true,
          "internalType": "address",
          "name": "newOwner",
          "type": "address"
        }
      ],
      "name": "OwnershipTransferred",
      "type": "event"
    },
    {
      "anonymous": false,
      "inputs": [
        {
          "indexed": true,
          "internalType": "address",
          "name": "user",
          "type": "address"
        },
        {
          "indexed": true,
          "internalType": "uint256",
          "name": "tokenId",
          "type": "uint256"
        }
      ],
      "name": "PassportMinted",
      "type": "event"
    },
    {
      "anonymous": false,
      "inputs": [
        {
          "indexed": true,
          "internalType": "address",
          "name": "user",
          "type": "address"
        },
        {
          "indexed": false,
          "internalType": "uint256",
          "name": "newReputation",
          "type": "uint256"
        },
        {
          "indexed": false,
          "internalType": "uint256",
          "name": "newArenaPoints",
          "type": "uint256"
        },
        {
          "indexed": false,
          "internalType": "uint256",
          "name": "newWins",
          "type": "uint256"
        },
        {
          "indexed": false,
          "internalType": "uint256",
          "name": "newParticipation",
          "type": "uint256"
        }
      ],
      "name": "PassportUpdated",
      "type": "event"
    },
    {
      "anonymous": false,
      "inputs": [
        {
          "indexed": true,
          "internalType": "address",
          "name": "from",
          "type": "address"
        },
        {
          "indexed": true,
          "internalType": "address",
          "name": "to",
          "type": "address"
        },
        {
          "indexed": true,
          "internalType": "uint256",
          "name": "tokenId",
          "type": "uint256"
        }
      ],
      "name": "Transfer",
      "type": "event"
    },
    {
      "inputs": [
        {
          "internalType": "address",
          "name": "",
          "type": "address"
        },
        {
          "internalType": "uint256",
          "name": "",
          "type": "uint256"
        }
      ],
      "name": "approve",
      "outputs": [],
      "stateMutability": "pure",
      "type": "function"
    },
    {
      "inputs": [
        {
          "internalType": "address",
          "name": "owner",
          "type": "address"
        }
      ],
      "name": "balanceOf",
      "outputs": [
        {
          "internalType": "uint256",
          "name": "",
          "type": "uint256"
        }
      ],
      "stateMutability": "view",
      "type": "function"
    },
    {
      "inputs": [
        {
          "internalType": "uint256",
          "name": "tokenId",
          "type": "uint256"
        }
      ],
      "name": "getApproved",
      "outputs": [
        {
          "internalType": "address",
          "name": "",
          "type": "address"
        }
      ],
      "stateMutability": "view",
      "type": "function"
    },
    {
      "inputs": [
        {
          "internalType": "address",
          "name": "user",
          "type": "address"
        }
      ],
      "name": "getPassport",
      "outputs": [
        {
          "components": [
            {
              "internalType": "uint256",
              "name": "reputation",
              "type": "uint256"
            },
            {
              "internalType": "uint256",
              "name": "arenaPoints",
              "type": "uint256"
            },
            {
              "internalType": "uint256",
              "name": "wins",
              "type": "uint256"
            },
            {
              "internalType": "uint256",
              "name": "participation",
              "type": "uint256"
            },
            {
              "internalType": "uint256",
              "name": "createdAt",
              "type": "uint256"
            },
            {
              "internalType": "uint256",
              "name": "lastUpdated",
              "type": "uint256"
            }
          ],
          "internalType": "struct SomniaPassport.PassportData",
          "name": "",
          "type": "tuple"
        }
      ],
      "stateMutability": "view",
      "type": "function"
    },
    {
      "inputs": [
        {
          "internalType": "address",
          "name": "owner",
          "type": "address"
        },
        {
          "internalType": "address",
          "name": "operator",
          "type": "address"
        }
      ],
      "name": "isApprovedForAll",
      "outputs": [
        {
          "internalType": "bool",
          "name": "",
          "type": "bool"
        }
      ],
      "stateMutability": "view",
      "type": "function"
    },
    {
      "inputs": [],
      "name": "mintPassport",
      "outputs": [],
      "stateMutability": "nonpayable",
      "type": "function"
    },
    {
      "inputs": [],
      "name": "name",
      "outputs": [
        {
          "internalType": "string",
          "name": "",
          "type": "string"
        }
      ],
      "stateMutability": "view",
      "type": "function"
    },
    {
      "inputs": [],
      "name": "owner",
      "outputs": [
        {
          "internalType": "address",
          "name": "",
          "type": "address"
        }
      ],
      "stateMutability": "view",
      "type": "function"
    },
    {
      "inputs": [
        {
          "internalType": "uint256",
          "name": "tokenId",
          "type": "uint256"
        }
      ],
      "name": "ownerOf",
      "outputs": [
        {
          "internalType": "address",
          "name": "",
          "type": "address"
        }
      ],
      "stateMutability": "view",
      "type": "function"
    },
    {
      "inputs": [
        {
          "internalType": "uint256",
          "name": "",
          "type": "uint256"
        }
      ],
      "name": "passportData",
      "outputs": [
        {
          "internalType": "uint256",
          "name": "reputation",
          "type": "uint256"
        },
        {
          "internalType": "uint256",
          "name": "arenaPoints",
          "type": "uint256"
        },
        {
          "internalType": "uint256",
          "name": "wins",
          "type": "uint256"
        },
        {
          "internalType": "uint256",
          "name": "participation",
          "type": "uint256"
        },
        {
          "internalType": "uint256",
          "name": "createdAt",
          "type": "uint256"
        },
        {
          "internalType": "uint256",
          "name": "lastUpdated",
          "type": "uint256"
        }
      ],
      "stateMutability": "view",
      "type": "function"
    },
    {
      "inputs": [
        {
          "internalType": "address",
          "name": "",
          "type": "address"
        }
      ],
      "name": "passportOf",
      "outputs": [
        {
          "internalType": "uint256",
          "name": "",
          "type": "uint256"
        }
      ],
      "stateMutability": "view",
      "type": "function"
    },
    {
      "inputs": [],
      "name": "renounceOwnership",
      "outputs": [],
      "stateMutability": "nonpayable",
      "type": "function"
    },
    {
      "inputs": [
        {
          "internalType": "address",
          "name": "",
          "type": "address"
        },
        {
          "internalType": "address",
          "name": "",
          "type": "address"
        },
        {
          "internalType": "uint256",
          "name": "",
          "type": "uint256"
        }
      ],
      "name": "safeTransferFrom",
      "outputs": [],
      "stateMutability": "pure",
      "type": "function"
    },
    {
      "inputs": [
        {
          "internalType": "address",
          "name": "from",
          "type": "address"
        },
        {
          "internalType": "address",
          "name": "to",
          "type": "address"
        },
        {
          "internalType": "uint256",
          "name": "tokenId",
          "type": "uint256"
        },
        {
          "internalType": "bytes",
          "name": "data",
          "type": "bytes"
        }
      ],
      "name": "safeTransferFrom",
      "outputs": [],
      "stateMutability": "nonpayable",
      "type": "function"
    },
    {
      "inputs": [
        {
          "internalType": "address",
          "name": "",
          "type": "address"
        },
        {
          "internalType": "bool",
          "name": "",
          "type": "bool"
        }
      ],
      "name": "setApprovalForAll",
      "outputs": [],
      "stateMutability": "pure",
      "type": "function"
    },
    {
      "inputs": [
        {
          "internalType": "bytes4",
          "name": "interfaceId",
          "type": "bytes4"
        }
      ],
      "name": "supportsInterface",
      "outputs": [
        {
          "internalType": "bool",
          "name": "",
          "type": "bool"
        }
      ],
      "stateMutability": "view",
      "type": "function"
    },
    {
      "inputs": [],
      "name": "symbol",
      "outputs": [
        {
          "internalType": "string",
          "name": "",
          "type": "string"
        }
      ],
      "stateMutability": "view",
      "type": "function"
    },
    {
      "inputs": [
        {
          "internalType": "uint256",
          "name": "tokenId",
          "type": "uint256"
        }
      ],
      "name": "tokenURI",
      "outputs": [
        {
          "internalType": "string",
          "name": "",
          "type": "string"
        }
      ],
      "stateMutability": "view",
      "type": "function"
    },
    {
      "inputs": [
        {
          "internalType": "address",
          "name": "",
          "type": "address"
        },
        {
          "internalType": "address",
          "name": "",
          "type": "address"
        },
        {
          "internalType": "uint256",
          "name": "",
          "type": "uint256"
        }
      ],
      "name": "transferFrom",
      "outputs": [],
      "stateMutability": "pure",
      "type": "function"
    },
    {
      "inputs": [
        {
          "internalType": "address",
          "name": "newOwner",
          "type": "address"
        }
      ],
      "name": "transferOwnership",
      "outputs": [],
      "stateMutability": "nonpayable",
      "type": "function"
    },
    {
      "inputs": [
        {
          "internalType": "address",
          "name": "user",
          "type": "address"
        },
        {
          "internalType": "uint256",
          "name": "newReputation",
          "type": "uint256"
        },
        {
          "internalType": "uint256",
          "name": "newArenaPoints",
          "type": "uint256"
        },
        {
          "internalType": "uint256",
          "name": "newWins",
          "type": "uint256"
        },
        {
          "internalType": "uint256",
          "name": "newParticipation",
          "type": "uint256"
        }
      ],
      "name": "updateStats",
      "outputs": [],
      "stateMutability": "nonpayable",
      "type": "function"
    }
  ],
  "bytecode": "0x60803462000367576001600160401b03906040908082018381118282101762000351578252600f81526020916e14dbdb5b9a584814185cdcdc1bdc9d608a1b83830152805193818501858110828211176200035157825260048552630534d4e560e41b84860152825181811162000351576000948554916001958684811c9416801562000346575b8385101462000332578190601f94858111620002df575b5083908583116001146200027b5789926200026f575b5050600019600383901b1c191690861b1786555b86519283116200025b5784548581811c9116801562000250575b828210146200023c57828111620001f4575b50809183116001146200018b5750849582939495926200017f575b5050600019600383901b1c191690831b1782555b60068054336001600160a01b03198216811790925591519390916001600160a01b0316907f8be0079c531659141344cd1fd0a4f28419497f9722a3daafe3b4186f6b6457e09080a380600755600a5561241490816200036d8239f35b0151905038806200010f565b90601f198316968587528287209287905b898210620001dc5750508386979896959610620001c2575b505050811b01825562000123565b015160001960f88460031b161c19169055388080620001b4565b8088859682949686015181550195019301906200019c565b8587528187208380860160051c82019284871062000232575b0160051c019086905b82811062000226575050620000f4565b88815501869062000216565b925081926200020d565b634e487b7160e01b87526022600452602487fd5b90607f1690620000e2565b634e487b7160e01b86526041600452602486fd5b015190503880620000b4565b898052848a208994509190601f1984168b5b87828210620002c85750508411620002ae575b505050811b018655620000c8565b015160001960f88460031b161c19169055388080620002a0565b8385015186558c979095019493840193016200028d565b9091508880528389208580850160051c82019286861062000328575b918a91869594930160051c01915b828110620003195750506200009e565b8b81558594508a910162000309565b92508192620002fb565b634e487b7160e01b88526022600452602488fd5b93607f169362000087565b634e487b7160e01b600052604160045260246000fd5b600080fdfe6080604090808252600436101561001557600080fd5b60003560e01c90816301ffc9a7146119f25750806306fdde0314611929578063081812fc14611909578063095ea7b3146118eb5780631241a45a1461181f57806323b872dd1461181a57806342842e0e1461181a5780634ec794f61461164557806357a5893c146115605780635d1c2634146115275780636352211e146114f657806370a0823114611461578063715018a6146114045780638da5cb5b146113db57806395d89b41146112c9578063a22cb465146112a0578063a6670ebe1461123e578063b88d4fde14610fe5578063c87b56dd14610222578063e985e9c5146101d05763f2fde38b1461010857600080fd5b346101cb5760203660031901126101cb57610121611aa5565b610129611d28565b6001600160a01b039081169182156101795750600654826001600160601b0360a01b821617600655167f8be0079c531659141344cd1fd0a4f28419497f9722a3daafe3b4186f6b6457e0600080a3005b5162461bcd60e51b815260206004820152602660248201527f4f776e61626c653a206e6577206f776e657220697320746865207a65726f206160448201526564647265737360d01b6064820152608490fd5b600080fd5b50346101cb57806003193601126101cb576020906101ec611aa5565b6101f4611abb565b9060018060a01b0380911660005260058452826000209116600052825260ff81600020541690519015158152f35b50346101cb5760203660031901126101cb5761023f600435611e4d565b15610fab5760043560005260096020528060002090805161025f81611b05565b825481526001830154602082015260056002840154938383019485526003810154606084015260048101546080840152015460a0820152600435600052600960205281600020908251916102b283611b05565b80548352600181015460208401908152600282015485850190815260056003840154936060870194855260048101546080880152015460a086015261032061031961031261030b610304600435611ef0565b9851611ef0565b9451611ef0565b9251611ef0565b9351611ef0565b916001600160a01b03610334600435611d02565b169087519161034283611b53565b602a835288366020850137825115610f955760306020840153825160011015610f95576078602184015360295b60018111610f385750610ef5576105ea7f30302f737667222076696577426f783d223020302034303020353030223e0000610e8796602061013897610e8c9b97610ef19e9b97610c0e978f6103c342611ef0565b81517f3c73766720786d6c6e733d22687474703a2f2f7777772e77332e6f72672f32308882015291820198909852651e3232b3399f60d11b605e820152661e39ba3cb6329f60c91b60648201527f74657874207b20666f6e742d66616d696c793a20496e7465722c2073616e732d606b8201526773657269663b207d60c01b608b8201527f2e7469746c65207b20666f6e742d73697a653a20323470783b20666f6e742d7760938201527f65696768743a203630303b2066696c6c3a20234536454446333b207d0000000060b38201527f2e6c6162656c207b20666f6e742d73697a653a20313270783b20666f6e742d7760cf8201527f65696768743a203430303b2066696c6c3a20233842393439453b207d0000000060ef8201527f2e76616c7565207b20666f6e742d73697a653a20313870783b20666f6e742d7761010b8201527f65696768743a203630303b2066696c6c3a20233246383146373b207d0000000061012b8201527f2e626f72646572207b207374726f6b653a20233146323933333b207374726f6b6101478201527f652d77696474683a20323b2066696c6c3a206e6f6e653b207d00000000000000610167820152671e17b9ba3cb6329f60c11b610180820152661e17b232b3399f60c91b6101888201527f3c726563742077696474683d2234303022206865696768743d2235303022206661018f8201527f696c6c3d22233042304631342220636c6173733d22626f7264657222202f3e006101af8201527f3c7265637420783d2232302220793d223230222077696474683d2233363022206101ce8201527f6865696768743d22343630222066696c6c3d226e6f6e652220636c6173733d226101ee8201527f626f7264657222207374726f6b653d222331463239333322207374726f6b652d61020e8201526b3bb4b23a341e91189110179f60a11b61022e8201527f3c7465787420783d223230302220793d2236302220636c6173733d227469746c61023a8201527f652220746578742d616e63686f723d226d6964646c65223e534f4d4e4941205061025a8201526d20a9a9a827a92a1e17ba32bc3a1f60911b61027a8201527f3c7465787420783d2232302220793d223132302220636c6173733d226c6162656102888201526b36111f24a21e17ba32bc3a1f60a11b6102a88201527f3c7465787420783d2232302220793d223134352220636c6173733d2276616c756102b48201526365223e2360e01b6102d48201528b51909b8c98956102d892909161076d908290858d01908b01611a5d565b890194661e17ba32bc3a1f60c91b80988782809996819701527f3c6c696e652078313d223230222079313d22313630222078323d2233383022206102df8201527f79323d2231363022207374726f6b653d222331463239333322207374726f6b656102ff8201526c16bbb4b23a341e91189110179f60991b968761031f8301527f3c7465787420783d2232302220793d223230302220636c6173733d226c61626561032c8301527336111f2922a82aaa20aa24a7a71e17ba32bc3a1f60611b61034c8301527f3c7465787420783d2232302220793d223232352220636c6173733d2276616c75610360830152836232911f60e91b91826103808501526103839361087f82518093888885019101611a5d565b01928301527f3c7465787420783d223232302220793d223230302220636c6173733d226c616261038a8301527f656c223e4152454e4120504f494e54533c2f746578743e0000000000000000006103aa8301527f3c7465787420783d223232302220793d223232352220636c6173733d2276616c6103c183015283633ab2911f60e11b95866103e18501526103e59361092082518093888885019101611a5d565b01928301527f3c6c696e652078313d223230222079313d22323430222078323d2233383022206103ec8301527f79323d2232343022207374726f6b653d222331463239333322207374726f6b6561040c8301528761042c8301527f3c7465787420783d2232302220793d223238302220636c6173733d226c6162656104398301526d36111f2ba4a7299e17ba32bc3a1f60911b6104598301527f3c7465787420783d2232302220793d223330352220636c6173733d2276616c756104678301526104878201526109fc61048a8d819e5194859285019101611a5d565b01998a01527f3c7465787420783d223232302220793d223238302220636c6173733d226c61626104918a01527f656c223e50415254494349504154494f4e3c2f746578743e00000000000000006104b18a01527f3c7465787420783d223232302220793d223330352220636c6173733d2276616c6104c98a01526104e98901526104ed97610a938251809360208c85019101611a5d565b01968701527f3c6c696e652078313d223230222079313d22333230222078323d2233383022206104f48701527f79323d2233323022207374726f6b653d222331463239333322207374726f6b656105148701526105348601527f3c7465787420783d2232302220793d223336302220636c6173733d226c6162656105418601526f36111f2427a62222a91e17ba32bc3a1f60811b6105618601527f3c7465787420783d2232302220793d223338332220636c6173733d2276616c75610571860152733291103337b73a16b9b4bd329e911898b83c111f60611b61059186015280516105a5959091610b8c90839088840190602001611a5d565b01938401527f3c7465787420783d2232302220793d223435302220636c6173733d226c6162656105ac84015270036111f2620a9aa102aa82220aa22a21d1607d1b6105cc8401526105dd92610bea8251809360208785019101611a5d565b0191820152651e17b9bb339f60d11b6105e4820152036105ca810185520183611b6f565b607d60f81b610c27610c21600435611ef0565b93612034565b95610c328351611ef0565b90610c506060610c486103196020880151611ef0565b950151611ef0565b918a519889967f7b226e616d65223a22536f6d6e69612050617373706f727420230000000000006020890152610c90815180926020603a8c019101611a5d565b87017f222c226465736372697074696f6e223a224f6666696369616c20536f6d6e6961603a8201527f204172656e612050617373706f727420546f6b656e222c22696d616765223a22605a8201527f646174613a696d6167652f7376672b786d6c3b6261736536342c000000000000607a820152610d18825180936020609485019101611a5d565b016f222c2261747472696275746573223a5b60801b60948201527f7b2274726169745f74797065223a2252657075746174696f6e222c2276616c7560a48201526232911d60e91b60c4820152610d7882518093602060c785019101611a5d565b0190611f4b60f21b918260c78201527f7b2274726169745f74797065223a224172656e6120506f696e7473222c22766160c982015264363ab2911d60d91b60e9820152610dcf82518093602060ee85019101611a5d565b01938160ee8601527f7b2274726169745f74797065223a2257696e73222c2276616c7565223a00000060f086015261010d94610e148251809360208985019101611a5d565b01938401527f7b2274726169745f74797065223a2250617274696369706174696f6e222c227661010f8401526530b63ab2911d60d11b61012f84015261013592610e678251809360208785019101611a5d565b0191820152615d7d60f01b61013682015203610118810184520182611b6f565b612034565b90610edf603d825180947f646174613a6170706c69636174696f6e2f6a736f6e3b6261736536342c0000006020830152610ecf8151809260208686019101611a5d565b810103601d810185520183611b6f565b51918291602083526020830190611a80565b0390f35b6064885162461bcd60e51b815260206004820152602060248201527f537472696e67733a20686578206c656e67746820696e73756666696369656e746044820152fd5b90600f81166010811015610f95578451831015610f95576f181899199a1a9b1b9c1cb0b131b232b360811b901a8483016020015360041c908015610f7f576000190161036f565b634e487b7160e01b600052601160045260246000fd5b634e487b7160e01b600052603260045260246000fd5b5162461bcd60e51b8152602060048201526014602482015273151bdad95b88191bd95cc81b9bdd08195e1a5cdd60621b6044820152606490fd5b50346101cb5760803660031901126101cb57610fff611aa5565b611007611abb565b604435906064359267ffffffffffffffff84116101cb57366023850112156101cb5783600401359361103885611b91565b9461104587519687611b6f565b80865260209136602483830101116101cb57816000926024859301838a0137870101526001600160a01b03908161107b86611d02565b1680331490811561121d575b50801561120a575b156111b15781906110ae6110a287611d02565b85841693168314612191565b828516928315611161579183918796959461115f9a6110dd848a976110d661115a9e9d611d02565b1614612191565b8560005260048352600281600020936001600160601b0360a01b9485815416905585600052600381528260002060001981540190558360005282600020600181540190558760005252600020918254161790557fddf252ad1be2c89b69c2b068fc378daa952ba7f163c4a11628f55a4df523b3ef600080a4612309565b611e29565b005b885162461bcd60e51b8152600481018390526024808201527f4552433732313a207472616e7366657220746f20746865207a65726f206164646044820152637265737360e01b6064820152608490fd5b60849087519062461bcd60e51b82526004820152602d60248201527f4552433732313a2063616c6c6572206973206e6f7420746f6b656e206f776e6560448201526c1c881bdc88185c1c1c9bdd9959609a1b6064820152fd5b50338261121687611bad565b161461108f565b9050600052600581528660002033600052815260ff87600020541638611087565b50346101cb5760203660031901126101cb5760c0906004356000526009602052806000209081549160018101549160028201546003830154916005600485015494015494815196875260208701528501526060840152608083015260a0820152f35b50346101cb573660031901126101cb576112b8611aa5565b5060243580151514611bd957600080fd5b50346101cb5760003660031901126101cb5780519060009060018054928360011c600185169283156113d1575b60209586831085146113bb57868895848752918260001461139957505060011461133c575b5050610ef1929161132d910385611b6f565b51928284938452830190611a80565b9085925060016000527fb10e2d527612073b26eecdfd717e6a320cf44b4afac2b0732d9fcbe2b7fa0cf6916000925b828410611381575050508201018161132d61131b565b8054848a01860152889550879490930192810161136b565b60ff19168682015292151560051b8501909201925083915061132d905061131b565b634e487b7160e01b600052602260045260246000fd5b90607f16906112f6565b50346101cb5760003660031901126101cb5760065490516001600160a01b039091168152602090f35b346101cb5760003660031901126101cb5761141d611d28565b600680546001600160a01b031981169091556000906001600160a01b03167f8be0079c531659141344cd1fd0a4f28419497f9722a3daafe3b4186f6b6457e08280a3005b50346101cb5760203660031901126101cb576001600160a01b03611483611aa5565b169081156114a1576020916000526003825280600020549051908152f35b5162461bcd60e51b815260206004820152602960248201527f4552433732313a2061646472657373207a65726f206973206e6f7420612076616044820152683634b21037bbb732b960b91b6064820152608490fd5b50346101cb5760203660031901126101cb57602090611516600435611d02565b90516001600160a01b039091168152f35b50346101cb5760203660031901126101cb576020906001600160a01b0361154c611aa5565b166000526008825280600020549051908152f35b50346101cb57602090816003193601126101cb5760c09161157f611aa5565b600060a0845161158e81611b05565b82815282858201528286820152826060820152826080820152015260018060a01b03166000526008815281600020546115c8811515611c74565b60005260098152816000208251916115df83611b05565b8154938484526001830154918085019283526002840154908286019182526003850154936060870194855260a0600560048801549760808a01988952015497019687528351978852519087015251908501525160608401525160808301525160a0820152f35b50346101cb5760003660031901126101cb5761165f611d80565b331561166b8115611c36565b336000526020916008835280600020546117d757600a549260018401808511610f7f57600a553360005260088152838260002055836000526009815281600020600081556000600182015560006002820155600060038201554260048201556005429101558151926116dc84611b37565b60008452611796579161115a916002611769946117016116fb88611e4d565b15612392565b61170d6116fb88611e4d565b336000526003815282600020600181540190558660005252600020336001600160601b0360a01b825416179055833360007fddf252ad1be2c89b69c2b068fc378daa952ba7f163c4a11628f55a4df523b3ef8180a483336121eb565b337f2cf689e09cb05e7e71be603090df76ef66fdfd5f723f4086dd4b3d6eee5c43d9600080a36001600755005b606491519062461bcd60e51b825280600483015260248201527f4552433732313a206d696e7420746f20746865207a65726f20616464726573736044820152fd5b5162461bcd60e51b815260048101839052601760248201527f50617373706f727420616c7265616479206d696e7465640000000000000000006044820152606490fd5b611ad1565b50346101cb5760a03660031901126101cb577ffb0aa002b87c357b223b2a678c06c1e17d601f29e4286cb003d5489356ae8ea0608061185c611aa5565b60243590604435946064359060843592611874611d28565b61187c611d80565b6001600160a01b031696611891881515611c36565b87600052600860205281600020546118aa811515611c74565b600052600960205281600020858155816001820155836002820155846003820155600542910155815194855260208501528301526060820152a26001600755005b50346101cb573660031901126101cb57611903611aa5565b50611bd9565b50346101cb5760203660031901126101cb57602090611516600435611bad565b50346101cb5760003660031901126101cb57805190600090600054916001908360011c600185169283156119e8575b60209586831085146113bb57868895848752918260001461139957505060011461198e575050610ef1929161132d910385611b6f565b600080805286935091907f290decd9548b62a8d60345a988386fc84ba6bc95484008f6362f93160ef3e5635b8284106119d0575050508201018161132d61131b565b8054848a0186015288955087949093019281016119ba565b90607f1690611958565b346101cb5760203660031901126101cb576004359063ffffffff60e01b82168092036101cb576020916380ac58cd60e01b8114908115611a4c575b8115611a3b575b5015158152f35b6301ffc9a760e01b14905083611a34565b635b5e139f60e01b81149150611a2d565b60005b838110611a705750506000910152565b8181015183820152602001611a60565b90602091611a9981518092818552858086019101611a5d565b601f01601f1916010190565b600435906001600160a01b03821682036101cb57565b602435906001600160a01b03821682036101cb57565b346101cb5760603660031901126101cb576001600160a01b03600435818116036101cb5760243590811614611bd957600080fd5b60c0810190811067ffffffffffffffff821117611b2157604052565b634e487b7160e01b600052604160045260246000fd5b6020810190811067ffffffffffffffff821117611b2157604052565b6060810190811067ffffffffffffffff821117611b2157604052565b90601f8019910116810190811067ffffffffffffffff821117611b2157604052565b67ffffffffffffffff8111611b2157601f01601f191660200190565b611bbe611bb982611e4d565b611cb6565b6000908152600460205260409020546001600160a01b031690565b60405162461bcd60e51b815260206004820152602f60248201527f50617373706f727420697320736f756c626f756e6420616e642063616e6e6f7460448201526e081899481d1c985b9cd9995c9c9959608a1b6064820152608490fd5b15611c3d57565b60405162461bcd60e51b815260206004820152600f60248201526e496e76616c6964206164647265737360881b6044820152606490fd5b15611c7b57565b60405162461bcd60e51b815260206004820152601360248201527214185cdcdc1bdc9d081b9bdd081b5a5b9d1959606a1b6044820152606490fd5b15611cbd57565b60405162461bcd60e51b815260206004820152601860248201527f4552433732313a20696e76616c696420746f6b656e20494400000000000000006044820152606490fd5b6000908152600260205260409020546001600160a01b0316611d25811515611cb6565b90565b6006546001600160a01b03163303611d3c57565b606460405162461bcd60e51b815260206004820152602060248201527f4f776e61626c653a2063616c6c6572206973206e6f7420746865206f776e65726044820152fd5b600260075414611d91576002600755565b60405162461bcd60e51b815260206004820152601f60248201527f5265656e7472616e637947756172643a207265656e7472616e742063616c6c006044820152606490fd5b60809060208152603260208201527f4552433732313a207472616e7366657220746f206e6f6e20455243373231526560408201527131b2b4bb32b91034b6b83632b6b2b73a32b960711b60608201520190565b15611e3057565b60405162461bcd60e51b815280611e4960048201611dd6565b0390fd5b604051906331a9108f60e11b82526004820152602081602481305afa9081611e7f575b50611e7a57600090565b600190565b6020813d602011611eb6575b81611e9860209383611b6f565b810103126101cb57516001600160a01b038116036101cb5738611e70565b3d9150611e8b565b90611ec882611b91565b611ed56040519182611b6f565b8281528092611ee6601f1991611b91565b0190602036910137565b806000917a184f03e93ff9f4daa797ed6e38ed64bf6a1f01000000000000000080821015612026575b506d04ee2d6d415b85acef810000000080831015612017575b50662386f26fc1000080831015612008575b506305f5e10080831015611ff9575b5061271080831015611fea575b506064821015611fda575b600a80921015611fd0575b600190816021611f8860018701611ebe565b95860101905b611f9a575b5050505090565b600019019083906f181899199a1a9b1b9c1cb0b131b232b360811b8282061a835304918215611fcb57919082611f8e565b611f93565b9160010191611f76565b9190606460029104910191611f6b565b60049193920491019138611f60565b60089193920491019138611f53565b60109193920491019138611f44565b60209193920491019138611f32565b604093508104915038611f19565b9081511561217c576040519161204983611b53565b604083527f4142434445464748494a4b4c4d4e4f505152535455565758595a61626364656660208401527f6768696a6b6c6d6e6f707172737475767778797a303132333435363738392b2f604084015280519260029160028501809511610f7f576003948590046001600160fe1b0381168103610f7f576120cf9060029694961b611ebe565b926020840192829183518401976020890192835194600085525b8a811061212f5750505050600393949596505251068060011461211c57600214612111575090565b603d90600019015390565b50603d9081600019820153600119015390565b836004919b989b019a8b51600190603f9082828260121c16870101518453828282600c1c16870101518385015382828260061c1687010151878501531684010151858201530196996120e9565b905060405161218a81611b37565b6000815290565b1561219857565b60405162461bcd60e51b815260206004820152602560248201527f4552433732313a207472616e736665722066726f6d20696e636f72726563742060448201526437bbb732b960d91b6064820152608490fd5b91929091803b1561230057612238936040519081630a85bd0160e11b9384825233600483015260009687602484015260448301526080606483015281878160209a8b966084830190611a80565b03926001600160a01b03165af18491816122bc575b506122ab575050503d6000146122a3573d61226781611b91565b906122756040519283611b6f565b81528091833d92013e5b805191826122a05760405162461bcd60e51b815280611e4960048201611dd6565b01fd5b50606061227f565b6001600160e01b0319161492509050565b9091508581813d83116122f9575b6122d48183611b6f565b810103126122f557516001600160e01b0319811681036122f557903861224d565b8480fd5b503d6122ca565b50915050600190565b9293919290803b156123885761235d9460018060a01b039460405192839187630a85bd0160e11b9687855233600486015216602484015260448301526080606483015281806020998a956084830190611a80565b03916000988991165af18491816122bc57506122ab575050503d6000146122a3573d61226781611b91565b5050915050600190565b1561239957565b60405162461bcd60e51b815260206004820152601c60248201527f4552433732313a20746f6b656e20616c7265616479206d696e746564000000006044820152606490fdfea2646970667358221220d0d11cd95553f14e8e1cf8a4d70a645dd7c4d3b4a90d4d237c17636ad5ca4f0064736f6c63430008180033",
  "linkReferences": {},
  "deployedLinkReferences": {}
}